:020000040800F2
:10000000F0FF03201D04000C4708000C6D08000CD5
:100010007108000C7308000C7508000C7708000CC0
:100020000000000000000000000000007708000C45
:100030006F08000C000000007708000C7708000C27
:100040007708000C7708000C7708000C7708000C84
:100050007708000C7708000C7708000C7708000C74
:100060007708000C7708000C7708000C7708000C64
:100070007708000C7708000C7708000C7708000C54
:100080007708000C7708000C7708000C7708000C44
:100090007708000C7708000C7708000C7708000C34
:1000A0007708000C7708000C7708000C7708000C24
:1000B0007708000C7708000C7708000C7708000C14
:1000C0007708000C000000000000000000000000A5
:1000D0007708000C7708000C7708000C7708000CF4
:1000E0007708000C7708000C7708000C7708000CE4
:1000F0007708000C7708000C7708000C7708000CD4
:100100007708000C7708000C7708000C7708000CC3
:100110007708000C7708000C7708000C7708000CB3
:100120007708000C7708000C7708000C7708000CA3
:100130007708000C7708000C7708000C7708000C93
:100140007708000C7708000C7708000C7708000C83
:10015000000000007708000C7708000C7708000CFE
:100160007708000C7708000C7708000C7708000C63
:100170007708000C7708000C7708000C7708000C53
:100180007708000C7708000C7708000C7708000C43
:100190007708000C7708000C7708000C7708000C33
:1001A0007708000C7708000C7708000C7708000C23
:1001B0007708000C7708000C7708000C7708000C13
:1001C000000000000000000000000000000000002F
:1001D000000000000000000000000000000000001F
:1001E000000000000000000000000000000000000F
:1001F0007708000C7708000C7708000C7708000CD3
:100200007708000C7708000C7708000C7708000CC2
:100210007708000C7708000C7708000C7708000CB2
:100220007708000C7708000C7708000C7708000CA2
:100230007708000C7708000C7708000C7708000C92
:100240007708000C7708000C7708000C7708000C82
:100250007708000C7708000C7708000C7708000C72
:100260007708000C7708000C7708000C7708000C62
:100270007708000C7708000C7708000C7708000C52
:100280007708000C7708000C7708000C7708000C42
:100290007708000C7708000C7708000C7708000C32
:1002A0007708000C7708000C7708000C7708000C22
:1002B0007708000C7708000CF0FF03201D04000CE9
:1002C0004708000C6D08000C7108000C7308000C46
:1002D0007508000C7708000C00000000000000000A
:1002E000000000007708000C6F08000C0000000000
:1002F0007708000C7708000C7708000C7708000CD2
:100300007708000C7708000C7708000C7708000CC1
:100310007708000C7708000C7708000C7708000CB1
:100320007708000C7708000C7708000C7708000CA1
:100330007708000C7708000C7708000C7708000C91
:100340007708000C7708000C7708000C7708000C81
:100350007708000C7708000C7708000C7708000C71
:100360007708000C7708000C7708000C7708000C61
:100370007708000C7708000C7708000C7B08000C4D
:100380007B08000C7B08000C7708000C7708000C39
:100390007708000C7708000C7708000C7708000C31
:1003A0007708000C7708000C7708000C7708000C21
:1003B0007708000C7708000C7708000C7708000C11
:1003C0007708000C7708000C7708000C7708000C01
:1003D0007708000C7708000C7708000C7708000CF1
:1003E0007708000C7708000C7708000C7708000CE1
:1003F0007708000C7708000C7708000C7708000CD1
:100400007708000C7708000C7B08000C7708000CBC
:100410007708000C7708000C7708000C7708000CB0
:100420007708000C7708000C7708000C7708000CA0
:100430007708000C7708000C7708000C7708000C90
:100440007708000C7708000C7708000C7708000C80
:100450007708000C7708000C7708000C7708000C70
:100460007708000C7708000C7708000C7708000C60
:100470007708000C7708000C7B08000C7B08000C48
:100480007B08000C7B08000C7B08000C7B08000C30
:100490007B08000C7B08000C7B08000C7B08000C20
:1004A0007B08000C7B08000C7708000C7708000C18
:1004B0007708000C7708000C7708000C7708000C10
:1004C0007708000C7708000C7708000C7708000C00
:1004D0007708000C7708000C7708000C7708000CF0
:1004E0007708000C7708000C7708000C7708000CE0
:1004F0007708000C7708000C7708000C7708000CD0
:100500007708000C7708000C7708000C7708000CBF
:100510007708000C7708000C7708000C7708000CAF
:100520007708000C7708000C7708000C7708000C9F
:100530007708000C7708000C7708000C7708000C8F
:100540007708000C7708000C7708000C7708000C7F
:100550007708000C7708000C7708000C7708000C6F
:100560007708000C7708000C7708000C7708000C5F
:020000040A00F0
:100000000100FEFF0100FEFF0100FEFF0100FEFFF8
:100010000100FEFF0100FEFF0100FEFF0100FEFFE8
:10002000FFFFFFFFFFFFFFFFFFFFFFFFFFFFFFFFE0
:10003000FFFFFFFFFFFFFFFFFFFFFFFFFFFFFFFFD0
:1000400000000000FFFFFFFF07000000FF050000A9
:100054000F0F00007000000002000000000000000C
:100064000202000000000000021000000300000073
:10007400000000000001010040000000FFFFFFFF3E
:0400A000FFFFFFFF60
:0C200000000000400100FEFFFFFFFFFF9A
:10202000FFFFFFFFFFFFFFFFFFFFFFFFFFFFFFFFC0
:10203000FFFFFFFFFFFFFFFFFFFFFFFFFFFFFFFFB0
:10204000FFFFFFFFFFFFFFFFFFFFFFFFFFFFFFFFA0
:10205000FFFFFFFFFFFFFFFFFFFFFFFFFFFFFFFF90
:10206000FFFFFFFFFFFFFFFFFFFFFFFFFFFFFFFF80
:10207000FFFFFFFFFFFFFFFFFFFFFFFFFFFFFFFF70
:10208000FFFFFFFFFFFFFFFFFFFFFFFFFFFFFFFF60
:10209000FFFFFFFFFFFFFFFFFFFFFFFFFFFFFFFF50
:1020A000FFFFFFFFFFFFFFFFFFFFFFFFFFFFFFFF40
:1020B000FFFFFFFFFFFFFFFFFFFFFFFFFFFFFFFF30
:1020C000FFFFFFFFFFFFFFFFFFFFFFFFFFFFFFFF20
:1020D000FFFFFFFFFFFFFFFFFFFFFFFFFFFFFFFF10
:1020E0000607000004CF0F0036F70707863A000006
:1020F000FF0300003F000000BF000000FFFFFFFFE4
:04210000FFFFFFFFDF
:10211000FFFFFFFFFFFFFFFFFFFFFFFFFFFFFFFFCF
:04212000FFFFFFFFBF
:108000000000FFFF0000FFFF0000FFFF0000FFFF78
:108010000000FFFF0000FFFF0000FFFF0000FFFF68
:10802000FFFFFFFFFFFFFFFFFFFFFFFFFFFFFFFF60
:10803000FFFFFFFFFFFFFFFFFFFFFFFFFFFFFFFF50
:1080400044000000FFFFFFFF07000000FF050000E5
:108054000F0F00007000000002000000000000008C
:1080640002020000000000000210000003000000F3
:10807400000000000001010040000000FFFFFFFFBE
:0480A000FFFFFFFFE0
:0CA00000000000400000FFFFFFFFFFFF1A
:10A02000FFFFFFFFFFFFFFFFFFFFFFFFFFFFFFFF40
:10A03000FFFFFFFFFFFFFFFFFFFFFFFFFFFFFFFF30
:10A04000FFFFFFFFFFFFFFFFFFFFFFFFFFFFFFFF20
:10A05000FFFFFFFFFFFFFFFFFFFFFFFFFFFFFFFF10
:10A06000FFFFFFFFFFFFFFFFFFFFFFFFFFFFFFFF00
:10A07000FFFFFFFFFFFFFFFFFFFFFFFFFFFFFFFFF0
:10A08000FFFFFFFFFFFFFFFFFFFFFFFFFFFFFFFFE0
:10A09000FFFFFFFFFFFFFFFFFFFFFFFFFFFFFFFFD0
:10A0A000FFFFFFFFFFFFFFFFFFFFFFFFFFFFFFFFC0
:10A0B000FFFFFFFFFFFFFFFFFFFFFFFFFFFFFFFFB0
:10A0C000FFFFFFFFFFFFFFFFFFFFFFFFFFFFFFFFA0
:10A0D000FFFFFFFFFFFFFFFFFFFFFFFFFFFFFFFF90
:10A0E0000607000004CF0F0036F70707863A000086
:10A0F000FF0300003F000000BF000000FFFFFFFF64
:04A10000FFFFFFFF5F
:10A11000FFFFFFFFFFFFFFFFFFFFFFFFFFFFFFFF4F
:04A12000FFFFFFFF3F
:020000040C00EE
:1000000008B500F05DFABDE80840714672467346D7
:10001000B7EE000AF7EE000AB7EE001AF7EE001A84
:10002000B7EE002AF7EE002AB7EE003AF7EE003AF4
:10003000B7EE004AF7EE004AB7EE005AF7EE005A64
:10004000B7EE006AF7EE006AB7EE007AF7EE007AD4
:100050008EF3008C10B4F1EE10CA4FF66074C0F647
:10006000FF740CEA040CE1EE10CA10BCF4467447AD
:1000700008B500F0F1FBBDE80840704671467246D5
:100080007346B7EE000AF7EE000AB7EE001AF7EE75
:10009000001AB7EE002AF7EE002AB7EE003AF7EEA4
:1000A000003AB7EE004AF7EE004AB7EE005AF7EE14
:1000B000005AB7EE006AF7EE006AB7EE007AF7EE84
:1000C000007A8EF3008C10B4F1EE10CA4FF6607413
:1000D000C0F6FF740CEA040CE1EE10CA10BCF44642
:1000E00074470000F8B500BFF8BC08BC9E467047D6
:1000F0003907000CF8B500BFF8BC08BC9E46704735
:100100001507000CF0B540F2FF7681EA030C16EA01
:10011000115E1EBFB64516EA1355B54252D021EA0C
:10012000465141F48011A1FB024723EA465343F4B0
:100130008013AE44A0FB03650CF0004C36197D41E2
:10014000A1FB034747F10003A0FB0217F619654125
:1001500053F10003094218BF46F0010640F2FE7455
:10016000B3F5007F13D2AEF5806EA64523D24CEADC
:100170000331280341EA155140EA1650320345087D
:1001800072F1004250F1000051EB0E51F0BDAEF2A1
:10019000FF3EA6450FD24CEAC321E80241EA555181
:1001A00040EA5650F202450872F1004250F1000058
:1001B00051EB0E51F0BD1EEA0E0F2DD50CF0004193
:1001C0000020F0BD16EA115F04BF01F000410020DD
:1001D000004218BF41F0010116EA135F04BF03F0AB
:1001E00000430022124218BF43F0010306EA1354F1
:1001F000B44218BFB64503D00CF000410020F0BD5A
:1002000021F0004123F00043B1EB065F0CD8B3EBC3
:10021000065F09D841B13BB10CF0004141F0FE410D
:1002200041F470010020F0BD40F20001C7F6F87102
:100230000020F0BD474AD36823F4E0631B041B0C85
:1002400043F0BF6343F40033D360BFF35F8F62B604
:10025000414BD3F8842242F00202C3F88422D3F83F
:100260008422D3F8842242F00402C3F88422D3F813
:100270008422D3F8842242F00802C3F88422D3F8FF
:100280008422D3F8882242F01002C3F88822D3F8DF
:100290008822D3F88C2242F00102C3F88C22D3F8D2
:1002A0008C22D3F88C2242F00202C3F88C22D3F8BD
:1002B0008C22D3F88C2242F00402C3F88C22D3F8AB
:1002C0008C22D3F88C2242F00802C3F88C22D3F897
:1002D0008C22D3F88C2242F01002C3F88C22D3F87F
:1002E0008C22D3F88C2242F02002C3F88C22D3F85F
:1002F0008C22D3F88C2242F04002C3F88C22D3F82F
:100300008C22D3F88C2242F08002C3F88C22D3F8DE
:100310008C22D3F88C2242F48072C3F88C22D3F85A
:100320008C22D3F88C2242F40072C3F88C22D3F8CA
:100330008C22D3F88C2242F48062C3F88C22D3F84A
:100340008C22D3F88C2242F40062C3F88C22D3F8BA
:100350008C32704700ED00E000E100E0294B012203
:100360001A61294AD36943F48033D361D36813F403
:10037000807FFBD0254B0C229A64F0225A64002225
:10038000DA661A46936F13F0400FFBD11F4A882399
:10039000D364136C43F4206343F0020313641369C2
:1003A00013F0807FFBD01A4B1A4A1A621A46536820
:1003B00013F0040FFBD1164B174A5A621A465368C2
:1003C00013F0080FFBD1124B4122C3F8DC201A4670
:1003D000D2F8DC3013F0400FFAD00D4B4122C3F8B5
:1003E000E4201A46D2F8E43013F0400FFAD0084B5C
:1003F0004122C3F8E8201A46D2F8E83013F0400F43
:10040000FAD0704700E000440080004400C000447F
:1004100000000144060101000601020008B51F4B5F
:1004200098471F4B9847EFF3108172B61D4BD3F8D6
:10043000882042F47002C3F88820D3F88C2042F45C
:100440004062C3F88C20184A536843F07C435360E1
:10045000BFF34F8FBFF36F8F01B962B6134A936832
:1004600023F0010393601346DA6812F0010FFBD109
:100470000E4B24225A6001229A6000F08BF90C4B3B
:1004800023F07F03074A93600A4B98470A4B98472B
:100490000A4B984700F054F8FEE700BF7908000CBB
:1004A0007908000C00ED00E030EF00E000808044AF
:1004B00000000008B905000C7908000C7908000C50
:1004C00000B583B00378407840EA032000B20028EA
:1004D00022DBC01100F078F90022164BFFF712FE64
:1004E00000F0F2F800B207EE900AF8EEE77AB2EE0A
:1004F000027A67EE877AF1EE046A87EEA67ADFED7C
:100500000E7A77EE277AFDEEE77ACDED017A9DF946
:10051000040003B05DF804FB404240F3C81000F053
:1005200053F90022054BFFF7EDFD00F0CDF800B2C6
:10053000D9E700BF0000E03F000000420000E0BF3C
:1005400010B582B04FF041631C68002000F05CF9E8
:10055000B4F1FF3F2DD084F38888164B1B680193BC
:10056000019C640864002046214622462346B7EEDB
:10057000000AF7EE000AB7EE001AF7EE001AB7EE1F
:10058000002AF7EE002AB7EE003AF7EE003AB7EE8F
:10059000004AF7EE004AB7EE005AF7EE005AB7EEFF
:1005A000006AF7EE006AB7EE007AF7EE007A00F024
:1005B00031F8FEE70400100C38B50E4A00230E4C4B
:1005C00013600E4A0E4D13600E4A13600E4A1360FC
:1005D0000E4A13600E4A536213610123936000F0C8
:1005E0004DF900F04BF9AC4200D338BD54F8043B50
:1005F0009847F8E770000020F000000C0C00002085
:10060000F400000C0800002000000020040000207E
:10061000100000202DE9E04F2746A046A146A24643
:10062000A346A4462DED108B4FF0000545EC185B5A
:1006300045EC195A45EC1A5A45EC1B5A45EC1C5A24
:1006400045EC1D5A45EC1E5A45EC1F5AF1EE105A66
:100650004FF66076C0F6FF763540E1EE105A84F32F
:10066000008825462646A447BDEC108BBDE8E08FE8
:10067000144B012283F8582083F85920222183F853
:100680003C104FF04071D96683F8C92083F8CA2026
:10069000202283F8B420022283F8B5204FF4C062F0
:1006A000C3F8EC200022C3F86C214FF48011C3F88A
:1006B0008011C3F8901183F8D42183F8BA21C3F8CC
:1006C000EC21704700108044C1F30A5340F21E42EF
:1006D000D21A0EDD202A0AD8CB0243EA505040F04D
:1006E0000040D04090EAE170B0EBE170704700202C
:1006F00070474B00004218BF43F0010313F5001F81
:1007000088BF21F0004111F0004058BF6FF0004059
:100710007047704710B5054C227832B9044B13B1BD
:10072000044800E000BF0123237010BD50000020EA
:10073000000000000000000008B5034B1BB1034996
:10074000034800E000BF08BD000000005400002086
:1007500000000000500000201C000000000000000D
:100760006C000020040000000000000000000020D9
:100770005000000000000000700000200400000095
:1007800000000000000000000000000066666666D1
:100790006666666670B50A484FF6FF76094D0168D1
:1007A00011B9436803B970BD836800F10C04426855
:1007B0003340204655F82330984704EB8000EEE79D
:1007C0005407000C2008000C10F0004160B148BF35
:1007D00040420A0D02F21D42B0FA80F3D21A98404C
:1007E000C30A400503EB02517047002310B5934242
:1007F00006D113F0030018BF012000EB930010BDD9
:10080000C45CCC540133F2E708B5FFF731FFFFF7C2
:10081000A5FDFFF77EFF00F017F8FFF70BFD08BD01
:100820003508000CEB07000C6908000C6908000C87
:100830006908000C0A440023914201D1002070474E
:1008400001F8013BF8E7FEE7024B04221A725A72E4
:10085000704700BF00600044024B4FF48012C3F8A1
:100860009C2170470010804400207047FEE7FEE79F
:0E087000FEE7FEE7FEE7FEE77047FEE7704793
:020000040C0FDF
:10F000007FE97FE901F734B87FE97FE900F7F8BFCE
:020000040C10DE
:10000000F0FF0720F12E100CB332100C9736100CB5
:1000100000000000000000000000000000000000E0
:10002000000000000000000000000000D320100CC1
:100030000000000000000000D320100CD320100CA2
:1000400000000000000000000000000000000000B0
:1000500000000000000000000000000000000000A0
:100060000000000000000000000000000000000090
:100070000000000000000000000000000000000080
:100080000000000000000000000000000000000070
:100090000000000000000000000000000000000060
:1000A0000000000000000000000000000000000050
:1000B0000000000000000000000000000000000040
:1000C000000000007543100C9D43100CC543100C3C
:1000D0000000000000000000000000000000000020
:1000E0000000000000000000000000000000000010
:1000F0000000000000000000000000000000000000
:1001000000000000000000000000000000000000EF
:1001100000000000000000000000000000000000DF
:1001200000000000000000000000000000000000CF
:1001300000000000000000000000000000000000BF
:1001400000000000000000000000000000000000AF
:100150001544100C0000000000000000000000002A
:10016000000000000000000000000000000000008F
:10017000000000000000000000000000000000007F
:10018000000000000000000000000000000000006F
:10019000000000000000000000000000000000005F
:1001A000000000000000000000000000000000004F
:1001B000000000000000000000000000000000003F
:1001C0008518100C8518100C8518100C8518100C4B
:1001D0008518100C8518100C1D38100C1D38100CCB
:1001E0001D38100C1D38100C1D38100C1D38100C4B
:1001F00000000000000000000000000000000000FF
:1002000000000000000000000000000000000000EE
:1002100000000000000000000000000000000000DE
:1002200000000000000000000000000000000000CE
:1002300000000000000000000000000000000000BE
:1002400000000000000000000000000000000000AE
:10025000000000000000000000000000000000009E
:10026000000000000000000000000000000000008E
:10027000000000000000000000000000000000007E
:10028000000000000000000000000000000000006E
:10029000000000000000000000000000000000005E
:1002A000000000000000000000000000000000004E
:1002B0000000000000000000F8B500BFF8BC08BC5A
:1002C0009E4670476D3D100CF8B500BFF8BC08BCE9
:1002D0009E467047493D100C880C0000010000004C
:1002E0002DE9F04F2DED028B97B0CD68CDE90C13C1
:1002F0008B680F9008930B69D2E90089D1E900B6A9
:100300001493002200234046494603F081FE40B981
:100310001BF0040F32D11BF00803059330D02023CB
:1003200003E089F0004399462D232B70089B03F1CD
:10033000FF3A0123059329F000434B4900208B42EB
:1003400008BF80451FD10D9B413B192B059B2B44BA
:1003500094BF46494649184604F022FB284604F05B
:10036000C9F9089B02462946CDF800B00F9802F063
:1003700023FF17B0BDEC028BBDE8F08F2B23D4E731
:10038000DDF820A0D7E7994208BF404509D20D9B70
:10039000413B192B059B2B4494BF364936491846DF
:1003A000DAE7002200234046494603F0E9FE9FEDCC
:1003B0002C7B8DED027B48B300240D9804F08EFA5F
:1003C000002EC3B20993C0F2DA81672B5AD1002EF6
:1003D00008BF0126231D02DBB442C0F2C981652794
:1003E00061E09DED067B01348DED027B0022234B05
:1003F000DDE9020101F044FD42464B46CDE906012C
:1004000003F0EAFD0028ECD000271FE00446EDE7EA
:1004100014F5967F11DA87B90022194B40464946F8
:10042000012701F02DFD002280468946144BDDE9AD
:10043000020101F025FDCDE90201013C00220F4B34
:10044000DDE9020101F009F8CDE90201DDE902234D
:100450004046494603F0DCFD0028D9D1ADE700BF96
:10046000000000000000F03F0000F07FB048100CDA
:10047000B448100CB848100CBC48100C00002440C4
:1004800000005043099F662F06F101060BD1002C96
:1004900004DA00249FEDBE7B8DED027B099B672B68
:1004A00018BF3619662700239DED027BCDE906892A
:1004B0000E938DED0A7BDDE90A23DDE9060100F0EC
:1004C000CCFF41EC100B02F003FBB0EE408AF0EEE3
:1004D000608A51EC100B03F03FFB069BB0EE480A1C
:1004E000F0EE680A15901093079B83F00043119378
:1004F0009DED0A1B9DED102B03F0FCFE8DED060A11
:1005000053EC102B83F0004300220793A44BDDE94A
:100510000A0100F0A2FF0E9B01339E420E93CDE92B
:100520000A01C8D100229F4B01F0AAFC02460B46EB
:10053000CDE90A01DDE9060103F06AFD002840F07B
:100540008480DDE90A23DDE9060103F019FE10B11C
:10055000159BDA0779D540464946DDE90A2300F0C4
:100560005DFE00228E4BCDE90601DDE9020101F0BE
:1005700087FCDDE90623CDE90A0103F09FFC002892
:1005800068D0662F04F1010468D10136A146A9EBB9
:1005900006034FF00008059E1093CDF80880109BCD
:1005A000994540F08480029B002B00F0CB80A81975
:1005B0000022652F02702CD1149B9442149903F1F0
:1005C000FF33B8BF6442C1F1030E4FF00A01EA5491
:1005D000B8BF0122002C40F0BC800EEB030CBCF134
:1005E000000F00F3B680002A03F1FF31A3F10203EC
:1005F000AAF1020A14BF2D222B226A54E9180D9A7F
:10060000413A192A98BF45279E420F7001DA04F03B
:10061000C7F90BF00303022B7FF4A0AEBAF1000F71
:100620007FF79CAE284604F065F805EB0A03059AAF
:10063000824240F39980059B524630212B44184654
:1006400004F0DEF80023089388E69FED537B8DEDE0
:100650000A7B80E79DED027B8DED0A7B652F14BF41
:10066000A1464FF0000992E7029A52B9B9F1000F82
:1006700007DA2E220E9901360AF1FF3A6A54012256
:10068000029205EB0801AA193020314401E002F87A
:10069000010B9142FBD108EB06023033AAEB0808AC
:1006A000561CAB5408F1FF3A4FF0000828E00C9BB1
:1006B0000E961B69053BB3427FF675AFDDE90A2351
:1006C000DDE9060100F0C9FE41EC100B02F000FA72
:1006D000B0EE408AF0EE608A51EC100B03F03CFA69
:1006E0000BF0100209280346A8BF09230243BBD11F
:1006F000099A672AB8D1B9F1000FC2DA08F10108E6
:10070000069BB0EE480AF0EE680A09F1FF39129331
:10071000079B83F0004313939DED0A1B9DED122B65
:1007200003F0E8FD8DED060A53EC102B83F0004337
:10073000002207931A4BDDE90A0100F08EFECDE995
:100740000A012CE71BF0100F1EBF2E23AB550136FC
:100750002DE7B4FBF1FC01FB1C44013B0AF1FF3A1D
:100760003034EC54644635E72A5C1A5401385EE7AD
:10077000002CBFF697AE662785E606262AE6099B7B
:10078000672BFAD01F4606267DE600BFAFF3008038
:10079000000000000000F03F00000000000000002A
:1007A00000002440000014402DE9F04F95B0CC68C3
:1007B000CDE912030B6808934B680A938B6892ED9E
:1007C000007B099300220B6951EC170B0D9300235A
:1007D0008DED047B03F01CFC40B9089B580733D413
:1007E000089B13F0080731D0202306E0DDE904213F
:1007F00081F00043CDE904232D2323700127099BB9
:100800005A1EDFF8F4B24FF0000ADDE9040323F0CA
:100810000041594508BF50451AD1139BE019413B8F
:10082000192B94BFAE49AF4904F0BAF8AD4803F0B4
:1008300061FF089B024621460093099B129802F033
:10084000BBFC15B0BDE8F08F2B23D6E7099AD8E79B
:100850008B45139B08BF8245A3F141030B9309D23B
:10086000192B04EB070094BF9F49A04904F098F8A6
:100870009E48DCE730217B1CE15502370B991A2991
:1008800034BF58217821E154931E0022079300239E
:10089000DDE9040103F074FC002800F078810025F4
:1008A0009FED8D7B8DED027B0A9B0026002BDDE901
:1008B0000289B8BF1823DDE904AB0E9342464B46CC
:1008C0005046594600F0C9FD41EC100B02F000F90A
:1008D00042464B4651EC100B8DED100B01F0D0FA57
:1008E00002460B465046594604F07AF8804B824641
:1008F0008B4640464946002201F0C2FA731C8046EE
:1009000089460C930A9B002B06DA002200235046EE
:10091000594603F035FC28B90E9BB34200F33D81E4
:1009200001330C930022734B4046494601F0A8FA6C
:100930008046894602460B465046594603F068FBFE
:10094000002840F02C8142464B465046594603F061
:1009500017FC30B1DDE9100103F0FEF8C10740F1EA
:100960001E8142464B46DDE9040100F057FCCDE90B
:100970000401DDE90421002021F000435E498B429F
:1009800008BF82423FF449AF4FF000083E46C246DE
:10099000C1460D9BB346053BB34233D9DDE9022383
:1009A000DDE9040100F059FD41EC100B02F090F874
:1009B00051EC100B8DED0E0B03F0CEF8002840F03B
:1009C000F380B9F1000F00F0EF8008F1010809F1A0
:1009D0000109DDE90223DDE90E0101F051FA0246C9
:1009E0000B46DDE9040103F0FBFF414B0022CDE99A
:1009F0000401DDE9020101F043FA0C9B4B45CDE90E
:100A00000201C6D1BAF1000F1DD1B8F1000F00F0FC
:100A100011810A9B002B40F30D81089BDA0700F13E
:100A200009812E22A31930211A7008EB06022244F4
:100A300003F8011F9A42FBD14644079B6FEA08085E
:100A400001364344079300220D9BA0190D9995424E
:100A500003F1FF330270C1F1020EE254BCBF6D42DC
:100A600001224FF00A08002D40F0D4800EEB030C59
:100A7000BCF1010F00F0CE80002A03F1FF31A3F199
:100A8000020314BF2D222B226254E1180B9A1A2A5A
:100A900034BF502270229E420A7001DA03F080FFB8
:100AA000089B03F00303022B14D1079BA3F1020858
:100AB000B8F1000F0EDD204603F01CFE04EB080326
:100AC000B84280F2B38042463021E01903F098FE2C
:100AD000002309932046AAE6000000000000F03F32
:100AE000A048100CA448100CA848100CAC48100CDE
:100AF0000000B03F000020400000F07F0135CDE94C
:100B00000289DDE902231046194600F087FB804682
:100B1000894602460B46DDE9040103F079FA002814
:100B2000ECD04FF0000ADFF828B14FF00008DFF8F2
:100B30002491DDE90223DDE9040103F069FA0028CC
:100B40003FF4B2AE52465B46DDE9020101F098F98E
:100B50000022002303F014FB78B142464B46DDE946
:100B6000020101F08DF942464B46CDE90201DDE973
:100B7000040101F085F9CDE90401DDE902015246E5
:100B80005B4601F07DF9013DCDE90201D1E79FED22
:100B90002E7B05468DED027BB3E70C9E8EE64FF073
:100BA00000084FF00009DCE6BAF1000F0BD1B9F1F3
:100BB000000F08D02E2301364FF0010A04F80B3045
:100BC000079B013B079304EB0803A2193021334430
:100BD00001E002F8011B9A42FBD1079B092806EBB2
:100BE000080BA3EB08080B9BD4BF30305730192BF0
:100BF00006D840F02003613B192B01D803F075FEA5
:100C000008F1FF330BF1010604F80B004FF0000868
:100C10000793DCE6B5FBF8FC079908FB1C55013B84
:100C200030350139E554654607911CE7225C1A54BA
:100C3000013845E7089BDB067FF505AF2E23A3555A
:100C4000013600E7AFF30080000000000000F03F35
:100C50000000E03F000050432DE9F0410646AEB0F1
:100C600015460027059105990B78002B00F0FA80B6
:100C700000244FF0FF33CDE909430EAB0B940C93E6
:100C800080230D930B5D0BB1252B26D134B1224669
:100C9000304603F0D3FB059B23440593059B1A784C
:100CA000252A40F0D78003F10108CDF8148005987B
:100CB00003782B2B1AD025D8202B1BD0232B1DD00B
:100CC0002A2B27D003F01EF80B90059B1A78303A98
:100CD000092A2ED801330593F7E70134D2E7099B9F
:100CE00043F00103013009930590E0E7099B43F0CD
:100CF0000403F7E7099B43F00803F3E7099B43F07C
:100D00001003EFE72D2BEAD0302BD9D1099B43F00C
:100D10000203E7E72B6801301A1D1B680590002BC2
:100D20002A600B9305DA099A5B4282F001020B9369
:100D30000992099BDA0744BF23F002030993059B3C
:100D40001A782E2A0DD10022581C0A9205905A7842
:100D50002A2A25D1023305932B681A1D1B682A60A5
:100D60000A9305A803F01CF9059B0390187803F07B
:100D7000B5FD6928039979D032DC632800F0CB8077
:100D800019DC252800F0D980612853D000234FF0CA
:100D9000FF32CDF8148009930B930A920093D4E0AC
:100DA00002F0B0FF0A90059B1A78303A092AD8D889
:100DB00001330593F7E7642858D06728E6DC2A4614
:100DC00006A803F0C2FA002800F0A180059B09A93B
:100DD00030465A1C059206AA1B78FFF781FA38E0C4
:100DE000702873D015DC6E2800F08C806F28CDD170
:100DF0002B46002206A801F0D1FF002800F08780D2
:100E0000059B06AA09A930460133059302F004FBAD
:100E10001FE075283AD0782848D07328B6D18029A9
:100E200075D1059B2A6801330593131D2B600023A0
:100E300012687DE02A4606A803F087FA002866D0EB
:100E4000059B09A930465A1C059206AA1B78FFF794
:100E5000ABFC04443C44A7427ADD3E4B4F224FF0AA
:100E6000FF371A6038462EB0BDE8F0812B460122CC
:100E700006A801F093FF002849D0059B06AA09A9FE
:100E800030460133059301F0DFFFE2E72B460022F5
:100E900006A801F083FF002839D0059B06AA09A9FE
:100EA00030460133059302F011FDD2E72B460022B4
:100EB00006A801F073FF50B3059B5A1C05921B78DE
:100EC00006AA09A9304601F073F8C2E72B460022B2
:100ED000F02106A801F062FFC8B1059B013305931C
:100EE000DDE9062313430BD11B4803F003FC099BE8
:100EF0000246194900930B9B304602F05DF9A8E7C2
:100F00007823DDE72B463A1906A802F094F9059BF1
:100F1000013305939EE78029F9D1059B01330593A1
:100F20002B681A1D1B682A6006AA8DF81830012349
:100F300009A9304602F09EFC8BE78029E7D1059B8A
:100F400001330593099B00930B9B01220349D3E7CF
:100F5000274688E6AC040420D849100CDE49100C62
:100F60002DE9F04F099F154604468E461E46002B7C
:100F700040F0CC808A42B2FA82FC4CD9BCF1000F1E
:100F80000BD0CCF1200801FA0CFE02FA0CF500FAA5
:100F90000CF420FA08F848EA0E0E4FEA15491FFA39
:100FA00085F8210CBEFBF9FA09FB1AE30AFB08FBE2
:100FB00041EA03439B452AD9EB180AF1FF3004D2DA
:100FC0009B4502D9AAF102002B44A3EB0B03A4B268
:100FD000B3FBF9F209FB123302FB08F844EA0344BD
:100FE000A04516D92C1902F1FF3303D2A04501D92F
:100FF000931E2C44A4EB080443EA004027B124FAD2
:101000000CF400233C607B603146BDE8F08F504615
:10101000DBE71346EEE702B9FFDEBCF1000F2ED18D
:101020008B1A01264FEA154EAAB2210CB3FBFEF82B
:101030000EFB183308FB02F941EA0343994561D9D5
:10104000EB1808F1FF3004D2994502D9A8F102004B
:101050002B44A3EB0903A4B2B3FBFEF10EFB113347
:101060004A4344EA0344A2424ED92C1901F1FF330A
:1010700003D2A24201D98B1E2C44A41ABCE702FA67
:101080000CF5CCF1200E01FA0CF300FA0CF421FA65
:101090000EF94FEA154820FA0EFEB9FBF8F14EEAB8
:1010A000030308FB11921FFA85FE180C01FB0EF6D4
:1010B00040EA0242964221D9AA1801F1FF3003D238
:1010C000964201D9881E2A44921B9BB2B2FBF8F9C2
:1010D00008FB192209FB0EFE43EA02439E450FD985
:1010E000EB1809F1FF3604D29E4502D9A9F1020698
:1010F0002B44A3EB0E0346EA004693E70846E3E7DA
:101100004E46F6E74046A4E70B46B6E78B4206D9C3
:10111000002F7ED00026C7E90001304674E7B3FAFD
:1011200083FCBCF1000F0FD18B4201D3824209D85E
:10113000841A61EB030E0120002F6DD0C7E9004E29
:10114000002661E76046F7E7CCF1200E03FA0CF3C6
:1011500000FA0CF622FA0EF521FA0EF402FA0CF25D
:101160001D4301FA0CF320FA0EF14FEA154A0B4326
:101170001FFA85F8B4FBFAF90AFB19401C0C09FBAD
:1011800008F144EA0044A1423FD92C1909F1FF308B
:1011900004D2A14202D9A9F102002C44641A9BB2E4
:1011A000B4FBFAF90AFB194409FB08F843EA0441C5
:1011B00088452CD9691809F1FF3304D2884502D932
:1011C000A9F10203294443EA0040A1EB0801A0FB76
:1011D00002894945C2464C4602D306D1464504D24F
:1011E0000138B8EB020A69EB0504AFB1B6EB0A03AC
:1011F00061EB040606FA0EFE23FA0CF326FA0CF64F
:101200004EEA0303C7E900369AE74846C6E74B466D
:10121000D9E73E463846F7E63E46F5E630B591EA70
:10122000030F00F18280841A71EB030C05D21219AE
:1012300053EB0C03001B71EB0C0140F2000CCFF6DA
:10124000E07C1CEA430F52D0BCEB410F5FD90C0D80
:10125000A4EB135E5FF0010C6CF31F516CF31F5392
:10126000DEF1200C2AD303FA0CF5401941F10001FC
:1012700022FA0EF5401923FA0EF5694112FA0CF222
:10128000CD0208D349085FEA30005FEA320228BF86
:1012900042F001020134013C5FEA500C72F100425D
:1012A00050F1000051EB04514FF4001313EB410FC8
:1012B00038BF30BD6FF31301002030BDBEF1200EEA
:1012C000BEF1200F1ED223FA0EF5401941F10001A4
:1012D000CEF1200C124218BF012203FA0CF52A436A
:1012E000CEE711EA5C0F04BF0020002130BD1CEAEC
:1012F000410F04BF01F00041002030BD01F000416A
:10130000002030BD21F4801101EB045130BD0042BA
:1013100018BF41F00101BCEB410F08BF30BD4FF0D9
:10132000FE4141F47801002030BD83F00043841A6F
:1013300071EB030E07D28EF0004E001B71EB0E0115
:10134000121953EB0E0340F2000CCFF6E07C1CEABE
:10135000430FC6D0BCEB410F72D90C0DA4EB135E4A
:10136000C90241EA5051C00241F00041DB0243EAA8
:101370005253D20243F00043DEF1200C41D312FA63
:101380000CF522FA0EF203FA0CF542EA050218BF38
:1013900042F0010223FA0EF3801A9941E30AC4F3E2
:1013A0000A0411F0404F03D418D0013C40004941D9
:1013B000013C23D44205C00A40EA4150C90A51EA1F
:1013C000C3715FEA500C72F1004250F1000051EB22
:1013D000045130BD01002FD00020203C0029F9D05D
:1013E000B1FA81FCDCF1200E11FA0CF130FA0EF5A5
:1013F00010FA0CF02943A4EB0C04D9E70020D9071C
:1014000030BDAEF1200EBEF1200F0DD2CEF1200C7A
:1014100003FA0CF533FA0EF32A4318BF43F0010325
:10142000C01A61F10001B9E721F00041C00A40EAA9
:101430004150C90A01EB045130BD0020002130BDEC
:10144000004218BF41F00101BCEB410F7FF467AFD0
:10145000BCEB430F3FF463AF30BDF0B581EA030E40
:101460000EF0004E40F20007CFF6E07717EA410594
:101470001EBF95EA070F17EA430494EA070F00F02E
:10148000C5806D0DA5EB545707F580674FF00046FA
:1014900046EAC12444EA5054C00246EAC32343EA60
:1014A0005253D202801A9C4104D200186441801821
:1014B0005C41013F5B084FEA32020025002140F009
:1014C00001004FF0070604E0801A9C4136D34041EA
:1014D0006441801A9C4136D340416441801A9C414A
:1014E00036D340416441801A9C4136D34041644127
:1014F000801A9C4136D340416441013E17D0801A86
:101500009C4136D340416441801A9C4136D34041CE
:101510006441801A9C4136D340416441090201EB89
:10152000156190EA052520F0FF004540CCE7801AC0
:101530009C4156D335E080185C41C8D20018644104
:1015400080185C41C8D20018644180185C41C8D240
:101550000018644180185C41C8D2001864418018AA
:101560005C41C8D200186441013E17D080185C412C
:10157000C8D20018644180185C41C8D20018644188
:1015800080185C41C8D200186441090201EB156162
:1015900090EA052520F0FF004540CCE780185C412B
:1015A0001FD3420918BF44F00104490101EBD56182
:1015B00000F01F0000EB451021F4801141EA0E01FC
:1015C000013041F10001244208BF20F00100B7F5CD
:1015D000006F3EDA013F49DD01EB0751BDE8F04005
:1015E0007047490101EBD56100F01F0000EB451089
:1015F00021F4801141EA0E01B7F5006F29DA013FAD
:1016000034DD01EB0751BDE8F0407047004218BFE0
:1016100041F00101124218BF43F00103B7EB410F43
:101620002CBFB7EB430F1CE0B7EB410F04BFB7EB88
:10163000430F16E017EA410F04BF17EA430F10E00B
:1016400017EA410F12D017EA430F02D0B7EB430F4E
:101650000CD04EF0FE4141F470010020BDE8F04096
:1016600070474FF0FE4141F47801F6E77146F4E728
:101670002DE9F04F85B0109F9DF8448067B31C465C
:101680001546039102904FF0FF333B6002F018FAC9
:10169000834608B3B8F1010F0CD0B8F1020F0ED099
:1016A000B8F1080F0BD0BCB1B5B10F9BA3B10E9B25
:1016B0003BB911E00F9B7BB10E9B13B90CE05CB101
:1016C00055B1DBF80090C9EB091A6D4B03EB8A0AA0
:1016D000504601F05FFC10B905B0BDE8F08FDBF8B3
:1016E00000C0CCEB0C12664B03EB82035E6A186AF7
:1016F000002800F0C08033785BB106F12C02002393
:101700000133984200F0B780164612F82C1B0029CE
:10171000F6D1012232700022B262DBF80020120200
:1017200092B2CCEB0C10564901EB8001888D42EA55
:101730000042DBB2134333628B8D01339BB24FF611
:10174000FF72934208BF01238B85039B73800E9B1E
:1017500073600F9BB360F5603461029BB36100233B
:1017600086F8243001223277737586F81480336A44
:101770003B60DAF828306BB1C9EB0919404B03EB39
:101780008909D9F82830002B55D09A6A002A4ED101
:101790001A464FE0CAF82860C9EB0913384A02EB31
:1017A00083035A69DBF814309A420DD0C9EB09144F
:1017B000334B03EB8404E3685B6900210BF11400F5
:1017C0009847DBF81430636102233377B8F1010FD7
:1017D00035D0B8F1020F40D073683269F168708873
:1017E000C9EB0914264D05EB8404E568B468009440
:1017F000AC68A047F8B94FF0FF333B60C9EB09195B
:101800001F4B03EB8909D9F80C301B69984786F800
:10181000240096F82430DBB2002B0CBF01234FF0DC
:10182000FF337375504602F0FFFF04E01A46936AD7
:10183000002BFBD19662504601F07EFC4CE7C9EBD1
:1018400009130F4A02EB8303DB681B68B2687168F7
:10185000708898470028EED1CDE7C9EB0913084AF4
:1018600002EB8303DB685B683269F1687088984734
:101870000028E0D1BFE7504601F05EFC2CE700BF36
:10188000500304204FF08A439B7D002B00F0DF8043
:1018900010B56F4B9C6A4FF08A435B8B13F0020FBD
:1018A00016D06B4BFF2283F82020022283F82120E0
:1018B000674B93F820305BB2B3F1FF3F00F09280AA
:1018C000634B93F820305BB2062B00F0A68010BD6E
:1018D0004FF08A435B8B13F0010F07D05C4BFF2264
:1018E00083F82020022283F82120E1E74FF08A4389
:1018F0005B8B13F0040F07D0554BFF2283F8202099
:10190000012283F82120D3E7514B93F820305BB2BA
:10191000032B45D0042B10D0022BC9D14C4B1B6993
:101920002BB14B4B9888002102F0F0F8C0E7484BF0
:101930009888012102F0EAF8BAE7454A93691269EA
:101940009A420CD0424A9268D15C4FF08A4291622E
:10195000591CD369002BFCD13D4B9961A8E73C4B46
:101960005B697BB13A4B9B885B0043F001034FF00E
:101970008A425362D369002BFCD1354B032283F892
:10198000202095E74FF08A42536843F44033536078
:10199000D369002BFCD12E4B062283F8202087E749
:1019A0002B4BD9695B69013B8B420DD04FF08A42CA
:1019B000D369002BFCD14FF08A43986A244BDA6834
:1019C00050540131D96173E74FF08A42536843F4B0
:1019D000E0235360D369002BFCD11D4B062283F812
:1019E0002020E3E71A4B002283F820204FF08A42A0
:1019F000536843F440335360D369002BFCD14FF05C
:101A00008A439B221A76124B5B6A002B3FF45FAF2E
:101A10000F4B5B6A2046984759E70D4B002283F82D
:101A2000202083F821204FF08A439B221A761A4601
:101A3000538B03F03003102BFAD1054B5B6A002B5C
:101A40003FF445AF024B5B6A204698473FE770473B
:101A50002004042070B586B0674B1B78042B00F27D
:101A60009F80DFE803F003377F9FB1000321002050
:101A700000F0BAFB604B9860B0F1FF3F03D15E4BC2
:101A800005221A708CE01C4619465C4B41F8043F55
:101A900002F05AFD00225A49A06802F0D5FA03214B
:101AA000002000F021FD6064B0F1FF3F03D1524BF4
:101AB00005221A7074E00022524902F0DFFA04F1A4
:101AC0004C03012204F11B01606C02F0D9FE0423D7
:101AD000237065E0484890F93F3000228DF81720C8
:101AE00090F8402002754375022380F8423000F1DF
:101AF0000C02009200F114025721806802F0B0FD40
:101B00003D4A92F84230DBB2022BFAD03A4C4FF009
:101B1000020604F10C0584F84260009501230DF1E2
:101B200017025721A06802F01DFD94F84230DBB285
:101B3000022BFAD094F84230DBB2012BEBD02E4BC3
:101B400093F840300133DBB2042B06D82A4A82F8DE
:101B50004030294B04221A7022E0274B002283F8E0
:101B60004020F6E7244800230375022380F8423022
:101B700000F10C0302930523019300F11603009377
:101B8000012300F114025721806802F0F9FC1A4A7F
:101B900092F84230DBB2022BFAD0174B03221A70B4
:101BA00006B070BD144C94F8401004F1160001F01A
:101BB0009DF804F14C03012204F11B01606C02F05A
:101BC0005FFE04232370EBE70B4B93F8413033B1F6
:101BD000094B002283F8412001221A70E0E7064BEE
:101BE00093F85130002BDBD0034B002283F85120B7
:101BF00002221A70D4E700BF64020420801A060093
:101C00008944100CE541100C002B00F09B802DE95D
:101C1000F84F1D464FF0FF332B60A2B199B1144627
:101C20000E46074601F0E2FF834660B1B0F800902F
:101C300009EB49084FEA4818434B03EB080A5046A2
:101C400000F044FD08B9BDE8F88FBBF800E00EEBEA
:101C50004E023D4B03EB4213D969D3F818C0BCF1D7
:101C6000000F65D00B79002253B101F1240300224B
:101C7000013262455CD01946187924330028F7D127
:101C800001230B7100234B610EEB4E032E4800EB3A
:101C90004310B0F814C09BF800301B0243EA0C4319
:101CA000D2B21A430A62838A01339BB24FF6FF72A3
:101CB000934208BF012383828E60CC6000230B61B6
:101CC0000F60CB6101220A764B760B6A2B609DF880
:101CD0002830934219D01C4B08F1240803EB08026A
:101CE00009EB490903EB4919D9F8240020B313681B
:101CF0003BB15A6922B15B691BB15A69002AFAD11A
:101D00005961504600F01EFE9DE70F4B08F1200878
:101D100003EB080209EB490903EB4919D9F8200044
:101D20000028E4D143F80810504601F019FDE8E717
:101D3000504600F007FE86E743F80810504601F0D1
:101D400077FCDEE7704700BF0402042010B584B0C2
:101D5000454B1B78032B52D8DFE803F0023D536F4D
:101D60000321002000F040FA3F4B5860B0F1FF3FE4
:101D700003D13D4B04221A7041E01C4619463B4BEF
:101D800041F80C3F02F0E0FB00223949606802F0A4
:101D90005BF901234FF47A720021364801F016FEF8
:101DA000A368B3F1FF3F03D12F4B04221A7026E042
:101DB0000221002000F098FBA063B0F1FF3F03D1A7
:101DC000294B04221A701AE000222B4902F056F91E
:101DD0000322227013E0244C2246002302F8143F11
:101DE00004F1100302930223019304F115030093FD
:101DF00001234F21606802F0C3FB0323237004B06A
:101E000010BD194B93F84430002BF8D0164C00232A
:101E100084F8443004F1150002F0C8FD024684F84D
:101E20003700164904F1170002F060FB94F93700FF
:101E300002F0AAFC03232370E1E70B4B93F8363042
:101E400033B1094B002283F8362001221A70D6E7FD
:101E5000054B93F83530002BD1D0034B002283F88B
:101E6000352002221A70CAE708030420A086010068
:101E7000B147100CC547100C0D46100CDC46100C79
:101E8000F0B540F2FF7681EA030C16EA115E1EBF40
:101E9000B64516EA1355B54252D021EA465141F4EF
:101EA0008011A1FB024723EA465343F48013AE445A
:101EB000A0FB03650CF0004C36197D41A1FB0347E4
:101EC00047F10003A0FB0217F619654153F1000327
:101ED000094218BF46F0010640F2FE74B3F5007FD8
:101EE00013D2AEF5806EA64523D24CEA0331280307
:101EF00041EA155140EA16503203450872F100429A
:101F000050F1000051EB0E51F0BDAEF2FF3EA64580
:101F10000FD24CEAC321E80241EA555140EA56503B
:101F2000F202450872F1004250F1000051EB0E51EF
:101F3000F0BD1EEA0E0F2DD50CF000410020F0BDC3
:101F400016EA115F04BF01F000410020004218BFF3
:101F500041F0010116EA135F04BF03F000430022C1
:101F6000124218BF43F0010306EA1354B44218BFEB
:101F7000B64503D00CF000410020F0BD21F0004137
:101F800023F00043B1EB065F0CD8B3EB065F09D832
:101F900041B13BB10CF0004141F0FE4141F4700110
:101FA0000020F0BD40F20001C7F6F8710020F0BD3E
:101FB0002DE9F04F0E4649688BB0834600293568FD
:101FC000D6F80890ACBF25F002050121F768CDE9ED
:101FD000032315F010030593039BD3E900232FD0AF
:101FE00052EA03002CD0A9F1020815F00800346968
:101FF0008A46089004F1FF344FF0000018BF08F142
:10200000FF383855012C1DDC059B002B53D1089B54
:1020100013B1013C20233B5532694B4600953919D9
:10202000013A5846121B01F0C7F8DBF80430DB0513
:1020300003D573689842B8BF18460BB0BDE8F08F5F
:10204000C846D2E752EA030009D1BAF1000F06DC14
:10205000A8EB010050440028D6DDA807D4D502F033
:102060000F00013C0928D4BF00F1300E00F1570EDB
:102070000498A0F1410CBCF1190F10D84EF0200CBF
:10208000ACF1610CBCF1190F09D870460991CDE98A
:10209000062302F02AFC09998646DDE90623100989
:1020A00007F804E04FEA131C0AF1FF3A40EA037014
:1020B00063460246A6E7039BD3E9000150EA010309
:1020C000A5D03A19049B023C02F8013C30233B5551
:1020D0009DE7FEE72DE9F0480446404B187D93F854
:1020E0002C30002B75D1C0B203F0FF02002873D151
:1020F000002C6FD02368002B6CD0394A002908BF10
:102100001146B1EB031F09D2B1EBC30F49D203EB68
:1021100043028A4248D80326042501E01026002500
:10212000A6FB03BC4FEA0C470A4600234FEA0B40CC
:1021300047EA1B4102F06EF8C0F58030294A136867
:1021400023F002031360D369002BFCD180B2254B2E
:1021500098816368022B2AD022490B6823F07063B0
:1021600023F4604343EA453343F080730B604A68CD
:10217000A368E068034322F4015222F007021343EC
:10218000626813434B60174AD369002BFCD1154A90
:10219000136843F002031360D369002BFCD10120C4
:1021A00018E008260225BBE700263546B8E70D4AA9
:1021B000136823F0706323F4604343EA45331360EC
:1021C0005168A368E068034321F047010B43536063
:1021D000D9E70020BDE8F0881046FBE78C03042017
:1021E0000087930300200045002877D13D4B93F8EA
:1021F0003430012B02D04FF0FF307047394B0022B2
:1022000083F8342093F90130022B47D1354B1B78EA
:10221000002B43D0334B9B78002B46D1314B5B686E
:10222000002B49D130B42F4B9D68002D4ED0DA6978
:10223000104653794BB1183200230133AB4245D0DD
:10224000104618324479002CF7D10122427111F066
:10225000080F02D0234A01249470224A54680134A2
:102260005460948DDBB243EA04430361938D0133E0
:102270009BB24FF6FF72934208BF0123194A938520
:10228000012382F834300023036041F0040101711E
:10229000126942618360C36000691DE0114B012235
:1022A00083F834204FF0FF3070470E4B012283F843
:1022B00034204FF0FF30704711F0080FB2D0094BB7
:1022C000012283F834204FF0FF307047054B012284
:1022D00083F834204FF0FF3030BC70474FF0FF30B0
:1022E000704700BF5003042000283CD00368394ADF
:1022F000002908BF1146B1EB430F36D3364A93424B
:1023000035D807EE901AF8EE677A07EE103AF8EE35
:10231000476A87EEA67ADFED316A67EEA67AF2EEBB
:10232000046A77EEA67A77EE677AFCEEE77A17EE24
:10233000902A2B498B4206D8B2F5FF7F19D8012A83
:1023400040D9500816E0B2F5BF7F3DD2032A3ED9EE
:1023500050002449A1FB00C04008A1FB0212520812
:1023600042EA002006E0002070470020704700206D
:102370007047FF201A498B4294BF002101214FF082
:102380008A42136823F002031360D369002BFCD147
:102390004FF08A42D060136823F0407343EA016330
:1023A0001360136843F002031360D369002BFCD160
:1023B0004FF08A4310225A831A46D369002BFCD16E
:1023C000012070470120D5E74FF67F70D2E740F239
:1023D0000120CFE70087930340420F0095BFD6331B
:1023E000801A0600ABAAAAAA6C0404201C000000F4
:1023F00000000000500304203C000000000000002A
:102400000402042060000000000000008804042092
:102410000C00000000000000200404202C0000003C
:10242000000000008C0304203000000000000000C9
:10243000A00404200800000000000000C0030420E5
:10244000300000000000000064010420A000000033
:1024500000000000B00404200200000001000000A1
:1024600001000000F0030420300000000000000024
:10247000B4000420B00000000000000000000420B0
:10248000B4000000000000004C0404202000000004
:1024900000000000940404200C0000000000000074
:1024A000640204205400000000000000080304201F
:1024B0004800000000000000BC03042004000000ED
:1024C00000000000B80204205000000000000000DE
:1024D000A804042008000000000000000000000024
:1024E000000000006666666600286ED13B4B93F9DB
:1024F0000230022B6CD1394B1B78002B6BD0374B41
:1025000093F83C30012B02D04FF0FF307047334B33
:10251000002283F83C205B78002B3DD12F4B9B6839
:10252000002B40D130B42D4BDD68002D45D01A6909
:102530001046D3784BB1103200230133AB423CD06C
:1025400010461032C478002CF7D10122C27011F06D
:10255000080F02D0214A01245470204A94680134A3
:102560009460948ADBB243EA0443C360938A0133E4
:102570009BB24FF6FF72934208BF0123174A938222
:10258000012382F83C3041F0040181700023436054
:1025900083600380C06816E0104B012283F83C2062
:1025A0004FF0FF30704711F0080FBBD00B4B0122EA
:1025B00083F83C204FF0FF307047084B012283F82E
:1025C0003C204FF0FF3030BC70474FF0FF30704779
:1025D0004FF0FF3070474FF0FF3070470402042087
:1025E0002DE9F0410478002C67D090F90240022CCC
:1025F00063D101290CBF076A476A002F5DD01646D8
:102600000D4604463968C1F3072202EB42022E4808
:1026100000EB42125FFA81F8126902EB0818D8F851
:102620000C20914241D17E767A7E52B2B2F1FF3FC8
:102630001CD0FB683B613F6A2946204601F036FF0B
:10264000D8F80430002B34D094F82830013384F8C3
:102650002830D8F80430D8F8082039463046984752
:1026600094F82830013B84F8283022E0226BB2F144
:10267000FF3F02D000233B61DDE7E26C1168994225
:1026800010D051688B420BD09268934208BF02234E
:1026900009D00023FB616368DB6898473861CAE7AB
:1026A000012300E000230133F4E72946204601F02E
:1026B000FDFE25B9204600F0BBFFBDE8F0812046B5
:1026C00001F04EF8F9E700BF0402042090F828302A
:1026D00043B990F83D30012B01D000207047002312
:1026E00080F83D3070B50446056D02F069F9064684
:1026F0002B78E3B96868B0F1FF3F2DD1A868B0F13D
:10270000FF3F2FD1E868B0F1FF3F31D12869B0F128
:10271000FF3F33D1E36AB3F1FF3F35D1236BB3F110
:10272000FF3F38D1304602F04FF9012070BDB5F9B6
:10273000040001F0A3FA84F85A00E36AB3F1FF3F02
:1027400003D1236BB3F1FF3FECD0B5F9040001F0E6
:1027500095FA84F85B00E5E700B201F08FFA84F89F
:102760005400CBE700B201F089FA84F85500C9E7BC
:1027700000B201F083FA84F85600C7E700B201F016
:102780007DFA84F85700C5E7B5F9140001F076FA30
:1027900084F85800C2E7B5F9180001F06FFA84F820
:1027A0005900BFE7002855D138B52D4B1B78002BB9
:1027B00053D12B4B012083F83D0083F83C00187067
:1027C0000C685C6000229A604D68DD608D681D6158
:1027D0009882C86A9861086BD8611A625A6283F855
:1027E00028204A6B1A65CA68DA620A691A634A695C
:1027F0005A638A699A63CA691A640A6A5A644A6A95
:102800009A648A6ADA648A6BDA65DB6AB3F1FF3F3D
:1028100012D16369124913489847114B1B6BB3F1EE
:10282000FF3F10D10E494B681B680F4898470C4B6F
:1028300002229A70002038BD094AD06A0B49C0B202
:1028400001F0ACFEE9E7064A106B0949C0B201F09D
:10285000A5FEECE74FF0FF3070474FF0FF30EAE79E
:1028600004020420C148100C2143100C7142100CCA
:102870004542100C10B582B000230193009300EB89
:1028800080031B0103F1894303F500535A6E019243
:102890001B6E019A43F4C02313400093009B03F086
:1028A00001039B00009A12F0020F18BF43F00803C7
:1028B000009A12F0040F18BF43F01003009A12F0B0
:1028C000080F18BF43F00103009A12F0100F18BF51
:1028D00043F02003009A12F0200F18BF43F040038A
:1028E000009A12F4C02F18BF43F002030199134A53
:1028F0000A4032B100EB4002114901EB8202002193
:102900001172019900EB8002120102F1894202F575
:102910000052516600EB4002920009498A585AB1B0
:1029200053B10C464200111804EB81014968104470
:10293000800022581846904702B010BD2A000600B9
:102940008804042070B50446056D02F039F8064687
:102950002B780BBB6868B0F1FF3F32D1A868B0F1AB
:10296000FF3F34D1E868B0F1FF3F36D12869B0F1BC
:10297000FF3F38D1E36AB3F1FF3F3AD1236BB3F1A4
:10298000FF3F3DD1304602F01FF894F8283013B9CC
:10299000012384F83D3070BD94F85A10B5F9040055
:1029A00001F094FDE36AB3F1FF3F03D1236BB3F170
:1029B000FF3FE7D094F85B10B5F9040001F086FD05
:1029C000E0E794F8541000B201F080FDC6E794F8F7
:1029D000551000B201F07AFDC4E794F8561000B229
:1029E00001F074FDC2E794F8571000B201F06EFDDB
:1029F000C0E794F85810B5F9140001F067FDBDE781
:102A000094F85910B5F9180001F060FDBAE7704765
:102A1000F8B52D494C6AD1E90623561C43F100074D
:102A2000C1E90667002C4DD091F82030013381F8C0
:102A30002030A36823B1A368013BA3604C6AFCB1BA
:102A4000A368EBB9012500271F4E0AE0E06901F0F9
:102A5000F9F9E3680BB120699847746A84B1A368F7
:102A600073B925756575A37813B9E368002BEDD1AB
:102A7000204600F0D5FFA378002BEAD16770E8E785
:102A8000124D00242E4603E001342035052C13D0CE
:102A900006EB44135B7D002BF6D006EB44130022BB
:102AA0005A75AB78012BEFD16B6806EB44118B6044
:102AB000284600F0FFFAE7E7034A92F82030013B8E
:102AC00082F82030F8BD00BFC00304206401042058
:102AD00053EC102BC3F30A5040F2FD712DE9F04185
:102AE000461E8E423ED8A0F2FF36002E2EDB332E3D
:102AF0002ADC254F4FF0FF31C6F1200CA0F21F4019
:102B0000F14027FA06FE07FA0CF2C74010EE104A11
:102B100003EA0E08114323EA0E03394324EA0102B3
:102B2000214051EA08010DD0002B0BDA4FF480143C
:102B300004FA0CF124FA00F024FA06F601435218C4
:102B400046EB030343EC102BBDE8F081002A73F140
:102B5000000303DB9FED080BBDE8F0819FED080B40
:102B6000BDE8F0810028EFD1024603F0004343ECBA
:102B7000102BE9E7AFF30080000000000000000028
:102B8000000000000000F0BFFFFF0F002DE9F04142
:102B900082B00546284E0DE002232377EB685B6880
:102BA0002269E1686088984741E022463946284614
:102BB00000F0F7FFAC6A002C3BD0237F012B38D10B
:102BC000A369C3F30722C2EB021206EB8202DBB257
:102BD00003EB4303D76907EBC3076A697B699A4232
:102BE00007D0EB685B69002107F1140098477B6907
:102BF0006B61237D022BCFD0042B0ED102232377D0
:102C0000D4F804C02269E1686088A3680093EB6887
:102C1000D3F808806346C04709E0012B09D102239D
:102C20002377EB681B68A268616860889847002872
:102C3000BBD002B0BDE8F08150030420F8B50546D2
:102C40000C4617461E4601F08FF9002842D0234B50
:102C500093F90030022B05D04FF0FF3401F002FC55
:102C60002046F8BD002C2FD0AC4230D31C4B1B7833
:102C700053B101231B4A117841B120320133052B96
:102C8000F9D14FF0FF34E9E70023154A0121117013
:102C900000215170117551759DF818109170546094
:102CA000D7601661641B94600F4909889BB243EAA0
:102CB0000144D4614B1C9BB24FF6FF72934208BF94
:102CC0000123094A1380C9E74FF0FF34C6E74FF0EC
:102CD000FF34C3E74FF0FF34C2E700BFC003042056
:102CE0006401042084010420B00404202DE9F0478D
:102CF00080460E46244B254A92E8030083E80300F1
:102D0000042E3ED808EB060508F10107BB19C6F1F1
:102D1000040753FA87F70724DFF86CA0DFF87090F8
:102D200015F9012B49460AEB040001F0A6FC044406
:102D3000E4B2BD42F4D196B108F1FF35013E58FA34
:102D400086F6DFF84480124F15F9012F394608EB5B
:102D5000040001F092FC0444E4B2B542F4D10D4801
:102D600000F11C010A190C4B1D889B780D539370C0
:102D7000A21C00F14803D2B2406C01F079FDBDE81D
:102D8000F0870724D7E700BF800204209C47100C7F
:102D9000A447100C64020420AC47100C882910B51D
:102DA00036D012DC812943D003DC802940D00020BA
:102DB00010BD82290ED08429F9D1196802B30A1DE9
:102DC0001A60B1F90020D3171EE0A0292BD00BDC2C
:102DD0009029ECD11968073121F0070101F10802AF
:102DE0001A60D1E900230FE0C02901D0F029DED11B
:102DF0001A68111D1960136803600023436005E021
:102E00000A1D1A600A880023C0E900230120CFE7C9
:102E1000196822B10A1D1A6091F90020D3E70A1D32
:102E20001A600A78EFE71A68111D12681960CAE77C
:102E300019681AB10A1D1A600A68C4E70C1D1C60E3
:102E40000B68C0E90032E1E72DE9F041D2E9002347
:102E50000C4686B007465FEAD37820684968A568C3
:102E60000590E66841D0524263EB4303002908DB3A
:102E700020F002000590B8F1000F02D10599480733
:102E80002AD5691E05A802900A20CDE90010204627
:102E900000F04CFAB8F1000F02D1059B59071FD57D
:102EA000B8F1000F00F1FF3014BF2D232B23335452
:102EB00022693118059B013A00932B46121A3846B5
:102EC00000F07AF97B68DB0503D563689842B8BFE8
:102ED000184606B0BDE8F0810807D2D42946D1E7EC
:102EE0001A07E5D501382023E1E70029C0DAC5E754
:102EF00008B51F4B98471F4B9847EFF3108172B6E8
:102F00001D4BD3F8882042F47002C3F88820D3F810
:102F10008C2042F44062C3F88C20184A536843F076
:102F20007C435360BFF34F8FBFF36F8F01B962B61D
:102F3000134A936823F0010393601346DA6812F092
:102F4000010FFBD10E4B24225A6001229A6001F03E
:102F5000FDF80C4B23F07F03074A93600A4B984718
:102F60000A4B98470A4B984701F0B1FCFEE700BFB7
:102F70000F2A100C0F2A100C00ED00E030EF00E0DB
:102F8000008080440000100CC137100C0F2A100C78
:102F90000F2A100C70B58569036B43B990F8353072
:102FA000012B01D000260BE0002380F835300446C9
:102FB0002E783EB1B5F9040000F060FE84F83A00C6
:102FC000304670BD01F0FCFC06466868B0F1FF3F7A
:102FD00010D1A868B0F1FF3F12D1E868B0F1FF3F0F
:102FE00014D12869B0F1FF3F16D1304601F0ECFC56
:102FF0000126E5E700B200F041FE84F83600E8E77C
:1030000000B200F03BFE84F83700E6E700B200F0C3
:1030100035FE84F83800E4E700B200F02FFE84F8B3
:103020003900E2E770B4224BE02283F82123022525
:103030005D6083F8222304245C6083F82323082046
:10304000586083F844231021996083F86023012697
:10305000DE6083F86123DD6083F86223DC6083F83F
:103060006323D86083F86423D96083F86523202123
:10307000D96083F866234021D96083F867238021D3
:10308000D96083F868234FF48071D96083F869238D
:103090004FF40071D96083F86A234FF48061D960DE
:1030A00083F86B234FF40062DA6070BC704700BF96
:1030B00000E100E000283CD02DE9F04186461D4BA0
:1030C0005A6AD0F80880C2B19368444600259845F2
:1030D00018D3002000219368C01841F100019369C2
:1030E000ABB1D3F808C010EB0C0641F10007BD42AC
:1030F00008BFB4420BD31A46EDE7C0F808800D4B69
:10310000586214E00B4B58628261002003E0CEF855
:103110001830C2F818E0A8EB0000CEF80800DEF87E
:10312000183023B1DEF808109A68521A9A60BDE888
:10313000F0817047C003042070B5044685692B7880
:103140005BB190F83A10B5F9040001F0BFF9236BB8
:1031500013B9012384F8353070BD01F031FC064607
:103160006868B0F1FF3F0FD1A868B0F1FF3F11D1FF
:10317000E868B0F1FF3F13D12869B0F1FF3F15D1E6
:10318000304601F021FCE2E794F8361000B201F07D
:103190009DF9E9E794F8371000B201F097F9E7E7F5
:1031A00094F8381000B201F091F9E5E794F839107D
:1031B00000B201F08BF9E3E72DE9FF471D460C9BB8
:1031C00006468A4613F00109144601D195420BD8F0
:1031D00022465146304601F031F9A54204D8254631
:1031E000284604B0BDE8F0872F1B20216846102F29
:1031F0003A46B84628BF102201F002FBB8F10F0F83
:1032000011D83B096FF00F026946304602FB03728A
:1032100001F014F9B9F1000FE2D1224651463046CF
:1032200001F00CF9DCE7102269463046A8F11008DD
:1032300001F004F9E2E7842910B523D00CDC8129E0
:1032400003D0822913D080290BD119680C1D1C6072
:103250000B6803601A6013E0902921D003DC8829F1
:1032600017D0002010BDA029EFD0C029ECE71968C5
:103270000C1D1C600B68D11703601046C3E90001E8
:103280000120EFE719680C1D1C600B6803601A80B1
:10329000F6E719680C1D1C600B6803601A70EFE7F5
:1032A00019680C1D1C60D31709680160C1E900236F
:1032B000E6E7FEE71B4B1B7D002B31D010B5194A0A
:1032C00093685168184A127E12F0010F15D0994286
:1032D00013D9154913484A6802F00702012A026807
:1032E00014BFD25C32F813208A62013344680A7E2C
:1032F00012F0010F01D09C42EDD80A4A9360526847
:103300009A420CD8074B00221A755A60064A0121CE
:103310001175DB681BB1034B1869DB68984710BD5A
:10332000704700BF8C030420002000452DE9F84FB2
:103330000C9F044610461946666800253A6801232A
:10334000D4F80CB0002E246902F0020A0B9AB8BF20
:103350000126013C90464FEAE2790BF80450002C1C
:1033600003DCD3B12046BDE8F88F50EA010209D151
:10337000721B002A06DC0A9A521B002AF1DDBAF100
:10338000000FEED042464B4600F044FF013C13468E
:10339000303201350BF80420E1E73B6823F01003DD
:1033A0003B60DFE700282ED010B40446184B1B7D8D
:1033B0005BBB174B1860596001221A755868154B92
:1033C0001B7E13F0010F13D0A8B1002311494A68E6
:1033D00002F00702012A14BFE25C34F813208A626B
:1033E00001330A7E12F0010F04D09842EFD102E0BF
:1033F000002000E01846064B98600120054B9875A8
:103400005DF8044B7047002070470020F8E700BFCC
:103410008C03042000200045F0B50C46496887B0B5
:10342000064623680029A76820460593A8BF23F015
:103430000203E568A8BF059305AB02930823CDE915
:103440000073D2E90023FFF771FF059BD90642BF45
:1034500000F1FF3030232B54059B1A0742BF00F1C7
:10346000FF3020232B5429182269059B013A009331
:103470003B46121A3046FFF79FFE7368DB0503D503
:1034800063689842B8BF184607B0F0BD70B400EB4F
:103490004005174C04EB8504247A24BB144C04EB40
:1034A000850401252572134D8600341805EB04149C
:1034B000A166E266A26F92B242EA03420644A267A4
:1034C000300100F1894000F50050036D43F0010325
:1034D0000365436D13F47F0F08D1036D43F480330C
:1034E0000365012000E0002070BC70470120FBE76D
:1034F0008804042000208044002827D138B5164BCA
:103500001B7833BB144C012384F8343084F83530F5
:1035100023700A68E2604869A0614868E0618868D1
:10352000A06008696062C86820620025A5626560C5
:10353000A5702563A3858B69236163619369214627
:103540000648984702236370284638BD4FF0FF3085
:1035500070474FF0FF30F8E7500304202539100C76
:1035600008B5174B93F82C30CBB1154BDA691B6AB1
:10357000934214D2124B986A124A916A1B6A52689B
:1035800002F00702012A0E4A926914BFD15422F8B0
:10359000131001330A4A1362D2699A4200D008BD5F
:1035A000074B002283F82C20DA61064A842111752A
:1035B0005B6A002BF3D0024B5B6A9847EFE700BFD2
:1035C0008C0304200020004538B521B330BB154CD6
:1035D000012384F828300B6863604FF47A72E2604C
:1035E000B1F90420228100200021C4E90601002550
:1035F000656284F820501B6829460B489847636829
:103600005B689847A0222946084801F0F9F8022390
:103610002370204638BD4FF0FF30FBE74FF0FF30FE
:10362000F8E700BFC0030420112A100C6401042035
:1036300038B5456A002D2DD02B7E012B2AD10446AA
:1036400002232B76036BB3F1FF3F1ED043685B6A06
:103650009847E36D032B0CD9206B012100F05CFD32
:10366000206BEB685B00AA68A16BC0B2FFF70EFF8E
:1036700010E0206B002100F04FFD206BEB68AA6882
:10368000A16BC0B2FFF702FF04E043685B68E96822
:10369000A868984738BDFEE74FF08A4301221A60B8
:1036A0001A46D369002BFCD14FF08A434FF4807245
:1036B0005A601A46D369002BFCD14FF08A43FF228F
:1036C000DA600C4A1A601A46D369002BFCD14FF01D
:1036D0008A4310225A831A46D369002BFCD1064B29
:1036E000002283F8212083F820204FF08A439B2278
:1036F0009A7570471604100020040420F0B59BB0A2
:1037000004460D46164600214C2207A81F4601F02C
:1037100077F84FF0FF33029303F20313039304B9D6
:1037200001ACCDE9044555B16A1E002D069208DAB8
:103730000A4B4F224FF0FF301A601BB0F0BD2A46F3
:10374000F3E718BF00233A46314602A818BF23709A
:10375000CDE9074400F068FFEFE700BFAC040420A8
:1037600038B5056A55B32B7E012B27D104460223B9
:103770002B76C36AB3F1FF3F1BD0C36D032B0CD96B
:10378000C06A012100F0C8FCE06AEB685B00626B74
:10379000A968C0B2FFF77AFE10E0C06A002100F00D
:1037A000BBFCE06AEB68626BA968C0B2FFF76EFE13
:1037B00004E043689B69E968A868984738BD70478A
:1037C00038B50E4A00230E4C13600E4A0E4D13609E
:1037D0000E4A13600E4A13600E4A13600E4A53627B
:1037E000136101239360FFF7EAFFFFF7E8FFAC42A4
:1037F00000D338BD54F8043B9847F8E7A8040420E8
:10380000C402100CC4020420C802100CC002042020
:10381000B8020420BC020420C802042008B5144BDE
:103820009B7DF3B1124A137EDBB2927D12F0800FC2
:1038300018D10F4A137EDBB2927D12F0010F04D033
:1038400013F0010F01D0FFF735FD094A137EDBB2FB
:10385000927D12F0040F04D013F0040F01D0FFF793
:103860007FFE08BD13F0800FE3D000F061FBE0E7BE
:10387000002000452DE9FF41134D064602ACD1F86A
:1038800000802868AF88002A18BF144602901A46A4
:10389000A879ADF80C708DF80E00D1E901571BB96D
:1038A000204600F027FF0246002D02DBAA4228BF77
:1038B0002A463B462146CDF800803046FFF77CFC87
:1038C00004B0BDE8F08100BFE849100CF0B50C462B
:1038D000496887B0054600292368A66820460593F5
:1038E000A8BF23F00203E768A8BF059305AB0293C6
:1038F0000A23CDE90063D2E90023FFF717FD22690F
:10390000059B3918013A00933346121A2846FFF7EF
:1039100053FC6B68DB0503D563689842B8BF184653
:1039200007B0F0BD38B50378EBB190F90130022B48
:1039300019D10446826A9169C1F30723C3EB0313CB
:103940000C4800EB8300CDB205EB4503C56905EBE0
:10395000C3052B69994207D0204600F065FF294630
:103960002046FFF713F938BD2946204600F019F923
:10397000F5E700BF50030420114B124A1A604FF6BE
:1039800022029A814FF440325A601A46D369002BC2
:10399000FCD10B4A136843F002031360D369002B78
:1039A000FCD1094B00229A61DA611A6283F82C205B
:1039B0005A621A605A609A601A75DA60DA8570473E
:1039C00000200045040110408C030420F0B583B0B2
:1039D0001F4603B9F8B122B94FF0FF34204603B0B7
:1039E000F0BD14460E4605460C4BD8684FF47A726B
:1039F0000023A0FB040100F00DFC009733462A468B
:103A000001460020FFF71AF90446B0F1FF3FE5D068
:103A100000F056F9E2E74FF0FF34DFE7C00304207F
:103A2000124B5A6A02B310B4824204D18369A3B123
:103A3000002206E01A46936963B19842FAD183697D
:103A400023B1846899682144996042B18369936184
:103A5000002383615DF8044B70471A46F5E7034B7A
:103A60005A6A92695A62F3E7704700BFC0030420A4
:103A700010B500F013FCFFF77FFFFFF70DFE00F01D
:103A8000A3F90B490020FFF737FD0A4C20600A49D3
:103A90000020FEF787FE606008490020FFF794FDD4
:103AA000A06000F099FE00F06FFFFFF7BBFA10BDB9
:103AB000B845100C94040420803E100CD049100C22
:103AC000431E13F1030F16D810F47F4F15D1C3B264
:103AD0000D4A9268934212D203EB43020A4BDB6910
:103AE00003EBC2031A6982420BD15A79002A08BF3C
:103AF0000023184670470023FBE70023F9E7002363
:103B0000F7E70023F5E700BF50030420114B002224
:103B10009A61DA614FF08A439B221A765A6822F43E
:103B200080225A601A46D369002BFCD169B1094B37
:103B3000032283F8202041EA40014FF08A43596272
:103B40001A46D369002BFCD17047024B042283F83C
:103B50002020F0E720040420C1F30A5340F21E4263
:103B6000D21A0EDD202A0AD8CB0243EA505040F088
:103B70000040D04090EAE170B0EBE1707047002067
:103B800070474B00004218BF43F0010313F5001FBC
:103B900088BF21F0004111F0004058BF6FF0004095
:103BA0007047F8B504460E461546C3681B6998472A
:103BB00085F8240095F82430DBB2002B0CBF0127D8
:103BC0004FF0FF376F752D6A204600F02DFEB36869
:103BD00053B1236B01332363B368F2682946384637
:0A3BE0009847236B013B2363F8BDF7
:103BEC00431E13F1030F14D810F47F4F13D1C2B23C
:103BFC000C4BDB689A4210D20A4B1B6903EB021385
:103C0C00DA6882420BD1DA78002A08BF0023184602
:103C1C0070470023FBE70023F9E70023F7E70023B5
:103C2C00F5E700BF04020420104B002283F821208A
:103C3C0083F820204FF08A42136823F002031360AC
:103C4C00D369002BFCD14FF08A42136843F0020376
:103C5C001360D369002BFCD14FF08A4310225A8396
:103C6C001A46D369002BFCD1704700BF20040420F6
:103C7C0038B5044600F0DBFD002C16DB63090C495B
:103C8C0051F8235004F01F04E54005F00105012212
:103C9C0002FA04F4203341F82340BFF34F8FBFF3F3
:103CAC006F8F00F0CDFD284638BD0025F9E700BF29
:103CBC0000E100E038B5044600F050F9D0B12046E0
:103CCC0000F09CF8054670B1437873B983680BB962
:103CDC00436883602846FFF7E7F900242C756C7560
:103CEC0001236B7002E0012400E0002400F0B4FB1F
:103CFC00204638BD0124FBE710B50278034601309D
:103D0C00202AFAD0A2F109010429F6D92B2A07D0CE
:103D1C002D2A11D101210133013B00200A2403E09B
:103D2C000021F8E76043801A13F8012F303A092A72
:103D3C00F8D901B9404210BD0021EDE710B5054C92
:103D4C00227832B9044B13B1044800E000BF0123C0
:103D5C00237010BD6C040420000000000000000063
:103D6C0008B5034B1BB10349034800E000BF08BD75
:103D7C00000000007004042000000000B8B138B549
:103D8C0005460C4A92F82C200AB1002038BD0C468E
:103D9C0000F00AFA074B9D61DC6100221A620120D7
:103DAC0083F82C00DA85044B84229A75EEE7002008
:103DBC00704700BF8C030420002000450C4B0122EF
:103DCC001A601A46936813F0010FFBD1084B0022BE
:103DDC001A60DA634EF65F2119640649D962064906
:103DEC000A6001229A621A469368002BFCD1704734
:103DFC00008081440FFC3F00A0040420431E13F1FB
:103E0C00030F0FD883B2042B0ED80A4A02EB4312CD
:103E1C00D26982420AD15A0106498A5C42B101EB4D
:103E2C0043107047002070470020704700207047F7
:103E3C00002070476401042010B5044600F08EF891
:103E4C00B0B12046FFF7DAFF044678B1437843B9A6
:103E5C000020207560752070044600F0FDFA2046A5
:103E6C0010BDFFF7D7FD00236370F1E70124F4E7E1
:103E7C000124F4E7C842100C020000004C0404209A
:103E8C0000000000FFFFFFFF28200045000000009D
:103E9C006047100CC446100C7C49100C7049100C77
:103EAC000500000000000420F045100C0300000089
:103EBC004FF4001C1CEB410F98BF1CEB430F11D8A7
:103ECC0051EA030C50EA4C0C5CEA020C0CD004D204
:103EDC0082428B4180410130704790429941804130
:103EEC000130704700207047012070470C4B93F84D
:103EFC0020305BB20BB10020704710B5084B988096
:103F0C00D9605A6100229A601A6101249C701A705F
:103F1C0083F821202146FFF7F3FD204610BD00BF9A
:103F2C00200404200B4B5B8B13F0070300D170476C
:103F3C0010B5094CE38500F037F9064B84221A754D
:103F4C00002384F82C30636A13B1A06A636A984723
:103F5C0010BD00BF002000458C0304200C4B93F8CF
:103F6C0020309BB90A4B93F82830012B01D000204C
:103F7C00704710B5064C002384F82830B4F90800BB
:103F8C00FFF776FE84F82100012010BD0120704758
:103F9C00C003042000230C4A30B512F8134024B996
:103FAC0002EB43035B78184630BD01680D78A542DF
:103FBC0009BF02EB4303013301315B7814BFDBB261
:103FCC0001600A2BE9D9EEE70C47100C4FF4001CEA
:103FDC001CEB410F98BF1CEB430F11D851EA030C9B
:103FEC0050EA4C0C5CEA020C0AD004D282428B419F
:103FFC008041404270479042994180414042704715
:10400C00002070474FF4001C1CEB410F98BF1CEBB9
:10401C00430F11D851EA030C50EA4C0C5CEA020C29
:10402C000AD004D29042994180414042704782426A
:10403C008B4180414042704700207047F8B50F46D5
:10404C001646FFF737FD50B105460068C0EB00106F
:10405C00064C04EB80042046FEF796FF00B9F8BD31
:10406C00AF60EE602046FFF761F8F8E750030420DC
:10407C00F8B50F461646FFF7B3FD50B1054600885C
:10408C0000EB4000064C04EB40142046FEF718FBF6
:10409C0000B9F8BD6F60AE602046FEF74DFCF8E746
:1040AC00040204200B4B93F820305BB20BB10020C0
:1040BC00704710B50C46074B98800021D9605961A8
:1040CC009C601A619970197083F82110FFF718FD24
:1040DC00012010BD2004042010B50B4C94F8204096
:1040EC0064B20CB1002010BD074CA080E360029BB1
:1040FC006361A16022610021A170217084F82110FC
:10410C00FFF7FEFC0120EEE72004042038B50C4636
:10411C00C5B2284600F0FFFA00F00703C0F3021204
:10412C00022A94BF2146E11C022B88BF033420F0E5
:10413C00770040EA01112143284600F0E1F938BD2F
:10414C0070B50A484FF6FF76094D016811B94368FE
:10415C0003B970BD836800F10C04426833402046FB
:10416C0055F82330984704EB8000EEE7E823100C59
:10417C00EC47100C4FF4001C1CEB410F98BF1CEBD0
:10418C00430F0CD850EA410C08BF52EA430C08D03C
:10419C00904208BF99420CBF0120002070470020BC
:0641AC007047012070477E
:1041B4000A4B5B8B13F0070F0ED0084B80221A7644
:1041C40007225A831B7E13F0040F05D0034B9A6A0F
:1041D4001A7E12F0040FFAD1704700BF0020004588
:1041E400012800D07047094B9B6C8B4208D0074BC9
:1041F400DB6C8B42F6D1054B012283F85120F1E7A9
:10420400024B012283F85020F1E700BF640204202E
:1042140053B94AB9002908BF00281CBF4FF0FF3129
:104224004FF0FF3000F0E4BBADF1080C6DE904CEB3
:10423400FCF794FEDDF804E0DDE9022304B07047E6
:1042440010B50C46012802D0022807D010BD002367
:10425400012219462046FEF7C1F9F7E700234FF083
:10426400FF3219462046FEF7B9F9EFE710B50C46C0
:10427400012802D0022807D010BD002301221146D4
:104284002046FEF7ABF9F7E700234FF0FF32012198
:104294002046FEF7A3F9EFE7074B00221A605A60A5
:1042A4001A72064B064A5A6501229A6708221A6650
:1042B40002221A60704700BF880404200020804452
:1042C40003002C004D49100C893D100C3549100C8D
:1042D4004149100CED43100C2949100CA533100C66
:1042E4001149100C1D49100C9148100CD520100CCC
:1042F40000B583B053EC112B51EC100B8DED002B5A
:10430400FDF7BCFD9DED002B53EC122BFCF784FF55
:1043140041EC100B03B05DF804FB00BF10B504467C
:1043240043685B6A984730B9002301221946204646
:10433400FEF754F910BD03464FF0FF32002120462A
:10434400FEF74CF9F6E7802910DB812901DD83298A
:104354000CD11368073323F0070303F1080111603C
:10436400D3E90023C0E900230120704700207047EF
:1043740000B583B000230193064B1B6A0193019B94
:1043840013F0010F02D103B05DF804FB0020FEF727
:104394006FFAF8E70020804400B583B0002301934E
:1043A400064BDB690193019B13F0010F02D103B0AB
:1043B4005DF804FB0020FEF75BFAF8E70020804478
:1043C40000B583B000230193064B9B690193019BC5
:1043D40013F0010F02D103B05DF804FB0020FEF7D7
:1043E40047FAF8E700208044074B93F82C3043B198
:1043F400064B84221A75044B002283F82C20DA61C0
:104404001A620120704700BF8C030420002000457D
:1044140010B5074A5168074BD86A4FF6FF74DC623F
:10442400DB6A136813B1136880B2984710BD00BFEC
:10443400A00404200080814438B5056904469542EF
:1044440028BF15465DB12A46406900F0F9F8226993
:1044540063692B44551B0022636125611A7038BDC2
:1044640010B5074C94F82110B4F9080000F02CF8AA
:1044740094F8203013B9012284F8282010BD00BF1D
:10448400C0030420B0F1FF3F06D0012808D1054B3A
:10449400002283F842207047024B012283F8422015
:1044A400704700BF64020420012907BF00F1200205
:1044B400036A00F12402436A2BB159691160002296
:1044C4001A765A611A71704751B1002808DB420903
:1044D40000F01F00012303FA00F0024B43F822000E
:1044E400704700BF00E100E038B5054600F0C3F8AE
:1044F400044C04F13C03C2B22946A06B00F0B6F9A7
:1045040038BD00BF0803042000EB8000000100F167
:10451400894000F50050036D13F0010F06BF41659B
:10452400012000207047002310B5934206D113F0F8
:10453400030018BF012000EB930010BDC45CCC54F1
:104544000133F2E741B110B50C46FFF7B7FA28B1D1
:1045540022684261012010BD002070470020FAE764
:1045640010B584B001240394069C02940193009234
:1045740000231A46FDF77AF804B010BD10B584B0D4
:1045840004240394089C0294079C0194069C0094C0
:10459400FDF76CF804B010BD30B4054B4400251889
:1045A400AD005951044403EB84035A6030BC704796
:1045B40088040420D445100CF003042002000000F9
:1045C40004000000B40004204C47100C64000000F8
:1045D400F93E100CB140100CE540100C353C100CA9
:1045E4000549100CE922100CF948100C00000000D9
:1045F4006700000068000000690000006600000019
:104604002100000000000000012800D07047044B86
:10461400DB6B8B42FAD1024B012283F84420F5E78D
:104624000803042013B50446019201AAFCF712FB07
:10463400636813F0100F18BF4FF0FF3002B010BDC5
:104644005AB10A44431E10B411F8014B914203F8C5
:10465400014FF9D15DF8044B7047704710B584B031
:1046640002240394069C0294002401940094FCF711
:10467400FDFF04B010BD0EB403B503AA52F8041B29
:10468400019200F085F902B05DF804EB03B07047C5
:10469400044A136843F002031360936813F0020F93
:1046A400FBD1704700808144044A136823F002035D
:1046B4001360936813F0020FFBD1704700808144AC
:1046C400020000000000000000000800FFFFFFFFE0
:1046D400FFFFFFFFFFFFFFFF54656D70657261749C
:1046E400757265203D20256420460D0A000000BF38
:1046F400037833B1034613F8012F002AFBD1181AAB
:1047040070471846704700BF68076C094C836A906D
:1047140074A07AC00080688800846C8200810130B3
:1047240000EB8000000100F1894000F50050406872
:024734007047CC
:10473800034B18641A46936813F0800FFBD1704737
:104748000080814400000000600000006300000059
:10475800640000006500000005000000060000007D
:104768000700000000000000010000005949100C7B
:104778009546100CAD46100CB949100C3947100C71
:10478800034B83F83F00012283F84120704700BFA4
:1047980064020420454550524F4D3A002564467C3A
:1047A800000000000D0A0000012800D07047024BED
:1047B800012283F83520F9E70803042008B5034BE4
:1047C800012283F83620FAF717FC08BD08030420F5
:1047D800034B00221A70012283F84420704700BF5F
:1047E800080304205F48100C2B45100CF149100CED
:1047F800F149100CF149100C32B1C9B20244034618
:1048080003F8011B9342FBD1704700BF034611F820
:10481800012B184603F8012B002AF8D1704700BF76
:10482800836A2BB19A6A826200221A779A621A7096
:104838007047EFF3108072B6BFF35F8FB0FA80F065
:104848004009704718B1BFF35F8F62B6704772B600
:10485800BFF35F8F70470A440023914201D10020C3
:10486800704701F8013BF8E710B582B001240094C5
:10487800FDF7C6F902B010BD10B582B0002400944F
:10488800FDF7BEF902B010BD024BD88D0022DA85C3
:10489800704700BF8C030420494E4600696E6600CD
:1048A8004E414E006E616E00494E4600696E6600CC
:1048B8004E414E006E616E0008B50023012211467C
:1048C800FDF78AFE08BD08B50020FFF7CDF800F017
:1048D80045F8FCE7A0F14103192B98BF40F02000F0
:1048E8007047A0F16103192B98BF00F05F00704773
:1048F800014B58629962704720040420014B93F8D9
:104908002100704720040420014B187D704700BF28
:104918008C030420014B9868704700BF8C03042067
:10492800014BD860196170478C030420014B93F840
:104938002C0070478C030420014B186A704700BF95
:104948008C030420014B5862996270478C03042041
:10495800014B186059607047A004042008B5FDF7A2
:10496800F1F9FDF773F808BD04000000000000002D
:104978000200000000000000FFFFFFFF40000000F1
:10498800014B00221A7070476402042013460A463D
