:020000040000fa
:020000040c10de
:10000000f0ff0720890b100c000000004715100cb2
:1000100000000000000000000000000000000000e0
:100020000000000000000000000000001715100c88
:1000300000000000000000001715100c1715100c30
:1000400000000000000000000000000000000000b0
:1000500000000000000000000000000000000000a0
:100060000000000000000000000000000000000090
:100070000000000000000000000000000000000080
:100080000000000000000000000000000000000070
:100090000000000000000000000000000000000060
:1000a0000000000000000000000000000000000050
:1000b0000000000000000000000000000000000040
:1000c000000000008d12100cc512100cfd12100c57
:1000d0000000000000000000000000000000000020
:1000e0000000000000000000000000000000000010
:1000f0000000000000000000000000000000000000
:1001000000000000000000000000000000000000ef
:1001100000000000000000000000000000000000df
:1001200000000000000000000000000000000000cf
:1001300000000000000000000000000000000000bf
:1001400000000000000000000000000000000000af
:10015000000000000000000000000000000000009f
:10016000000000000000000000000000000000008f
:10017000000000000000000000000000000000007f
:10018000000000000000000000000000000000006f
:10019000000000000000000000000000000000005f
:1001a000000000000000000000000000000000004f
:1001b000000000000000000000000000000000003f
:1001c000000000000000000000000000000000002f
:1001d0000000000000000000c910100cc910100c35
:1001e000c910100cc910100cc910100cc910100c3b
:1001f00000000000000000000000000000000000ff
:1002000000000000000000000000000000000000ee
:1002100000000000000000000000000000000000de
:1002200000000000000000000000000000000000ce
:1002300000000000000000000000000000000000be
:1002400000000000000000000000000000000000ae
:10025000000000000000000000000000000000009e
:10026000000000000000000000000000000000008e
:10027000000000000000000000000000000000007e
:10028000000000000000000000000000000000006e
:10029000000000000000000000000000000000005e
:1002a000000000000000000000000000000000004e
:0802b000000000000000000046
:020000040000fa
:020000040c10de
:1002b800f8b500bff8bc08bc9e4670477112100c18
:1002c800f8b500bff8bc08bc9e4670474d12100c2c
:020000040000fa
:020000040c10de
:0802d80010030000010000000a
:020000040000fa
:020000040c10de
:1002e0002de9f0410646aeb0154600270591059967
:1002f0000b78002b00f0fa8000244ff0ff33cde99b
:1003000009430eab0b940c9380230d930b5d0bb143
:10031000252b26d134b12246304601f0a2f8059ba8
:1003200023440593059b1a78252a40f0d78003f1d2
:100330000108cdf81480059803782b2b1ad025d806
:10034000202b1bd0232b1dd02a2b27d000f05cffa5
:100350000b90059b1a78303a092a2ed80133059361
:10036000f7e70134d2e7099b43f001030130099319
:100370000590e0e7099b43f00403f7e7099b43f08e
:100380000803f3e7099b43f01003efe72d2bead0b6
:10039000302bd9d1099b43f00203e7e72b680130ea
:1003a0001a1d1b680590002b2a600b9305da099a29
:1003b0005b4282f001020b930992099bda0744bf6a
:1003c00023f002030993059b1a782e2a0dd10022ef
:1003d000581c0a9205905a782a2a25d1023305938f
:1003e0002b681a1d1b682a600a9305a800f0beff3f
:1003f000059b0390187801f0eaf86928039979d0f1
:1004000032dc632800f0cb8019dc252800f0d9808d
:10041000612853d000234ff0ff32cdf814800993a8
:100420000b930a920093d4e000f0eefe0a90059b35
:100430001a78303a092ad8d801330593f7e76428a7
:1004400058d06728e6dc2a4606a800f0f5ff002809
:1004500000f0a180059b09a930465a1c059206aa06
:100460001b7801f0c9f838e0702873d015dc6e28cd
:1004700000f08c806f28cdd12b46002206a800f01a
:10048000d9fa002800f08780059b06aa09a9304602
:100490000133059301f0aef81fe075283ad07828b3
:1004a00048d07328b6d1802975d1059b2a680133bd
:1004b0000593131d2b60002312687de02a4606a8d1
:1004c00000f0baff002866d0059b09a930465a1ce7
:1004d000059206aa1b7801f08ff804443c44a74219
:1004e0007add3e4b4f224ff0ff371a6038462eb070
:1004f000bde8f0812b46012206a800f09bfa0028f7
:1005000049d0059b06aa09a930460133059300f09e
:10051000e7fae2e72b46002206a800f08bfa002853
:1005200039d0059b06aa09a930460133059301f08d
:1005300061f8d2e72b46002206a800f07bfa50b300
:10054000059b5a1c05921b7806aa09a9304601f0a2
:1005500053f8c2e72b460022f02106a800f06afa01
:10056000c8b1059b01330593dde9062313430bd185
:100570001b4800f0d1ff099b0246194900930b9bd1
:10058000304600f0e5fba8e77823dde72b463a1973
:1005900006a800f01cfc059b013305939ee780290b
:1005a000f9d1059b013305932b681a1d1b682a603e
:1005b00006aa8df81830012309a9304601f01ef86b
:1005c0008be78029e7d1059b01330593099b0093b5
:1005d0000b9b01220349d3e7274688e62801042024
:0805e000e815100cee15100cdb
:020000040000fa
:020000040c10de
:1005e8002de9f04f099f154604468e461e46002bfe
:1005f80040f0cc808a42b2fa82fc4cd9bcf1000fa0
:100608000bd0ccf1200801fa0cfe02fa0cf500fa26
:100618000cf420fa08f848ea0e0e4fea15491ffaba
:1006280085f8210cbefbf9fa09fb1ae30afb08fb63
:1006380041ea03439b452ad9eb180af1ff3004d25b
:100648009b4502d9aaf102002b44a3eb0b03a4b2e9
:10065800b3fbf9f209fb123302fb08f844ea03443e
:10066800a04516d92c1902f1ff3303d2a04501d9b0
:10067800931e2c44a4eb080443ea004027b124fa53
:100688000cf400233c607b603146bde8f08f504697
:10069800dbe71346eee702b9ffdebcf1000f2ed10f
:1006a8008b1a01264fea154eaab2210cb3fbfef8ad
:1006b8000efb183308fb02f941ea0343994561d957
:1006c800eb1808f1ff3004d2994502d9a8f10200cd
:1006d8002b44a3eb0903a4b2b3fbfef10efb1133c9
:1006e8004a4344ea0344a2424ed92c1901f1ff338c
:1006f80003d2a24201d98b1e2c44a41abce702fae9
:100708000cf5ccf1200e01fa0cf300fa0cf421fae6
:100718000ef94fea154820fa0efeb9fbf8f14eea39
:10072800030308fb11921ffa85fe180c01fb0ef655
:1007380040ea0242964221d9aa1801f1ff3003d2b9
:10074800964201d9881e2a44921b9bb2b2fbf8f943
:1007580008fb192209fb0efe43ea02439e450fd906
:10076800eb1809f1ff3604d29e4502d9a9f1020619
:100778002b44a3eb0e0346ea004693e70846e3e75b
:100788004e46f6e74046a4e70b46b6e78b4206d945
:10079800002f7ed00026c7e90001304674e7b3fa7f
:1007a80083fcbcf1000f0fd18b4201d3824209d8e0
:1007b800841a61eb030e0120002f6dd0c7e9004eab
:1007c800002661e76046f7e7ccf1200e03fa0cf348
:1007d80000fa0cf622fa0ef521fa0ef402fa0cf2df
:1007e8001d4301fa0cf320fa0ef14fea154a0b43a8
:1007f8001ffa85f8b4fbfaf90afb19401c0c09fb2f
:1008080008f144ea0044a1423fd92c1909f1ff300c
:1008180004d2a14202d9a9f102002c44641a9bb265
:10082800b4fbfaf90afb194409fb08f843ea044146
:1008380088452cd9691809f1ff3304d2884502d9b3
:10084800a9f10203294443ea0040a1eb0801a0fbf7
:1008580002894945c2464c4602d306d1464504d2d0
:100868000138b8eb020a69eb0504afb1b6eb0a032d
:1008780061eb040606fa0efe23fa0cf326fa0cf6d0
:100888004eea0303c7e900369ae74846c6e74b46ef
:0c089800d9e73e463846f7e63e46f5e656
:020000040000fa
:020000040c10de
:1008a40010b582b000230193009300eb80031b0179
:1008b40003f1894303f500535a6e01921b6e019aaa
:1008c40043f4c02313400093009b03f001039b00f7
:1008d400009a12f0020f18bf43f00803009a12f0b6
:1008e400040f18bf43f01003009a12f0080f18bf4a
:1008f40043f00103009a12f0100f18bf43f02003d5
:10090400009a12f0200f18bf43f04003009a12f42b
:10091400c02f18bf43f002030199134a0a4032b1b1
:1009240000eb4002114901eb82020021117201998e
:1009340000eb8002120102f1894202f50052516675
:1009440000eb4002920009498a585ab153b10c464f
:100954004200111804eb81014968104480002258b8
:100964001846904702b010bd2a000600000104207a
:020000040000fa
:020000040c10de
:1009740080b5002000f021fe00222549104600f039
:1009840091fd00222349012000f08cfd0123224a1d
:100994002249184600f0d0fa214ddff88080214c1e
:1009a400214fdff888904e4611e0284600f0b2fd52
:1009b400034642462946002000f0befa0ce000231c
:1009c40023703846fef726fb09e0fef717fb28469e
:1009d400fef71cfb0028e8d12378002befd130462a
:1009e400fef710fb0028f0d00023237099f80010c4
:1009f400384600f019f90123074a4146184600f029
:100a04009bfa4ff089434ff00072c3f89c20dce757
:100a14004915100c5d15100c2c01042028200045ec
:100a2400000004201e010420180104202d010420cc
:020000040000fa
:020000040c10de
:100a3400882910b536d012dc812943d003dc802903
:100a440040d0002010bd82290ed08429f9d1196824
:100a540002b30a1d1a60b1f90020d3171ee0a029c1
:100a64002bd00bdc9029ecd11968073121f0070158
:100a740001f108021a60d1e900230fe0c02901d076
:100a8400f029ded11a68111d196013680360002370
:100a9400436005e00a1d1a600a880023c0e90023a8
:100aa4000120cfe7196822b10a1d1a6091f90020cc
:100ab400d3e70a1d1a600a78efe71a68111d126855
:100ac4001960cae719681ab10a1d1a600a68c4e7ee
:0c0ad4000c1d1c600b68c0e90032e1e75b
:020000040000fa
:020000040c10de
:100ae0002de9f041d2e900230c4686b007465feac3
:100af000d37820684968a5680590e66841d05242dd
:100b000063eb4303002908db20f002000590b8f1f5
:100b1000000f02d1059948072ad5691e05a8029041
:100b20000a20cde90010204600f0ccf9b8f1000f02
:100b300002d1059b59071fd5b8f1000f00f1ff3016
:100b400014bf2d232b23335422693118059b013afe
:100b500000932b46121a384600f0faf87b68db0542
:100b600003d563689842b8bf184606b0bde8f08167
:100b70000807d2d42946d1e71a07e5d50138202342
:080b8000e1e70029c0dac5e736
:020000040000fa
:020000040c10de
:100b880008b51f4b98471f4b9847eff3108172b673
:100b98001d4bd3f8882042f47002c3f88820d3f89c
:100ba8008c2042f44062c3f88c20184a536843f002
:100bb8007c435360bff34f8fbff36f8f01b962b6a9
:100bc800134a936823f0010393601346da6812f01e
:100bd800010ffbd10e4b24225a6001229a6000f0cb
:100be800ddfb0c4b23f07f03074a93600a4b9847c1
:100bf8000a4b98470a4b9847fff7b8fefee700bf35
:100c08004b0e100c4b0e100c00ed00e030ef00e026
:100c1800008080440000100c6d10100c4b0e100c5e
:040c28004b0e100c53
:020000040000fa
:020000040c10de
:100c2c002de9f84307460e46214b224a92e8030071
:100c3c0083e80300042e39d8bd1907f1010808eb2d
:100c4c000603c6f1040853fa88f80724dff8689005
:100c5c0015f9012b49461648204400f049fc044480
:100c6c00e4b24545f4d17eb17d1e013e57fa86f6bd
:100c7c00114f15f9012f39460d48204400f038fc6e
:100c8c000444e4b2b542f4d1094d2a190b4b19882e
:100c9c009b7829539370284600f038fc0346084a89
:100cac002946002000f044f9bde8f8830724dae770
:100cbc00000004207015100c7815100c8015100c09
:040ccc002820004597
:020000040000fa
:020000040c10de
:100cd000e40004203400000000000000b400042000
:100ce0003000000000000000180104200700000090
:100cf000000000001f0104200100000000000000af
:100d00000000042064000000000000002c0104200a
:100d10000200000000000000200104200400000088
:100d200000000000640004205000000000000000eb
:100d30002401042008000000000000000000000062
:100d400000000000666666666666666666666666db
:020000040000fa
:020000040c10de
:100d50002de9ff471d460c9b06468a4613f0010904
:100d6000144601d195420bd822465146304600f038
:100d700078fba54204d82546284604b0bde8f08794
:100d80002f1b20216846102f3a46b84628bf102254
:100d900000f002fcb8f10f0f11d83b096ff00f0201
:100da0006946304602fb037200f05bfbb9f1000fad
:100db000e2d122465146304600f053fbdce71022d8
:0e0dc00069463046a8f1100800f04bfbe2e750
:020000040000fa
:020000040c10de
:100dce00842910b523d00cdc812903d0822913d0bd
:100dde0080290bd119680c1d1c600b6803601a600a
:100dee0013e0902921d003dc882917d0002010bdf4
:100dfe00a029efd0c029ece719680c1d1c600b6808
:100e0e00d11703601046c3e900010120efe719680e
:100e1e000c1d1c600b6803601a80f6e719680c1d28
:100e2e001c600b6803601a70efe719680c1d1c60dc
:0c0e3e00d31709680160c1e90023e6e752
:020000040000fa
:020000040c10de
:020e4a007047ef
:020000040000fa
:020000040c10de
:100e4c001b4b1b7d002b31d010b5194a9368516890
:100e5c00184a127e12f0010f15d0994213d9154978
:100e6c0013484a6802f00702012a026814bfd25cd8
:100e7c0032f813208a62013344680a7e12f0010fa3
:100e8c0001d09c42edd80a4a936052689a420cd821
:100e9c00074b00221a755a60064a01211175db684e
:100eac001bb1034b1869db68984710bd704700bf36
:080ebc00b400042000200045f1
:020000040000fa
:020000040c10de
:100ec4002de9f84f0c9f0446104619466668002524
:100ed4003a680123d4f80cb0002e246902f0020a07
:100ee4000b9ab8bf0126013c90464feae2790bf811
:100ef4000450002c03dcd3b12046bde8f88f50ea3f
:100f0400010209d1721b002a06dc0a9a521b002a2c
:100f1400f1ddbaf1000feed042464b4600f072fa12
:100f2400013c1346303201350bf80420e1e73b68fd
:080f340023f010033b60dfe72e
:020000040000fa
:020000040c10de
:100f3c0070b400eb4005174c04eb8504247a24bbf9
:100f4c00144c04eb850401252572134d86003418ce
:100f5c0005eb0414a166e266a26f92b242ea034268
:100f6c000644a267300100f1894000f50050036d82
:100f7c0043f001030365436d13f47f0f08d1036d38
:100f8c0043f480330365012000e0002070bc7047ff
:0c0f9c000120fbe700010420002080443d
:020000040000fa
:020000040c10de
:100fa80008b5174b93f82c30cbb1154bda691b6a8f
:100fb800934214d2124b986a124a916a1b6a526879
:100fc80002f00702012a0e4a926914bfd15422f88e
:100fd800131001330a4a1362d2699a4200d008bd3d
:100fe800074b002283f82c20da61064a8421117508
:100ff8005b6a002bf3d0024b5b6a9847efe700bfb0
:08100800b400042000200045a3
:020000040000fa
:020000040c10de
:10101000154be02283f821230221596083f8222313
:101020000421596083f823230821596083f866233b
:101030004021d96083f867238021d96083f8682331
:101040004ff48071d96083f869234ff40071d9603f
:1010500083f86a234ff48061d96083f86b234ff4df
:0c1060000062da60704700bf00e100e0b1
:020000040000fa
:020000040c10de
:10106c0038b50e4a00230e4c13600e4a0e4d136019
:10107c000e4a13600e4a13600e4a13600e4a5362f6
:10108c0013610123936000f0b7fa00f0b5faac429b
:10109c0000d338bd54f8043b9847f8e724010420ea
:1010ac00c402100c70000420c802100c6c00042048
:0c10bc006400042068000420740004207c
:020000040000fa
:020000040c10de
:1010c80008b5144b9b7df3b1124a137edbb2927db7
:1010d80012f0800f18d10f4a137edbb2927d12f006
:1010e800010f04d013f0010f01d0fff7abfe094a3e
:1010f800137edbb2927d12f0040f04d013f0040fbc
:1011080001d0fff74dff08bd13f0800fe3d000f0ca
:081118000df9e0e7002000459d
:020000040000fa
:020000040c10de
:10112000114b124a1a604ff622029a814ff4403254
:101130005a601a46d369002bfcd10b4a136843f05e
:1011400002031360d369002bfcd1094b00229a6182
:10115000da611a6283f82c205a621a605a609a6027
:101160001a75da60da8570470020004504011040e6
:04117000b4000420a3
:020000040000fa
:020000040c10de
:1011740030b5154689b04ff0ff32019202f20312e6
:10118400029200b96846cde9030151b14c1e002911
:10119400059408da094b4f224ff0ff301a6009b06a
:1011a40030bd0c46f3e70022294602701a46cde909
:1011b400060001a800f084f9f1e700bf280104202b
:020000040000fa
:020000040c10de
:1011c4000c4b00221a605a601a72da601a611a759e
:1011d400094b0a4a5a650121996708221a66084888
:1011e400c3f8a400c3f8c810c3f8b02002221a60e0
:1011f400704700bf000104200020804403002c003d
:0412040030002b008b
:020000040000fa
:020000040c10de
:1012080010b5027803460130202afad0a2f109016c
:101218000429f6d92b2a07d02d2a11d1012101330f
:10122800013b00200a2403e00021f8e76043801a0c
:1012380013f8012f303a092af8d901b9404210bdf4
:041248000021ede7ad
:020000040000fa
:020000040c10de
:10124c0010b5054c227832b9044b13b1044800e0b8
:10125c0000bf0123237010bde40004200000000037
:10126c000000000008b5034b1bb10349034800e024
:10127c0000bf08bd00000000e800042000000000d2
:020000040000fa
:020000040c10de
:10128c0000b583b0002301930a4b1b6a0193019ba9
:10129c0013f0010f06d1019b13f0020f06d103b01e
:1012ac005df804fb0020fff7f7faf4e70120fff7e5
:0812bc00f3faf4e7002080447e
:020000040000fa
:020000040c10de
:1012c40000b583b0002301930a4bdb690193019bb2
:1012d40013f0010f06d1019b13f0020f06d103b0e6
:1012e4005df804fb0020fff7dbfaf4e70120fff7c9
:0812f400d7faf4e70020804462
:020000040000fa
:020000040c10de
:1012fc0000b583b0002301930a4b9b690193019bba
:10130c0013f0010f06d1019b13f0020f06d103b0ad
:10131c005df804fb0020fff7bffaf4e70120fff7ac
:08132c00bbfaf4e70020804445
:020000040000fa
:020000040c10de
:101334000b4b5b8b13f0070300d1704710b5094cbe
:10134400e38500f047f8064b84221a75002384f8dd
:101354002c30636a13b1a06a636a984710bd00bf5a
:0813640000200045b400042044
:020000040000fa
:020000040c10de
:10136c0000230c4a30b512f8134024b902eb4303a6
:10137c005b78184630bd01680d78a54209bf02ebb9
:10138c004303013301315b7814bfdbb201600a2bdc
:08139c00e9d9eee73015100c51
:020000040000fa
:020000040c10de
:1013a40070b50a484ff6ff76094d016811b94368d4
:1013b40003b970bd836800f10c04426833402046d1
:1013c40055f82330984704eb8000eee7d00c100c5e
:0413d4008415100c60
:020000040000fa
:020000040c10de
:1013d8000a4b5b8b13f0070f0ed0084b80221a764e
:1013e80007225a831b7e13f0040f05d0034b9a6a19
:1013f8001a7e12f0040ffad1704700bf0020004592
:020000040000fa
:020000040c10de
:1014080053b94ab9002908bf00281cbf4ff0ff3163
:101418004ff0ff3000f0f0b8adf1080c6de904cee4
:10142800fff7def8ddf804e0dde9022304b07047d9
:020000040000fa
:020000040c10de
:10143800802910db812901dd83290cd1136807334a
:1014480023f0070303f108011160d3e90023c0e981
:0a14580000230120704700207047b8
:020000040000fa
:020000040c10de
:1014620038b505690446954228bf15465db12a463e
:10147200406900f034f8226963692b44551b00224d
:08148200636125611a7038bd99
:020000040000fa
:020000040c10de
:10148a00002310b5934206d113f0030018bf0120c0
:0e149a0000eb930010bdc45ccc540133f2e7ac
:020000040000fa
:020000040c10de
:1014a80030b4054b44002518ad005951044403ebf2
:0c14b80084035a6030bc7047000104201f
:020000040000fa
:020000040c10de
:1014c40013b50446019201aafef708ff636813f0fe
:0c14d400100f18bf4ff0ff3002b010bd29
:020000040000fa
:020000040c10de
:1014e0005ab10a44431e10b411f8014b914203f85b
:0c14f000014ff9d15df8044b70477047c4
:020000040000fa
:020000040c10de
:1014fc000eb403b503aa52f8041b019200f068f86d
:0a150c0002b05df804eb03b0704775
:020000040000fa
:020000040c10de
:02151600fee7ee
:020000040000fa
:020000040c10de
:10151800037833b1034613f8012f002afbd1181ab8
:0815280070471846704700bf30
:020000040000fa
:020000040c10de
:1015300068076c094c836a9074a07ac00080688840
:0615400000846c820081b2
:020000040000fa
:020000040c10de
:02154600fee7be
:020000040000fa
:020000040c10de
:10154800012800d07047024b01221a70fae700bf49
:041558001f0104204b
:020000040000fa
:020000040c10de
:10155c00012800d07047024b01221a70fae700bf35
:04156c001e01042038
:020000040000fa
:020000040c10de
:10157000454550524f4d3a002564467c000000001e
:041580000d0a000050
:020000040000fa
:020000040c10de
:10158400ad15100c8b14100cf115100cf115100c7a
:04159400f115100c31
:020000040000fa
:020000040c10de
:1015980032b1c9b20244034603f8011b9342fbd19e
:0415a800704700bfc9
:020000040000fa
:020000040c10de
:1015ac000a440023914201d10020704701f8013b0d
:0215bc00f8e74e
:020000040000fa
:020000040c10de
:1015be0008b5fff700fefff7acfdfff722fd08bdf3
:020000040000fa
:020000040c10de
:0e15ce00a0f14103192b98bf40f02000704798
:020000040000fa
:020000040c10de
:0c15dc0013460a466ff00041fff7c6bd41
:020000040000fa
:020000040c10de
:0815e800286e696c2900250042
:020000040000fa
:020000040c10de
:0415f0000020704720
:020000040000fa
:020000040c10de
:0415f400002070471c
:020000040000fa
:020000040c10de
:0415f8000020704718
:020000040000fa
:020000040c10de
:0415fc000020704714
:020000040000fa
:020000040c10de
:04160000704700bf70
:020000040000fa
:020000040c10de
:0216040070472d
:00000001FF
