:020000040800F2
:10000000F0FF0320F108000CC70D000CC90D000C17
:10001000CD0D000CCF0D000CD10D000CC50D000C4A
:1000200000000000000000000000000000000000D0
:10003000CB0D000C000000000000000000000000DC
:10004000C50D000CC50D000CC50D000CC50D000C38
:10005000C50D000CC50D000CC50D000CC50D000C28
:10006000C50D000CC50D000CC50D000CC50D000C18
:10007000C50D000CC50D000CC50D000CC50D000C08
:10008000C50D000CC50D000CC50D000CC50D000CF8
:10009000C50D000CC50D000CC50D000CC50D000CE8
:1000A000C50D000CC50D000CC50D000CC50D000CD8
:1000B000C50D000CC50D000CC50D000CC50D000CC8
:1000C000C50D000C00000000000000000000000052
:1000D000C50D000CC50D000CC50D000CC50D000CA8
:1000E000C50D000CC50D000CC50D000CC50D000C98
:1000F000C50D000CC50D000CC50D000CC50D000C88
:10010000C50D000CC50D000CC50D000CC50D000C77
:10011000C50D000CC50D000CC50D000CC50D000C67
:10012000C50D000CC50D000CC50D000CC50D000C57
:10013000C50D000CC50D000CC50D000CC50D000C47
:10014000C50D000CC50D000CC50D000CC50D000C37
:1001500000000000C50D000CC50D000CC50D000C05
:10016000C50D000CC50D000CC50D000CC50D000C17
:10017000C50D000CC50D000CC50D000CC50D000C07
:10018000C50D000CC50D000CC50D000CC50D000CF7
:10019000C50D000CC50D000CC50D000CC50D000CE7
:1001A000C50D000CC50D000CC50D000CC50D000CD7
:1001B000C50D000CC50D000CC50D000CC50D000CC7
:1001C000000000000000000000000000000000002F
:1001D000000000000000000000000000000000001F
:1001E000000000000000000000000000000000000F
:1001F000C50D000CC50D000CC50D000CC50D000C87
:10020000C50D000CC50D000CC50D000CC50D000C76
:10021000C50D000CC50D000CC50D000CC50D000C66
:10022000C50D000CC50D000CC50D000CC50D000C56
:10023000C50D000CC50D000CC50D000CC50D000C46
:10024000C50D000CC50D000CC50D000CC50D000C36
:10025000C50D000CC50D000CC50D000CC50D000C26
:10026000C50D000CC50D000CC50D000CC50D000C16
:10027000C50D000CC50D000CC50D000CC50D000C06
:10028000C50D000CC50D000CC50D000CC50D000CF6
:10029000C50D000CC50D000CC50D000CC50D000CE6
:1002A000C50D000CC50D000CC50D000CC50D000CD6
:1002B000C50D000CC50D000CF0FF0320F108000C6B
:1002C000C70D000CC90D000CCD0D000CCF0D000C9E
:1002D000D10D000CC50D000C000000000000000056
:1002E00000000000D50D000CCB0D000C000000003C
:1002F000D50D000CD50D000CC50D000CC50D000C66
:10030000C50D000CC50D000CC50D000CC50D000C75
:10031000C50D000CC50D000CC50D000CC50D000C65
:10032000C50D000CC50D000CC50D000CC50D000C55
:10033000C50D000CC50D000CC50D000CC50D000C45
:10034000C50D000CC50D000CC50D000CC50D000C35
:10035000C50D000CC50D000CC50D000CC50D000C25
:10036000C50D000CC50D000CC50D000CC50D000C15
:10037000C50D000CC50D000CC50D000CD50D000CF5
:10038000D50D000CD50D000CC50D000CC50D000CD5
:10039000C50D000CC50D000CC50D000CC50D000CE5
:1003A000C50D000CC50D000CC50D000CC50D000CD5
:1003B000C50D000CC50D000CC50D000CC50D000CC5
:1003C000C50D000CC50D000CC50D000CC50D000CB5
:1003D000C50D000CC50D000CC50D000CC50D000CA5
:1003E000C50D000CC50D000CC50D000CC50D000C95
:1003F000C50D000CC50D000CC50D000CC50D000C85
:10040000C50D000CC50D000CD50D000CC50D000C64
:10041000C50D000CC50D000CC50D000CC50D000C64
:10042000C50D000CC50D000CC50D000CC50D000C54
:10043000C50D000CC50D000CC50D000CC50D000C44
:10044000C50D000CC50D000CC50D000CC50D000C34
:10045000C50D000CC50D000CC50D000CC50D000C24
:10046000C50D000CC50D000CC50D000CC50D000C14
:10047000C50D000CC50D000CD50D000CD50D000CE4
:10048000D50D000CD50D000CD50D000CD50D000CB4
:10049000D50D000CD50D000CD50D000CD50D000CA4
:1004A000D50D000CD50D000CC50D000CC50D000CB4
:1004B000C50D000CC50D000CC50D000CC50D000CC4
:1004C000C50D000CC50D000CC50D000CC50D000CB4
:1004D000C50D000CC50D000CC50D000CC50D000CA4
:1004E000C50D000CC50D000CC50D000CC50D000C94
:1004F000C50D000CC50D000CC50D000CC50D000C84
:10050000C50D000CC50D000CC50D000CC50D000C73
:10051000C50D000CC50D000CC50D000CC50D000C63
:10052000C50D000CC50D000CC50D000CC50D000C53
:10053000C50D000CC50D000CC50D000CC50D000C43
:10054000C50D000CC50D000CC50D000CC50D000C33
:10055000C50D000CC50D000CC50D000CC50D000C23
:10056000C50D000CC50D000CC50D000CC50D000C13
:020000040A00F0
:100000000100FEFF0100FEFF0100FEFF0100FEFFF8
:100010000100FEFF0100FEFF0100FEFF0100FEFFE8
:10002000FFFFFFFFFFFFFFFFFFFFFFFFFFFFFFFFE0
:10003000FFFFFFFFFFFFFFFFFFFFFFFFFFFFFFFFD0
:1000400000000000FFFFFFFF07000000FF050000A9
:100054000F0F00007000000002000000000000000C
:100064000202000000000000021000000300000073
:10007400000000000001010040000000FFFFFFFF3E
:0400A000FFFFFFFF60
:0C200000000000400100FEFFFFFFFFFF9A
:10202000FFFFFFFFFFFFFFFFFFFFFFFFFFFFFFFFC0
:10203000FFFFFFFFFFFFFFFFFFFFFFFFFFFFFFFFB0
:10204000FFFFFFFFFFFFFFFFFFFFFFFFFFFFFFFFA0
:10205000FFFFFFFFFFFFFFFFFFFFFFFFFFFFFFFF90
:10206000FFFFFFFFFFFFFFFFFFFFFFFFFFFFFFFF80
:10207000FFFFFFFFFFFFFFFFFFFFFFFFFFFFFFFF70
:10208000FFFFFFFFFFFFFFFFFFFFFFFFFFFFFFFF60
:10209000FFFFFFFFFFFFFFFFFFFFFFFFFFFFFFFF50
:1020A000FFFFFFFFFFFFFFFFFFFFFFFFFFFFFFFF40
:1020B000FFFFFFFFFFFFFFFFFFFFFFFFFFFFFFFF30
:1020C000FFFFFFFFFFFFFFFFFFFFFFFFFFFFFFFF20
:1020D000FFFFFFFFFFFFFFFFFFFFFFFFFFFFFFFF10
:1020E0000607000004CF0F0036F70707863A000006
:1020F000FF0300003F000000BF000000FFFFFFFFE4
:04210000FFFFFFFFDF
:10211000FFFFFFFFFFFFFFFFFFFFFFFFFFFFFFFFCF
:04212000FFFFFFFFBF
:108000000000FFFF0000FFFF0000FFFF0000FFFF78
:108010000000FFFF0000FFFF0000FFFF0000FFFF68
:10802000FFFFFFFFFFFFFFFFFFFFFFFFFFFFFFFF60
:10803000FFFFFFFFFFFFFFFFFFFFFFFFFFFFFFFF50
:1080400044000000FFFFFFFF07000000FF050000E5
:108054000F0F00007000000002000000000000008C
:1080640002020000000000000210000003000000F3
:10807400000000000001010040000000FFFFFFFFBE
:0480A000FFFFFFFFE0
:0CA00000000000400000FFFFFFFFFFFF1A
:10A02000FFFFFFFFFFFFFFFFFFFFFFFFFFFFFFFF40
:10A03000FFFFFFFFFFFFFFFFFFFFFFFFFFFFFFFF30
:10A04000FFFFFFFFFFFFFFFFFFFFFFFFFFFFFFFF20
:10A05000FFFFFFFFFFFFFFFFFFFFFFFFFFFFFFFF10
:10A06000FFFFFFFFFFFFFFFFFFFFFFFFFFFFFFFF00
:10A07000FFFFFFFFFFFFFFFFFFFFFFFFFFFFFFFFF0
:10A08000FFFFFFFFFFFFFFFFFFFFFFFFFFFFFFFFE0
:10A09000FFFFFFFFFFFFFFFFFFFFFFFFFFFFFFFFD0
:10A0A000FFFFFFFFFFFFFFFFFFFFFFFFFFFFFFFFC0
:10A0B000FFFFFFFFFFFFFFFFFFFFFFFFFFFFFFFFB0
:10A0C000FFFFFFFFFFFFFFFFFFFFFFFFFFFFFFFFA0
:10A0D000FFFFFFFFFFFFFFFFFFFFFFFFFFFFFFFF90
:10A0E0000607000004CF0F0036F70707863A000086
:10A0F000FF0300003F000000BF000000FFFFFFFF64
:04A10000FFFFFFFF5F
:10A11000FFFFFFFFFFFFFFFFFFFFFFFFFFFFFFFF4F
:04A12000FFFFFFFF3F
:020000040C00EE
:100000000844714672467346B7EE000AF7EE000ADE
:10001000B7EE001AF7EE001AB7EE002AF7EE002A44
:10002000B7EE003AF7EE003AB7EE004AF7EE004AB4
:10003000B7EE005AF7EE005AB7EE006AF7EE006A24
:10004000B7EE007AF7EE007A8EF3008C10B4F1EE82
:1000500010CA4FF66074C0F6FF740CEA040CE1EEAF
:1000600010CA10BCF4467447F8B500BFF8BC08BC11
:100070009E467047D90C000CF8B500BFF8BC08BC10
:100080009E467047B50C000C474AD36823F4E063E2
:100090001B041B0C43F0BF6343F40033D360BFF376
:1000A0005F8F62B6414BD3F8842242F00202C3F85C
:1000B0008422D3F88422D3F8842242F00402C3F8C5
:1000C0008422D3F88422D3F8842242F00802C3F8B1
:1000D0008422D3F88422D3F8882242F01002C3F895
:1000E0008822D3F88822D3F88C2242F00102C3F888
:1000F0008C22D3F88C22D3F88C2242F00202C3F86F
:100100008C22D3F88C22D3F88C2242F00402C3F85C
:100110008C22D3F88C22D3F88C2242F00802C3F848
:100120008C22D3F88C22D3F88C2242F01002C3F830
:100130008C22D3F88C22D3F88C2242F02002C3F810
:100140008C22D3F88C22D3F88C2242F04002C3F8E0
:100150008C22D3F88C22D3F88C2242F08002C3F890
:100160008C22D3F88C22D3F88C2242F48072C3F80C
:100170008C22D3F88C22D3F88C2242F40072C3F87C
:100180008C22D3F88C22D3F88C2242F48062C3F8FC
:100190008C22D3F88C22D3F88C2242F40062C3F86C
:1001A0008C22D3F88C32704700ED00E000E100E0D3
:1001B00070B4434B1B68BBB1431E13F10A0F70D8D8
:1001C00000F1080313F0070276D0C2F10802D14310
:1001D000994269D31344002B68DD3A4A15689D4261
:1001E00066D3394A166823E0384911F0070F1AD050
:1001F000CC1D24F0070401F58062121B2146324B0E
:10020000196000245C600A44083A22F007022C4B73
:100210001A6054601460541A4C600A602C4B1C60C5
:10022000284B1C60C8E74FF48062E8E732460E4670
:100230007168994202D231680029F7D120490968D2
:10024000B14237D010680830316811607168C91A3E
:1002500010290ED9F41814F0070F05D0012383F3E9
:10026000108883F39088FEE7616073601168F15035
:1002700014607268AD1A13490D60154909688D4202
:100280003CBF13490D6042F00042726000233360AE
:1002900010F0070F06D0012383F3108883F39088B2
:1002A000FEE7002070BC70470020FBE70020F9E764
:1002B0000020F7E70020F5E7002B8EDA0020F1E7B9
:1002C000F8040020FC040020EC0400208000002042
:1002D00000050020EFF3058343B10138072805D856
:1002E0003D4B03EB0013DB688B4233D07046714605
:1002F00072467346B7EE000AF7EE000AB7EE001A30
:10030000F7EE001AB7EE002AF7EE002AB7EE003A31
:10031000F7EE003AB7EE004AF7EE004AB7EE005AA1
:10032000F7EE005AB7EE006AF7EE006AB7EE007A11
:10033000F7EE007A8EF3008C10B4F1EE10CA4FF68F
:100340006074C0F6FF740CEA040CE1EE10CA10BC35
:10035000F446744770B5204E04013519686800F002
:1003600073FA002333516B60AB60EB60BDE8704003
:100370007046714672467346B7EE000AF7EE000A01
:10038000B7EE001AF7EE001AB7EE002AF7EE002AD1
:10039000B7EE003AF7EE003AB7EE004AF7EE004A41
:1003A000B7EE005AF7EE005AB7EE006AF7EE006AB1
:1003B000B7EE007AF7EE007A8EF3008C10B4F1EE0F
:1003C00010CA4FF66074C0F6FF740CEA040CE1EE3C
:1003D00010CA10BCF44674470000002001380728FA
:1003E0004AD808B5EFF30B823D4B03EB00135B6873
:1003F000934235D0BDE80840704671467246734658
:10040000B7EE000AF7EE000AB7EE001AF7EE001A90
:10041000B7EE002AF7EE002AB7EE003AF7EE003A00
:10042000B7EE004AF7EE004AB7EE005AF7EE005A70
:10043000B7EE006AF7EE006AB7EE007AF7EE007AE0
:100440008EF3008C10B4F1EE10CA4FF66074C0F653
:10045000FF740CEA040CE1EE10CA10BCF4467447B9
:100460001F4B03EB0013DB688B42C3D11C4B03EB28
:10047000001000F074FCBDE770467146724673468A
:10048000B7EE000AF7EE000AB7EE001AF7EE001A10
:10049000B7EE002AF7EE002AB7EE003AF7EE003A80
:1004A000B7EE004AF7EE004AB7EE005AF7EE005AF0
:1004B000B7EE006AF7EE006AB7EE007AF7EE007A60
:1004C0008EF3008C10B4F1EE10CA4FF66074C0F6D3
:1004D000FF740CEA040CE1EE10CA10BCF446744739
:1004E000000000200138072845D808B5EFF30B833A
:1004F000ABB3BDE808407046714672467346B7EE2E
:10050000000AF7EE000AB7EE001AF7EE001AB7EE8F
:10051000002AF7EE002AB7EE003AF7EE003AB7EEFF
:10052000004AF7EE004AB7EE005AF7EE005AB7EE6F
:10053000006AF7EE006AB7EE007AF7EE007A8EF303
:10054000008C10B4F1EE10CA4FF66074C0F6FF7460
:100550000CEA040CE1EE10CA10BCF4467447204BC0
:1005600003EB0013DB688B42C3D11D4B03EB001080
:1005700000F00CFCBDE77046714672467346B7EE5C
:10058000000AF7EE000AB7EE001AF7EE001AB7EE0F
:10059000002AF7EE002AB7EE003AF7EE003AB7EE7F
:1005A000004AF7EE004AB7EE005AF7EE005AB7EEEF
:1005B000006AF7EE006AB7EE007AF7EE007A8EF383
:1005C000008C10B4F1EE10CA4FF66074C0F6FF74E0
:1005D0000CEA040CE1EE10CA10BCF446744700BFEC
:1005E00000000020F8B5EFF30584EFF30B820CB1A7
:1005F000B2B300242046BDE8F84071467246734607
:10060000B7EE000AF7EE000AB7EE001AF7EE001A8E
:10061000B7EE002AF7EE002AB7EE003AF7EE003AFE
:10062000B7EE004AF7EE004AB7EE005AF7EE005A6E
:10063000B7EE006AF7EE006AB7EE007AF7EE007ADE
:100640008EF3008C10B4F1EE10CA4FF66074C0F651
:10065000FF740CEA040CE1EE10CA10BCF4467447B7
:100660001D4B082406E0ED68A94230D0013210335A
:10067000082A10D01D461E68002EF4D15E68002E98
:10068000F1D19E68002EEED1DE68002EEBD1082C51
:10069000E9D11446EAE7072C01D90024AAE70D4660
:1006A00006460830FFF784FD024690B187190A48D4
:1006B000210143189F60DFF824C042F806C0C7F844
:1006C00004C05A60DD609B684350013492E7002407
:1006D00090E700248EE700BF00000020A5EDF5FEA6
:1006E000294B01221A61294AD36943F48033D3612B
:1006F000D36813F4807FFBD0254B0C229A64F02240
:100700005A640022DA661A46936F13F0400FFBD149
:100710001F4A8823D364136C43F4206343F002031D
:100720001364136913F0807FFBD01A4B1A4A1A62C4
:100730001A46536813F0040FFBD1164B174A5A623E
:100740001A46536813F0080FFBD1124B4122C3F82D
:10075000DC201A46D2F8DC3013F0400FFAD00D4BF3
:100760004122C3F8E4201A46D2F8E43013F0400FD7
:10077000FAD0084B4122C3F8E8201A46D2F8E830F4
:1007800013F0400FFAD0704700E0004400800044AE
:1007900000C00044000001440601010006010200FF
:1007A000EFF30583C3B1264B1B68ABB9244B012281
:1007B0001A60002383F30B8883F30988214B03F12C
:1007C000800100221A605A609A60DA6010338B420E
:1007D000F8D1022383F3148870467146724673463B
:1007E000B7EE000AF7EE000AB7EE001AF7EE001AAD
:1007F000B7EE002AF7EE002AB7EE003AF7EE003A1D
:10080000B7EE004AF7EE004AB7EE005AF7EE005A8C
:10081000B7EE006AF7EE006AB7EE007AF7EE007AFC
:100820008EF3008C10B4F1EE10CA4FF66074C0F66F
:10083000FF740CEA040CE1EE10CA10BCF4467447D5
:10084000F40400200000002000284AD050F8041CC6
:10085000002905DB012383F3108883F39088FEE7EA
:1008600050F8083C2BB1012383F3108883F3908860
:10087000FEE730B4A0F1080321F0004140F8041C69
:10088000012181F3908850F8040C16490A6802444B
:100890000A60154A00E00A4611688B42FBD854688A
:1008A0001519AB420CD05C68181981420CD0196044
:1008B0009A4218BF1360002383F3908830BC7047BE
:1008C000204450601346EEE708480068814206D095
:1008D000496821445960116809681960E8E718609F
:1008E000E6E77047FC040020EC040020F804002038
:1008F00008B51F4B98471F4B9847EFF3108172B60E
:100900001D4BD3F8882042F47002C3F88820D3F836
:100910008C2042F44062C3F88C20184A536843F09C
:100920007C435360BFF34F8FBFF36F8F01B962B643
:10093000134A936823F0010393601346DA6812F0B8
:10094000010FFBD10E4B24225A6001229A6000F065
:10095000D1F90C4B23F07F03074A93600A4B984769
:100960000A4B98470A4B984700F0E0F8FEE700BFB3
:10097000D30D000CD30D000C00ED00E030EF00E0D3
:100980000080804400000008A50B000CD30D000C73
:10099000D30D000CEFF305836BB1214A136843F4C8
:1009A000406313601F4B1A6822F000521A601A68E5
:1009B00042F080621A607046714672467346B7EE26
:1009C000000AF7EE000AB7EE001AF7EE001AB7EECB
:1009D000002AF7EE002AB7EE003AF7EE003AB7EE3B
:1009E000004AF7EE004AB7EE005AF7EE005AB7EEAB
:1009F000006AF7EE006AB7EE007AF7EE007A8EF33F
:100A0000008C10B4F1EE10CA4FF66074C0F6FF749B
:100A10000CEA040CE1EE10CA10BCF446744700BFA7
:100A20008CED00E034EF00E0EFF305833BB11E4AAC
:100A300013689BB243F0BF6343F4103313607046F6
:100A4000714672467346B7EE000AF7EE000AB7EE3B
:100A5000001AF7EE001AB7EE002AF7EE002AB7EEFA
:100A6000003AF7EE003AB7EE004AF7EE004AB7EE6A
:100A7000005AF7EE005AB7EE006AF7EE006AB7EEDA
:100A8000007AF7EE007A8EF3008C10B4F1EE10CA03
:100A90004FF66074C0F6FF740CEA040CE1EE10CA65
:100AA00010BCF446744700BF0CED00E0D0040020F9
:100AB0001C00000000000000F404002004000000FE
:100AC0000000000000000020800000000000000086
:100AD000F804002004000000000000008000002056
:100AE0000004000000000000FC04002008000000DA
:100AF00000000000EC0400200800000000000000DE
:100B00000405002004000000000000008004002014
:100B10005000000000000000080500200400000054
:100B200000000000000000000000000010B582B0CE
:100B30004FF041631C68002000F005F9B4F1FF3F5D
:100B40002DD084F38888164B1B680193019C6408A0
:100B500064002046214622462346B7EE000AF7EEFF
:100B6000000AB7EE001AF7EE001AB7EE002AF7EE09
:100B7000002AB7EE003AF7EE003AB7EE004AF7EE79
:100B8000004AB7EE005AF7EE005AB7EE006AF7EEE9
:100B9000006AB7EE007AF7EE007A00F031F8FEE76F
:100BA0000400100C38B50E4A00230E4C13600E4A98
:100BB0000E4D13600E4A13600E4A13600E4A136006
:100BC0000E4A536213610123936000F004F900F0B0
:100BD00002F9AC4200D338BD54F8043B9847F8E71B
:100BE000080500207400000C8C0400207800000C24
:100BF0008804002080040020840400209004002049
:100C00002DE9E04F2746A046A146A246A346A446AA
:100C10002DED108B4FF0000545EC185B45EC195A93
:100C200045EC1A5A45EC1B5A45EC1C5A45EC1D5A2A
:100C300045EC1E5A45EC1F5AF1EE105A4FF66076FD
:100C4000C0F6FF763540E1EE105A84F30088254661
:100C50002646A447BDEC108BBDE8E08F144B012263
:100C600083F8582083F85920222183F83C104FF054
:100C70004071D96683F8C92083F8CA20202283F8FE
:100C8000B420022283F8B5204FF4C062C3F8EC20F0
:100C90000021C3F86C114FF48012C3F88021C3F80F
:100CA000902183F8D41183F8BA11C3F8EC2170476E
:100CB0000010804410B5054C227832B9044B13B1B2
:100CC000044800E000BF0123237010BDD0040020C1
:100CD000000000000000000008B5034B1BB10349F1
:100CE000034800E000BF08BD00000000D40400205D
:100CF0000000000070B50A484FF6FF76094D016804
:100D000011B9436803B970BD836800F10C044268EF
:100D10003340204655F82330984704EB8000EEE737
:100D2000AC0A000C780D000C002310B5934206D1DC
:100D300013F0030018BF012000EB930010BDC45C4A
:100D4000CC540133F2E708B5FFF788FFFFF7C8FC82
:100D500000F011F800F02CF8FFF796F908BDEFF35A
:100D6000058139B1EFF309810160002181F30B881E
:100D700081F30988704770479F0D000C290D000C06
:100D8000C10D000CC10D000CC10D000CEFF305816D
:100D900021B106C882F30B8881F3098870470A44A1
:100DA0000023914201D10020704701F8013BF8E790
:100DB000024B04221A725A72704700BF006000444E
:100DC00000207047FEE7FEE7FEE7FEE7FEE7FEE7EE
:080DD000FEE77047FEE77047E3
:020000040C0FDF
:10F000007FE97FE901F710BD7FE97FE901F7EABAFF
:10F010007FE97FE901F7C4BB7FE97FE901F762BAC5
:10F020007FE97FE900F7ECBF7FE97FE901F7D6B917
:10F030007FE97FE901F7AEBC7FE97FE901F74AB9D3
:020000040C10DE
:10000000F8FF0720F950100C9966100C9F66100C31
:1000100000000000000000000000000000000000E0
:100020000000000000000000000000004964100C07
:1000300000000000000000005D3B100C915C100C03
:1000400000000000000000000000000000000000B0
:1000500000000000000000000000000000000000A0
:100060000000000000000000000000000000000090
:100070000000000000000000000000000000000080
:100080000000000000000000000000000000000070
:100090000000000000000000000000000000000060
:1000A0000000000000000000000000000000000050
:1000B0000000000000000000000000000000000040
:1000C000000000006153100CA953100CF153100CE8
:1000D0000000000000000000000000000000000020
:1000E0000000000000000000000000000000000010
:1000F0000000000000000000000000000000000000
:1001000000000000000000000000000000000000EF
:1001100000000000000000000000000000000000DF
:1001200000000000000000000000000000000000CF
:1001300000000000000000000000000000000000BF
:1001400000000000000000000000000000000000AF
:100150000D55100C00000000000000000000000021
:10016000000000000000000000000000000000008F
:10017000000000000000000000000000000000007F
:10018000000000000000000000000000000000006F
:10019000000000000000000000000000000000005F
:1001A000000000000000000000000000000000004F
:1001B000000000000000000000000000000000003F
:1001C000A508100CA508100CA508100CA508100C0B
:1001D000A508100CA508100C8131100C8131100CF1
:1001E0008131100C8131100C8131100C8131100CD7
:1001F00000000000000000000000000000000000FF
:1002000000000000000000000000000000000000EE
:1002100000000000000000000000000000000000DE
:1002200000000000000000000000000000000000CE
:1002300000000000000000000000000000000000BE
:1002400000000000000000000000000000000000AE
:10025000000000000000000000000000000000009E
:10026000000000000000000000000000000000008E
:10027000000000000000000000000000000000007E
:10028000000000000000000000000000000000006E
:10029000000000000000000000000000000000005E
:1002A000000000000000000000000000000000004E
:1002B0000000000000000000F8B500BFF8BC08BC5A
:1002C0009E4670474156100CF8B500BFF8BC08BCFC
:1002D0009E4670471D56100C1003000001000000E0
:1002E0002DE9F0410646AEB0154600270591059967
:1002F0000B78002B00F0FA8000244FF0FF33CDE99B
:1003000009430EAB0B940C9380230D930B5D0BB143
:10031000252B26D134B12246304605F009FF059B36
:1003200023440593059B1A78252A40F0D78003F1D2
:100330000108CDF81480059803782B2B1AD025D806
:10034000202B1BD0232B1DD02A2B27D005F044F9BE
:100350000B90059B1A78303A092A2ED80133059361
:10036000F7E70134D2E7099B43F001030130099319
:100370000590E0E7099B43F00403F7E7099B43F08E
:100380000803F3E7099B43F01003EFE72D2BEAD0B6
:10039000302BD9D1099B43F00203E7E72B680130EA
:1003A0001A1D1B680590002B2A600B9305DA099A29
:1003B0005B4282F001020B930992099BDA0744BF6A
:1003C00023F002030993059B1A782E2A0DD10022EF
:1003D000581C0A9205905A782A2A25D1023305938F
:1003E0002B681A1D1B682A600A9305A805F004FBF8
:1003F000059B0390187806F024F96928039979D0B1
:1004000032DC632800F0CB8019DC252800F0D9808D
:10041000612853D000234FF0FF32CDF814800993A8
:100420000B930A920093D4E005F0D6F80A90059B4E
:100430001A78303A092AD8D801330593F7E76428A7
:1004400058D06728E6DC2A4606A805F0E3FD002818
:1004500000F0A180059B09A930465A1C059206AA06
:100460001B7806F026F938E0702873D015DC6E286A
:1004700000F08C806F28CDD12B46002206A803F017
:100480001BFA002800F08780059B06AA09A93046C0
:100490000133059306F00BF91FE075283AD0782850
:1004A00048D07328B6D1802975D1059B2A680133BD
:1004B0000593131D2B60002312687DE02A4606A8D1
:1004C00005F0A8FD002866D0059B09A930465A1CF6
:1004D000059206AA1B7806F0ECF804443C44A742B7
:1004E0007ADD3E4B4F224FF0FF371A6038462EB070
:1004F000BDE8F0812B46012206A803F0DDF90028B3
:1005000049D0059B06AA09A930460133059303F09B
:10051000D1FAE2E72B46002206A803F0CDF9002825
:1005200039D0059B06AA09A930460133059306F088
:10053000BEF8D2E72B46002206A803F0BDF950B35F
:10054000059B5A1C05921B7806AA09A9304606F09D
:10055000B0F8C2E72B460022F02106A803F0ACF960
:10056000C8B1059B01330593DDE9062313430BD185
:100570001B4805F0B1FF099B0246194900930B9BEC
:10058000304603F074FFA8E77823DDE72B463A19DD
:1005900006A803F0E9FF059B013305939EE7802938
:1005A000F9D1059B013305932B681A1D1B682A603E
:1005B00006AA8DF81830012309A9304606F07BF809
:1005C0008BE78029E7D1059B01330593099B0093B5
:1005D0000B9B01220349D3E7274688E664A4042045
:1005E0009066100C9666100C2DE9F04F099F154689
:1005F00004468E461E46002B40F0CC808A42B2FA5A
:1006000082FC4CD9BCF1000F0BD0CCF1200801FAD0
:100610000CFE02FA0CF500FA0CF420FA08F848EA8D
:100620000E0E4FEA15491FFA85F8210CBEFBF9FAA8
:1006300009FB1AE30AFB08FB41EA03439B452AD95D
:10064000EB180AF1FF3004D29B4502D9AAF102004F
:100650002B44A3EB0B03A4B2B3FBF9F209FB123357
:1006600002FB08F844EA0344A04516D92C1902F10C
:10067000FF3303D2A04501D9931E2C44A4EB0804F8
:1006800043EA004027B124FA0CF400233C607B606D
:100690003146BDE8F08F5046DBE71346EEE702B97E
:1006A000FFDEBCF1000F2ED18B1A01264FEA154E4A
:1006B000AAB2210CB3FBFEF80EFB183308FB02F9BB
:1006C00041EA0343994561D9EB1808F1FF3004D2A0
:1006D000994502D9A8F102002B44A3EB0903A4B267
:1006E000B3FBFEF10EFB11334A4344EA0344A2423A
:1006F0004ED92C1901F1FF3303D2A24201D98B1E2E
:100700002C44A41ABCE702FA0CF5CCF1200E01FA35
:100710000CF300FA0CF421FA0EF94FEA154820FA0E
:100720000EFEB9FBF8F14EEA030308FB11921FFA23
:1007300085FE180C01FB0EF640EA0242964221D9D2
:10074000AA1801F1FF3003D2964201D9881E2A442B
:10075000921B9BB2B2FBF8F908FB192209FB0EFEB3
:1007600043EA02439E450FD9EB1809F1FF3604D244
:100770009E4502D9A9F102062B44A3EB0E0346EADB
:10078000004693E70846E3E74E46F6E74046A4E70F
:100790000B46B6E78B4206D9002F7ED00026C7E96C
:1007A0000001304674E7B3FA83FCBCF1000F0FD1AF
:1007B0008B4201D3824209D8841A61EB030E0120D7
:1007C000002F6DD0C7E9004E002661E76046F7E7CD
:1007D000CCF1200E03FA0CF300FA0CF622FA0EF517
:1007E00021FA0EF402FA0CF21D4301FA0CF320FA7E
:1007F0000EF14FEA154A0B431FFA85F8B4FBFAF9DC
:100800000AFB19401C0C09FB08F144EA0044A14210
:100810003FD92C1909F1FF3004D2A14202D9A9F124
:1008200002002C44641A9BB2B4FBFAF90AFB194487
:1008300009FB08F843EA044188452CD9691809F1F5
:10084000FF3304D2884502D9A9F10203294443EABF
:100850000040A1EB0801A0FB02894945C2464C4675
:1008600002D306D1464504D20138B8EB020A69EB3F
:100870000504AFB1B6EB0A0361EB040606FA0EFEFF
:1008800023FA0CF326FA0CF64EEA0303C7E9003606
:100890009AE74846C6E74B46D9E73E463846F7E66C
:1008A0003E46F5E680B584B000AF4FF08A439B7DAD
:1008B000DBB2002B00F02281924B9B6AFB604FF071
:1008C0008A435B8B9BB203F00203022B08D18D4B52
:1008D000FF2283F820208B4B022283F82120C3E0E3
:1008E0004FF08A435B8B9BB203F00103012B08D1CD
:1008F000844BFF2283F82020824B022283F82120A0
:10090000B2E04FF08A435B8B9BB203F00403042BED
:1009100008D17C4BFF2283F820207A4B012283F8F8
:100920002120A1E0774B93F820305BB2042B00F23A
:100930009A8001A252F823F0670A100C670A100C83
:100940004D09100C050A100C7509100C6D4B1B6934
:10095000002B07D06B4B9B889BB20021184604F0FC
:10096000F7F981E0674B9B889BB20121184604F0A0
:10097000EFF979E0634B9B69BB60624B1B69BA6816
:100980009A422AD15F4B5B69002B13D05D4B9B8849
:100990009BB25B004FF08A4243F00103536200BFF9
:1009A0004FF08A43DB69002BFAD1564B032283F8C0
:1009B000202059E04FF08A435B684FF08A4243F4AD
:1009C0004033536000BF4FF08A43DB69002BFAD1FC
:1009D0004C4B062283F8202046E04A4B9A68BB68BD
:1009E00013441A784FF08A439A62BB680133BB60A4
:1009F00000BF4FF08A43DB69002BFAD1414ABB6844
:100A0000936131E03F4BDB697B603E4B5B69013BAF
:100A10007A689A4211D14FF08A435B684FF08A425C
:100A200043F4E023536000BF4FF08A43DB69002B9F
:100A3000FAD1344B062283F8202000BF4FF08A43BE
:100A4000DB69002BFAD14FF08A43996A2D4BDA68A3
:100A50007B681344CAB21A707B6801337B60294AF1
:100A60007B68D36100E000BF264B93F820305BB277
:100A7000B3F1FF3F1ED1234B002283F820204FF01B
:100A80008A435B684FF08A4243F44033536000BFAF
:100A90004FF08A43DB69002BFAD14FF08A439B2247
:100AA0001A76184B5B6A002B28D0164B5B6AF868E5
:100AB000984723E0134B93F820305BB2062B1DD1EF
:100AC000104B002283F820200E4B002283F82120B7
:100AD0004FF08A439B221A7600BF4FF08A435B8B0C
:100AE0009BB203F03003102BF7D1064B5B6A002B4F
:100AF00004D0044B5B6AF868984700BF00BF10370A
:100B0000BD4680BD38A3042080B588B000AF002367
:100B1000FB61774B1B68002B40F0DF80754B1B6837
:100B20000133BB61734ABB691360BB69002B10D1F1
:100B3000714B1B687B61714B1B686F4A13606F4A76
:100B40007B6913606E4B1B6801336D4A136004F0C0
:100B500037FF6C4B1B68BA699A42C0F0A980664B9C
:100B60001B681B68002B04D1664B4FF0FF321A60E4
:100B70009EE0614B1B68DB68DB683B613B695B683F
:100B8000FB60BA69FB689A4203D25E4AFB68136055
:100B90008EE03B695B69BB603B699B683A69D268E0
:100BA0009A603B69DB683A6992685A60BB685A6828
:100BB0003B6904339A4203D13B69DA68BB685A60E7
:100BC0003B6900225A61BB681B685A1EBB681A60E9
:100BD0003B699B6A002B1ED03B699B6A7B603B692B
:100BE000DB693A69126A9A603B691B6A3A69D269A1
:100BF0005A607B685A683B6918339A4203D13B6953
:100C00001A6A7B685A603B6900229A627B681B689B
:100C10005A1E7B681A603B69DA6A3B4B1B689A4232
:100C200003D93B69DB6A384A13603B69DA6A3749A2
:100C300013469B0013449B000B4404331B683B602A
:100C40003B693A689A603B689A683B69DA603B683E
:100C50009B683A6904325A603B691A1D3B689A6086
:100C60003B69DA6A13469B0013449B00274A1A44E7
:100C70003B695A613B69DA6A244913469B00134475
:100C80009B000B441B683A69D26A591C1F481346E3
:100C90009B0013449B00034419603B69DA6A1C4BB8
:100CA0001B68DB6A9A427FF65AAF0123FB6156E765
:100CB000174B1B68DA6A154913469B0013449B00C7
:100CC0000B441B68012B01D90123FB61114B1B68ED
:100CD000002B07D00123FB6104E00F4B1B6801339D
:100CE0000D4A1360FB6918462037BD4680BD00BF22
:100CF00058A4042034A4042024A4042028A40420FC
:100D000048A4042050A4042038A404204CA10420AA
:100D100020A4042044A4042040A4042080B588B06A
:100D200000AF0023FB610023BB6105F071FA0023D3
:100D30003B616B4B1B68013B694A1360684B1B6846
:100D4000002B40F0C580674B1B68002B00F0C08073
:100D50008FE0654BDB68DB68FB61FB699B6AFB60CE
:100D6000FB69DB69FA69126A9A60FB691B6AFA69B6
:100D7000D2695A60FB685A68FB6918339A4203D1FA
:100D8000FB691A6AFB685A60FB6900229A62FB6879
:100D90001B685A1EFB681A60FB695B69BB60FB69D4
:100DA0009B68FA69D2689A60FB69DB68FA699268A5
:100DB0005A60BB685A68FB6904339A4203D1FB69E5
:100DC000DA68BB685A60FB6900225A61BB681B681D
:100DD0005A1EBB681A60FB69DA6A444B1B689A4268
:100DE00003D9FB69DB6A414A1360FB69DA6A40494F
:100DF00013469B0013449B000B4404331B687B6029
:100E0000FB697A689A607B689A68FB69DA607B683C
:100E10009B68FA6904325A60FB691A1D7B689A6004
:100E2000FB69DA6A13469B0013449B00304A1A445C
:100E3000FB695A61FB69DA6A2D4913469B0013442A
:100E40009B000B441B68FA69D26A591C2848134658
:100E50009B0013449B0003441960FB69DA6A254B2D
:100E60001B68DB6A9A4204D9234A3B69012142F894
:100E700023101D4B1B68002B7FF46BAFFB69002B0D
:100E800001D004F09DFD1D4B1B687B617B69002B2D
:100E900012D0FFF739FE0346002B04D0164A3B69F7
:100EA000012142F823107B69013B7B617B69002BA8
:100EB000EFD1124B00221A600F4A3B6952F82330DF
:100EC000002B05D00123BB610A4B1B6805F08EF98E
:100ED00005F0B0F9BB6918462037BD4680BD00BF9C
:100EE00058A4042030A40420C8A3042038A404205B
:100EF0004CA1042020A4042044A4042040A40420E5
:100F0000B0B588B000AF786039600023FB7700236C
:100F10003B610023BB6100237B61684B1B7DFB733E
:100F2000664B93F82C30DBB2002B02D1FB7B002BFD
:100F300001D0012300E00023FB73FB7B03F00103DE
:100F4000FB73FB7B002B01D0FB7FB3E07B68002BA6
:100F500000F0AF807B681B68002B00F0AA803B6824
:100F6000002B02D105F0D0FA38607B681B681B01AA
:100F70003A689A4204D30023BB6110237B6116E0D8
:100F80007B681B68DB003A689A4204D30223BB618A
:100F900008237B610BE07B681A6813465B001344EF
:100FA0003A689A4203D30423BB6103237B617B69C4
:100FB00019464FF000027B681B684FF0000403FBEA
:100FC00002F501FB04F02844A1FB03340219144686
:100FD0004FF000004FF00001210441EA13411804D2
:100FE0003B684FF000041A46234604F0C9FE03464E
:100FF0000C46C3F580333B61314B1B68304A23F00C
:101000000203136000BF2E4BDB69002BFBD12C4B7E
:101010003A6992B29A817B685B68022B18D1284B9F
:101020001B6823F0706323F46043BA69520392B2E1
:10103000234913430B60224B5B6823F047027B6814
:1010400099687B68DB680B431D4913434B601EE0C6
:101050001B4B1B6823F0706323F46043BA6952038F
:1010600092B21343164A43F080731360144B5B68CB
:1010700023F4015323F007037A6892681A437B68CC
:10108000DB681A437B685B680D4913434B6000BF04
:101090000B4BDB69002BFBD1094B1B68084A43F063
:1010A0000203136000BF064BDB69002BFBD1012359
:1010B000FB77FB7F18462037BD46B0BDD4A2042085
:1010C0000020004580B584B000AF03463960FB8046
:1010D0000023FB603B68BB60FB88002B02D04FF015
:1010E000FF33C1E0FA88624913465B0013445B0199
:1010F0000B441B78002B02D04FF0FF33B4E0FA888A
:1011000013465B0013445B01594A1344FB60FB68C0
:1011100001221A70BB681A68FB681A61BB689A687A
:10112000FB685A61BB685A68FB689A60FB680022DA
:101130005A60FB680022DA62FB6800221A63FB68CF
:1011400000225A70FB6801221A85BB68DA68FB68C6
:101150009A61BB681A69FB68DA61BB685A69FB6807
:101160001A62BB689A69FB685A62BB68DA69FB68F5
:10117000DA64BB681A6AFB681A65BB685A6AFB685E
:101180005A65BB689A6AFB689A65BB68DA6AFB684D
:10119000DA65FB683833184604F0A0FA0346002BE2
:1011A00002D14FF0FF335FE0FB683C33184604F098
:1011B00095FA0346002B02D14FF0FF3354E0FB6851
:1011C0004033184604F08AFA0346002B02D14FF050
:1011D000FF3349E0FB6803F14400002300220021B3
:1011E00002F04AFE0346002B02D14FF0FF333BE0F2
:1011F000FB6803F1480000230022002102F03CFEBE
:101200000346002B02D14FF0FF332DE0FB689B69B2
:10121000B3F1FF3F08D0FB689B69DBB2FA68154960
:10122000184604F051F906E0FB681B695B69FA682F
:10123000114611489847FB68DB69B3F1FF3F08D0BE
:10124000FB68DB69DBB2FA680C49184604F03CF92C
:1012500006E0FB681B691B68FA6811460848984756
:10126000FB6802221A73FB8818461037BD4680BD02
:10127000B0A104205D56100C5961100C9D56100C45
:10128000294B100C90B58BB002AFF8607A603B60D0
:101290000B467B810023BB6100237B610023FB772E
:1012A0000023BB77F86802F09BFDB861BB69002B97
:1012B00001D1FB7FBBE097F83830012B07D17B6B66
:1012C000002B02D03B6B002B20D1FB7FAFE097F8C7
:1012D0003830022B03D097F83830082B07D13B6801
:1012E000002B02D07B68002B0FD1FB7F9FE03B6877
:1012F000002B08D07B68002B05D07B6B002B02D025
:101300003B6B002B02D1FB7F91E000BFBB691B68E8
:101310007B617B692C334FF0FF31184603F046FEAA
:101320000346012B40F08280BB6900225A71BA69E2
:101330007B695A627B699A69BB69DB689A420BD008
:101340007B691B695B69BA690C32002110469847BA
:10135000BB69DA687B699A6197F83830022B10D044
:10136000042B1BD0012B29D17B691B691B68788951
:101370007A6B396B98470346002B21D00123BB774A
:101380001EE07B691B695B6878893A6879689847D1
:101390000346002B16D00123BB7713E07B691B6942
:1013A0009C6878897B6B00933B6B3A687968A047AF
:1013B0000346002B08D00123BB7705E000BF04E003
:1013C00000BF02E000BF00E000BFBB7F002B12D0D7
:1013D0007B6934334FF0FF31184603F093FD034629
:1013E000012B1ED17B6993F82830DBB2002B18D17A
:1013F0000123FB7715E07B691B691B69984703464E
:101400001A46BB695A71BB695B79DBB2002B04D108
:101410007B69002283F8282003E07B69012283F89E
:1014200028207B692C33184604F054FAFB7F1846B9
:101430002437BD4690BD704780B489B000AF786056
:101440007B68DB68DB68BB61BB699B6A7B61BB69EE
:10145000DB69BA69126A9A60BB691B6ABA69D269A8
:101460005A607B695A68BB6918339A4203D1BB69D9
:101470001A6A7B695A60BB6900229A627B691B68A1
:101480005A1E7B691A604C4B1B68002B61D1BB69EB
:101490005B693B61BB699B68BA69D2689A60BB694A
:1014A000DB68BA6992685A603B695A68BB69043361
:1014B0009A4203D1BB69DA683B695A60BB69002272
:1014C0005A613B691B685A1E3B691A60BB69DA6A3C
:1014D0003A4B1B689A4203D9BB69DB6A374A1360EF
:1014E000BB69DA6A364913469B0013449B000B44E0
:1014F00004331B68FB60BB69FA689A60FB689A68F2
:10150000BB69DA60FB689B68BA6904325A60BB69E0
:101510001A1DFB689A60BB69DA6A13469B00134484
:101520009B00274A1A44BB695A61BB69DA6A24499D
:1015300013469B0013449B000B441B68BA69D26A94
:10154000591C1F4813469B0013449B000344196019
:101550001BE01C4B5B68BB60BB69BA68DA61BB68A7
:101560009A68BB691A62BB689B68BA6918325A608C
:10157000BB6903F11802BB689A60BB69114A9A62A1
:10158000104B1B6801330F4A1360BB69DA6A0E4BBC
:101590001B68DB6A9A4205D90123FB610B4B0122D0
:1015A0001A6001E00023FB61FB6918462437BD4641
:1015B0005DF8047B704700BF58A4042038A40420C1
:1015C0004CA10420C8A3042020A4042044A4042087
:1015D00080B58AB000AF7860396000237B627B6899
:1015E000FB6100233B6204F013FEFB699B6BBB6154
:1015F000BB69002B1ED0BB695A1EFB699A63FB694D
:101600001B68002B04D104F05BFB0246FB699A6067
:10161000FB691B69002B09D0FB6910331846FFF7E3
:101620000BFF0346002B01D004F0E0FD04F002FEA6
:10163000012383E03B68002B03D104F0FBFD002372
:101640007CE07B6A002B06D107F10C03184604F0FE
:101650008BFC01237B6204F0EDFD04F067FE04F0D7
:10166000D7FDFB6993F844305BB2B3F1FF3F03D180
:10167000FB69002283F84420FB6993F845305BB294
:10168000B3F1FF3F03D1FB69002283F8452004F04A
:10169000D1FD3A4607F10C031146184602F0CAFC88
:1016A0000346002B2CD1F86904F074FC0346002B90
:1016B00020D0FB691B68002B09D104F0A9FDFB6950
:1016C0009B68184600F0E4FD386204F0B3FDFB6946
:1016D00024333A681146184604F030FCF86902F0E9
:1016E0008FFAFFF71BFB0346002B7FF47CAF04F05F
:1016F0007DFD78E7F86902F083FAFFF70FFB72E7E8
:10170000F86902F07DFAFFF709FBF86904F042FC82
:101710000346002B3FF467AF3B6A002B0DD004F06B
:1017200077FDF86904F0FCFA7861FB699B687969D8
:10173000184600F05DFF04F07DFD002318462837B1
:10174000BD4680BD84A304201C00000000000000F2
:101750009CA204203800000000000000B0A104207A
:10176000600000000000000004A404200C00000041
:101770000000000038A304202C000000000000003E
:10178000D4A20420300000000000000010A40420B7
:10179000080000000000000008A304203000000042
:1017A00000000000ACA00420A00000000000000029
:1017B00064A30420200000000000000060A20420B8
:1017C0003C000000000000000000042018000000A1
:1017D0000000000068A404200400000001000000D4
:1017E000AAAAAAAA04A30420040000000000000082
:1017F000AC00042000A000000000000018A4042099
:101800000C000000000000004CA104206400000057
:1018100000000000A0A30420280000000000000039
:1018200024A404200800000000000000C8A3042035
:1018300028000000000000002CA404200400000088
:1018400000000000F0A304201400000000000000CD
:1018500030A4042028000000000000006CA4042034
:1018600004000000010000000400000058A404204F
:101870000400000000000000180004209400000094
:10188000000000005CA40420040000000000000030
:1018900010A20420500000000000000060A40420FA
:1018A0000800000000000000000000000000000030
:1018B0006666666680B586B000AF03460A46FB8062
:1018C00013467B7100237B610023FB60FB88002BA8
:1018D00002D04FF0FF339CE0FA881346DB009B1ADE
:1018E000DB004E4A1344FB60FB6893F90D30022B7A
:1018F00006D1FB681B7B83F00103DBB2002B02D017
:101900004FF0FF3385E0FB6830334FF0FF3118466E
:1019100003F04CFB0346002B02D14FF0FF3378E07D
:10192000FB681B78002B07D0FB683033184603F0A8
:10193000D1FF4FF0FF336CE0FB685B68002B0CD0ED
:101940007B7903F00803002B07D0FB68303318467F
:1019500003F0C0FF4FF0FF335BE000233B6146E044
:101960003B691A01FB68DB6913449B7983F001032F
:10197000DBB2002B38D03B691A01FB68DB691344EA
:101980007B617B6901229A717B69FA681A607B69C5
:101990007A791A717B6900225A71FB685A697B69EE
:1019A000DA607B7903F00803002B02D0FB68012288
:1019B0001A70FB685B685A1CFB685A60FB681B8CDA
:1019C000FA88D1B23A69D2B2184604F0F1F9024667
:1019D0007B699A60FB681B8C184604F0FFF903468C
:1019E0001A46FB681A8407E03B6901333B61FB68D8
:1019F0009B683A699A42B3D1FB683033184603F0CA
:101A000069FF7B69002B02D07B699B6801E04FF086
:101A1000FF3318461837BD4680BD00BF9CA2042086
:101A200080B586B000AF03460A46FB8013467B7143
:101A30000023FB6000237B61FB88002B02D04FF06A
:101A4000FF3399E0FA8813465B0013445B014C4A6C
:101A50001344FB60FB6893F90C30022B02D04FF06B
:101A6000FF3389E0FB6838334FF0FF31184603F04D
:101A70009DFA0346002B02D14FF0FF337CE0FB6858
:101A80005B78002B07D0FB683833184603F022FF41
:101A90004FF0FF3370E0FB685B68002B0CD07B7964
:101AA00003F00803002B07D0FB683833184603F017
:101AB00011FF4FF0FF335FE000233B614AE03A69DA
:101AC00013469B0013449B001A46FB685B69134452
:101AD0001B7C83F00103DBB2002B38D03A6913463C
:101AE0009B0013449B001A46FB685B6913447B61AF
:101AF0007B6901221A747B69FA681A607B697A79BA
:101B00001A717B6900229A607B7903F00803002B2D
:101B100002D0FB6801225A70FB685B685A1CFB68A4
:101B20005A60FB681B8DFA88D1B23A69D2B2184666
:101B300004F06AF902467B69DA60FB681B8D18467F
:101B400004F078F903461A46FB681A8507E03B69FA
:101B500001333B61FB689B683A699A42AFD1FB68ED
:101B60003833184603F0B6FE7B69002B02D07B6940
:101B7000DB6801E04FF0FF3318461837BD4680BDE3
:101B8000B0A1042080B584B002AF454B1B7883F030
:101B90000103DBB2002B23D003210020FFF78AFED4
:101BA00002463F4B5A603E4B5B68B3F1FF3F08D0A3
:101BB0003B4B3C4A9A603A4B5B683B49184603F002
:101BC0006BFE00210020FFF72BFF0246344BDA604A
:101BD000334BDB68B3F1FF3F02D0314B01221A7067
:101BE000324B1B684FF0FF323149184600F0BCFA07
:101BF0002B4B1B7C002B32D1294B93F84220284BD6
:101C00005A77274B5B69DAB2254B9A77244B586891
:101C10000223284A572103F08FFF0346002B0DD0E3
:101C200000BF1F4B5868FA1D0123572103F084FFA2
:101C3000034683F00103DBB2002BF2D1184B93F87B
:101C400042300133DAB2164B83F84220144B93F83A
:101C50004230042B03D9124B002283F84220104B50
:101C60001B7C012B17D10E4B00225A770C4B586866
:101C700005230193104B009301230E4A572103F0D3
:101C800074FF0346002B06D0054B93F842301946EB
:101C9000094801F097FC00BF0837BD4680BD00BF72
:101CA00068000420801A0600700004202800042028
:101CB000780004208500042080000420F0B540F264
:101CC000FF7681EA030C16EA115E1EBFB64516EADE
:101CD0001355B54252D021EA465141F48011A1FB7F
:101CE000024723EA465343F48013AE44A0FB036546
:101CF0000CF0004C36197D41A1FB034747F100036E
:101D0000A0FB0217F619654153F10003094218BF01
:101D100046F0010640F2FE74B3F5007F13D2AEF533
:101D2000806EA64523D24CEA0331280341EA1551BF
:101D300040EA16503203450872F1004250F10000AB
:101D400051EB0E51F0BDAEF2FF3EA6450FD24CEA6C
:101D5000C321E80241EA555140EA5650F2024508D3
:101D600072F1004250F1000051EB0E51F0BD1EEA3D
:101D70000E0F2DD50CF000410020F0BD16EA115FCA
:101D800004BF01F000410020004218BF41F00101F2
:101D900016EA135F04BF03F000430022124218BF8B
:101DA00043F0010306EA1354B44218BFB64503D00A
:101DB0000CF000410020F0BD21F0004123F0004371
:101DC000B1EB065F0CD8B3EB065F09D841B13BB16C
:101DD0000CF0004141F0FE4141F470010020F0BDE3
:101DE00040F20001C7F6F8710020F0BD80B58AB05E
:101DF00000AFF860B9607A603B6000237B62FB68EB
:101E00003B6204F005FA3B6A9A6B3B6ADB6B9A42D1
:101E100002D33B68022B1DD13A68B968386A01F0D9
:101E200067FBF8613B6A5B6A002B0AD03B6A24338C
:101E30001846FFF701FB0346002B07D004F0D6F944
:101E400004E0FB69002B01D004F0D0F904F0F2F9B2
:101E500001235CE07B68002B03D104F0EBF9002345
:101E600055E07B6A002B06D107F11403184604F0F5
:101E70007BF801237B6204F0DDF904F057FA04F0EB
:101E8000C7F93B6A93F844305BB2B3F1FF3F03D12B
:101E90003B6A002283F844203B6A93F845305BB2EA
:101EA000B3F1FF3F03D13B6A002283F8452004F0E1
:101EB000C1F93A1D07F114031146184602F0BAF8A9
:101EC0000346002B1DD1386A03F042FF0346002B66
:101ED00011D03B6A10337A681146184604F02EF888
:101EE000386A01F08DFEFEF719FF0346002B88D1FA
:101EF00004F07CF985E7386A01F082FEFEF70EFFF8
:101F00007FE7386A01F07CFEFEF708FF00231846E1
:101F10002837BD4680BD704780B489B000AFB96036
:101F20007A603B600346FB730023FB77BB68BB61B1
:101F30007B687B61FA7B404913465B0013449B003E
:101F40000B4408331B78DBB283F00103DBB2002BB8
:101F50006BD0FA7B384913465B0013449B000B445B
:101F6000083301221A703548FA7BB96913469B0081
:101F700013441B010344683319603048FA7B7969C4
:101F800013469B0013441B0103446C3319602B4917
:101F9000FA7B13469B0013441B010B4478331B68E8
:101FA00099B23B681B042548FA7B194313469B00F2
:101FB00013441B010344783319602049FB7B5A1CEE
:101FC00013469B0013441B010B441A681B48FB7B00
:101FD00042F001015A1C13469B0013441B010344A9
:101FE00019601649FB7B5A1C13469B0013441B01C6
:101FF0000B4404331B681B0CDBB2002B13D10F49BD
:10200000FB7B5A1C13469B0013441B010B441A68AC
:102010000A48FB7B42F480315A1C13469B00134450
:102020001B01034419600123FB77FB7F184624370B
:10203000BD465DF8047B704704A404200020804462
:1020400080B588B000AF786000233B610023FB605F
:102050000023FB617A6813465B0013449B003F4AF0
:102060001344BB613E497A6813469B0013441B012D
:102070000B4464331B683B6139497A6813469B0003
:1020800013441B010B4460331B6843F4C0223B69BB
:102090001340FB60FB6803F00103002B03D0FB69D6
:1020A00043F00403FB61FB6803F00203002B03D041
:1020B000FB6943F00803FB61FB6803F00403002B9A
:1020C00003D0FB6943F01003FB61FB6803F00803D6
:1020D000002B03D0FB6943F00103FB61FB6803F0B5
:1020E0001003002B03D0FB6943F02003FB61FB6866
:1020F00003F02003002B03D0FB6943F04003FB6196
:10210000FB6803F4C023002B03D0FB6943F00203F8
:10211000FB613A69134B1340002B02D0BB690022CC
:102120001A720F4839697A6813469B0013441B01E1
:10213000034464331960BB691B68002B0AD0FB6938
:10214000002B07D0BB695B687B61BB691B68796941
:10215000F869984700BF2037BD4680BD04A404201D
:10216000002080442A00060080B58AB000AFF860E5
:10217000B9607A6000237B62FB683B6204F048F838
:102180003B6A9B6BFB61FB69002B19D0B968386A0D
:1021900003F09AF8FB695A1E3B6A9A633B6A1B6913
:1021A000002B09D03B6A10331846FFF745F9034668
:1021B000002B01D004F01AF804F03CF8012363E08E
:1021C0007B68002B03D104F035F800235CE07B6AC8
:1021D000002B06D107F11403184603F0C5FE0123B6
:1021E0007B6204F027F804F0A1F804F011F83B6AD0
:1021F00093F844305BB2B3F1FF3F03D13B6A002256
:1022000083F844203B6A93F845305BB2B3F1FF3F5B
:1022100003D13B6A002283F8452004F00BF83A1DF5
:1022200007F114031146184601F004FF0346002B82
:102230001DD1386A03F0AEFE0346002B11D03B6A75
:1022400024337A681146184603F078FE386A01F0A4
:10225000D7FCFEF763FD0346002B8FD103F0C6FFCA
:102260008CE7386A01F0CCFCFEF758FD86E7386A47
:1022700001F0C6FCFEF752FD386A03F08BFE034600
:10228000002B3FF47BAF002318462837BD4680BDA6
:1022900080B586B000AF78607B683B6100237B61CE
:1022A0007B68002B7BD03B69DA6A3F4B1B68DB6A9B
:1022B0009A426BD23B699B69002B06DB3A4B1B6849
:1022C000DB6AC3F105023B699A613B6959693B6965
:1022D000DA6A13469B0013449B00344A1344994224
:1022E0004CD13B690433184602F0B4FE2E4B1B68F8
:1022F000DA6A3B69DA623B69DA6A2D4B1B689A42FB
:1023000003D93B69DB6A2A4A13603B69DA6A2749C9
:1023100013469B0013449B000B4404331B68FB6073
:102320003B69FA689A60FB689A683B69DA60FB6807
:102330009B683A6904325A603B691A1DFB689A60CF
:102340003B69DA6A13469B0013449B00174A1A4400
:102350003B695A613B69DA6A144913469B0013448E
:102360009B000B441B683A69D26A591C0F481346FC
:102370009B0013449B000344196004E00A4B1B6854
:10238000DA6A3B69DA6201237B6108E03B695A6CD7
:10239000054B1B68DB6A9A4201D201237B617B6992
:1023A00018461837BD4680BD20A404204CA1042047
:1023B00038A4042080B485B000AFF860B9607A60BA
:1023C0003B60FB68043BFB60FB684FF080721A6067
:1023D000FB68043BFB607A68FB681A60FB68043B9F
:1023E000FB603B4AFB681A60FB68043BFB60FB68D0
:1023F0004FF012321A60FB68043BFB60FB684FF041
:1024000003321A60FB68043BFB60FB684FF002324A
:102410001A60FB68043BFB60FB684FF001321A60F6
:10242000FB68043BFB603A68FB681A60FB68043B8E
:10243000FB60FB684FF011321A60FB68043BFB60E5
:10244000FB684FF010321A60FB68043BFB60FB68CE
:102450004FF009321A60FB68043BFB60FB684FF0E9
:1024600008321A60FB68043BFB60FB684FF00732E0
:102470001A60FB68043BFB60FB684FF006321A6091
:10248000FB68043BFB60FB684FF005321A60FB6899
:10249000043BFB60FB684FF004321A60FB68043BAE
:1024A000FB60FB686FF043021A60FB68043BFB6053
:1024B000BA68FB681A60FB68043BFB60FB6800229B
:1024C0001A60FB6818461437BD465DF8047B7047F8
:1024D0009D62100C80B584B000AF786003F098FE68
:1024E0003D4B1B6801333C4A13603C4B1B68002B7F
:1024F00009D13A4A7B681360374B1B68012B10D116
:1025000001F036FF0DE0364B1B68002B09D1334B31
:102510001B68DA6A7B68DB6A9A4202D82F4A7B68BA
:102520001360304B1B6801332E4A13607B68DA6AF4
:102530002D4B1B689A4203D97B68DB6A2A4A1360D9
:102540007B68DA6A294913469B0013449B000B44BD
:1025500004331B68FB607B68FA689A60FB689A68C2
:102560007B68DA60FB689B687A6804325A607B6833
:102570001A1DFB689A607B68DA6A13469B00134455
:102580009B001A4A1A447B685A617B68DA6A1749C9
:1025900013469B0013449B000B441B687A68D26A65
:1025A000591C124813469B0013449B0003441960B6
:1025B00003F040FE0A4B1B68002B08D0074B1B683A
:1025C000DA6A7B68DB6A9A4201D203F00FFE00BF31
:1025D0001037BD4680BD00BF30A4042020A40420D5
:1025E0003CA404204CA4042038A404204CA10420C2
:1025F00080B588B000AF786039607B68BB6101232B
:102600007B617B68002B75D0BB695B6C3A689A4232
:1026100002D93B68FB6102E0BB695B6CFB61BB6993
:10262000DB6AFA699A4265D0BB699B6C7A699A4207
:1026300060D1BB69DB6A3B61BB69FA69DA62BB697D
:102640009B69002B04DBFB69C3F10502BB699A613E
:10265000BB6959693A6913469B0013449B00274A9A
:102660001344994246D1BB690433184602F0F2FC88
:10267000BB69DA6A224B1B689A4203D9BB69DB6AE1
:102680001F4A1360BB69DA6A1C4913469B00134456
:102690009B000B4404331B68FB60BB69FA689A60BB
:1026A000FB689A68BB69DA60FB689B68BA690432A8
:1026B0005A60BB691A1DFB689A60BB69DA6A1346E7
:1026C0009B0013449B000D4A1A44BB695A61BB69C5
:1026D000DA6A0A4913469B0013449B000B441B68AB
:1026E000BA69D26A591C054813469B0013449B00E3
:1026F0000344196000BF2037BD4680BD4CA10420B3
:1027000038A4042080B489B000AFF860B9607A6062
:102710000023FB61FB6807EE903AF8EE677AC7ED9D
:10272000067ABB6807EE903AF8EE677AC7ED057A4D
:102730004FF000033B61BB685B00FA689A4201D22C
:10274000002357E0BB682E4A93421FD8D7ED066A94
:10275000D7ED057A86EEA77AD7ED067ADFED296AFE
:1027600067EEA67AF2EE046A77EEA67A77EE677ADB
:10277000C7ED047AD7ED047AFCEEE77A17EE903ACB
:10278000FB61BB68204A934213D801E0002331E08B
:10279000FB69B3F5FF7F02D9FF23FB6126E0FB69EC
:1027A000012B02D80123FB6120E0FB695B08FB6180
:1027B0001CE0FB69B3F5BF7F03D34FF67F73FB616A
:1027C00014E0FB69032B03D840F20123FB610DE009
:1027D000FB695B000D4AA2FB03235B081A02FB693D
:1027E0000A49A1FB03135B081343FB617B68FA6989
:1027F0001A60012318462437BD465DF8047B7047F4
:1028000040420F0095BFD633801A0600ABAAAAAA91
:1028100080B584B002AF0023BB71384B1B7883F0C6
:102820000103DBB2002B23D003210020FFF742F885
:102830000246324B5A60314B5B68B3F1FF3F08D020
:102840002E4B2F4A9A602D4B5B682E49184603F099
:1028500023F800210020FFF7E3F80246274BDA6057
:10286000264BDB68B3F1FF3F02D0244B01221A70E4
:102870004FF47A7003F0DCF84FF089434FF4801284
:10288000C3F89C211D4B5868BA1D022301931E4BAF
:10289000009301234F2103F068F90346002B29D050
:1028A000194800F0F7FE03461A46144B83F8382007
:1028B000124B00221A74114B93F938301A460F4B01
:1028C0005A61124B186800234FF0FF321049FFF78E
:1028D0008DFA0A4B93F938301A460E490E4803F028
:1028E00076FD0346FB71054BDB68FA790A49184609
:1028F00000F096F800BF0837BD4680BD2C000420CC
:10290000A086010034000420440004202800042094
:102910003C000420A864100C4600042080B584B05C
:1029200000AF03463960FB800023FB603B68BB605F
:10293000FB88002B02D04FF0FF3368E0FA8836495D
:102940001346DB009B1ADB000B440D3393F9003078
:10295000022B02D14FF0FF3359E0FA881346DB0017
:102960009B1ADB002C4A1344FB60FB6801221A739C
:10297000BB681A68FB681A61BB685A68FB68DA6151
:10298000BB689A68FB689A60FB6800225A60FB6823
:1029900000225A62FB6801221A84FB6800221A7026
:1029A000BB68DA68FB685A61BB68DA68FB689A61E1
:1029B000FB683033184602F091FE0346002B02D12B
:1029C0004FF0FF3323E0FB682C33184602F086FEFD
:1029D0000346002B02D14FF0FF3318E0FB6803F1F0
:1029E000340000230022002101F046FA0346002BA8
:1029F00002D14FF0FF330AE0FB681B699B69FA685C
:102A0000114606489847FB6802225A73FB8818460D
:102A10001037BD4680BD00BF9CA20420B14E100CF3
:102A200080B588B000AFF860B9607A600023BB6100
:102A300000237B610023FB77F86801F033F9B8616C
:102A4000BB69002B5FD07B68002B5CD0BB68002B80
:102A500059D0BB691B687B617B693C334FF0FF3108
:102A6000184602F0A3FA0346012B4CD1BB690022A1
:102A70009A60BA697B691A637B699B69B3F1FF3F0E
:102A800024D07B69DB6D032B10D97B699B69012105
:102A9000184601F02BFD7B699B69D8B27B691A6AE5
:102AA0007B685B00B968FFF737FA15E07B699B69C3
:102AB0000021184601F01AFD7B699B69D8B27B6939
:102AC0001A6A7B68B968FFF727FA05E07B691B691A
:102AD0009B697968B86898477B6944334FF0FF3148
:102AE000184602F00FFA0346012B07D17B6993F8D1
:102AF0003430DBB2002B01D10123FB777B693C33FF
:102B0000184602F0E7FEFB7F18462037BD4680BD21
:102B100080B588B000AFF860B9607A600023BB610F
:102B200000237B610023FB77F86801F0BBF8B861F4
:102B3000BB69002B5FD07B68002B5CD0BB68002B8F
:102B400059D0BB691B687B617B6940334FF0FF3113
:102B5000184602F02BFA0346012B4CD1BB69002228
:102B60009A60BA697B69DA627B69DB69B3F1FF3F1E
:102B700024D07B69DB6D032B10D97B69DB690121D4
:102B8000184601F0B3FC7B69DB69D8B27B69596AEE
:102B90007B685B00BA68FFF7BFF915E07B69DB690A
:102BA0000021184601F0A2FC7B69DB69D8B27B6981
:102BB000596A7B68BA68FFF7AFF905E07B691B6962
:102BC0005B687968B86898477B6948334FF0FF3194
:102BD000184602F097F90346012B07D17B6993F859
:102BE0003530DBB2002B01D10123FB777B69403309
:102BF000184602F06FFEFB7F18462037BD4680BDA9
:102C00002DE9F00388B000AF78604FF000034FF07B
:102C10000004C7E90634354BFB60FB685B6A7B61E7
:102C200000233B617B68002B59D07B689B68BB60AD
:102C30007B69002B28D17B68BA689A60FB687A6848
:102C40005A624DE07B699B6819464FF00002D7E954
:102C50000634CD1842EB0406BB684FF00004B442C2
:102C600008BFAB4214D37B699B684FF00004D7E9DF
:102C7000061211EB030842EB0409C7E906897B69D8
:102C80003B617B699B697B617B69002BDAD100E04A
:102C900000BF3B69002B06D1FB687A685A627B68EB
:102CA0007A699A6106E03B699A697B689A613B6937
:102CB0007A689A61BB69BA68D21A7B689A607B6845
:102CC0009B69002B0CD07B689B68BB607B689B6911
:102CD00099687B689B69BA688A1A9A6000E000BFAD
:102CE0002037BD46BDE8F003704700BF08A30420AD
:102CF00080B586B000AF344B1B68002B03D0334B3C
:102D000001221A605CE0314B00221A60304B1B68D4
:102D10001B6B3B614FF0A533FB603B691B68FA6896
:102D20009A4211D13B6904331B68FA689A420BD16D
:102D30003B6908331B68FA689A4205D13B690C333A
:102D40001B68FA689A4209D0214B1B683433BB6078
:102D50001F4B1B68B968184603F038FC1D4B1B68F5
:102D60007B6102E07B69013B7B611B497A69134609
:102D70009B0013449B000B441B68002BF2D07A6924
:102D800013469B0013449B00134A13447B607B68EB
:102D90005B685A687B685A607B685A687B6808334E
:102DA0009A4203D17B68DA687B685A607B685B680B
:102DB000DB68074A1360074A7B691360044B1B6892
:102DC00000BF1837BD4680BD58A4042044A4042089
:102DD00020A4042038A404204CA1042080B586B08F
:102DE00000AF78607B683B6100237B617B68002BD0
:102DF00061D03B699B6C5A1E3B699A643B69DA6AF5
:102E00003B695B6C9A4256D03B699B6C002B52D15C
:102E10003B690433184602F01DF93B695A6C3B6963
:102E2000DA623B69DB6AC3F105023B699A613B697F
:102E3000DA6A234B1B689A4203D93B69DB6A204A52
:102E400013603B69DA6A1F4913469B0013449B00D9
:102E50000B4404331B68FB603B69FA689A60FB68AB
:102E60009A683B69DA60FB689B683A6904325A6089
:102E70003B691A1DFB689A603B69DA6A13469B003E
:102E800013449B000F4A1A443B695A613B69DA6A52
:102E90000C4913469B0013449B000B441B683A6982
:102EA000D26A591C074813469B0013449B000344F5
:102EB000196001237B617B6918461837BD4680BDC8
:102EC00038A404204CA1042080B500AF07212120A4
:102ED00002F096F8212002F01BFD0721222002F0CB
:102EE0008FF8222002F014FD0721232002F088F839
:102EF000232002F00DFD0721442002F081F8442038
:102F000002F006FD0721602002F07AF8602002F04E
:102F1000FFFC0721612002F073F8612002F0F8FC49
:102F20000721622002F06CF8622002F0F1FC072118
:102F3000632002F065F8632002F0EAFC07216420B8
:102F400002F05EF8642002F0E3FC0721652002F045
:102F500057F8652002F0DCFC0721662002F050F8EB
:102F6000662002F0D5FC0721672002F049F86720AF
:102F700002F0CEFC0721682002F042F8682002F03F
:102F8000C7FC0721692002F03BF8692002F0C0FC71
:102F900007216A2002F034F86A2002F0B9FC072108
:102FA0006B2002F02DF86B2002F0B2FC00BF80BD58
:102FB00080B584B000AF364B1B7DDBB2002B62D0F6
:102FC000334B9B68BB60324B5B68BA689A4234BF34
:102FD00001230023BB732F4B1B7EDBB203F00103E5
:102FE000012B0CBF01230023FB732AE0294B5B68F4
:102FF00003F00703012B07D0254B1A68BB68134465
:103000001A78244B9A6207E0214B1A68BB685B0070
:1030100013441A881F4B9A62BB680133BB601C4B78
:103020005B68BA689A4234BF01230023BB73194B13
:103030001B7EDBB203F00103012B0CBF0123002335
:10304000FB73FB7B002B02D0BB7B002BCED1104A45
:10305000BB6893600E4B5B68BA689A4213D30C4B03
:1030600000221A750A4B00225A600A4B01221A7577
:10307000074BDB68002B06D0054B1B697B60044BBC
:10308000DB687868984700BF1037BD4680BD00BF39
:10309000D4A204200020004580B586B000AFF860BF
:1030A000B9603B601346FB80BB6A186BFB889B00D2
:1030B0001A46A52103F06EFABB6A1A6BFB8803F16E
:1030C0008043013B9B0013443B613B6923F00703B2
:1030D0003B61BB68002B1ED000237B6112E0BA6805
:1030E0007B6913441978BA6A7B69134434330A46FE
:1030F0001A70BA687B6913441B78002B06D07B6971
:1031000001337B617B690F2BE9D900E000BFBB6A0B
:10311000002283F843203B6A042B01D904233B623D
:10312000BB6A3A6ADA62BB6A3A6A5A64BB6A0433B7
:10313000184603F03FF9BB6A1833184603F03AF912
:10314000BB6ABA6A1A613B6AC3F10502BB6A9A613B
:10315000BB6ABA6A5A62BB6A196B3B68FA6838691B
:10316000FFF728F90246BB6A1A607B6A002B02D07F
:0E3170007B6ABA6A1A6000BF1837BD4680BD80
:1031800080B582B000AF364B9B7DDBB2002B62D0A6
:10319000334B1B7EDBB203F08003802B0CBF01237B
:1031A0000023FB712E4B9B7DDBB203F08003802B51
:1031B00004D1FB79002B01D0012300E00023FB7137
:1031C000FB7903F00103FB71FB79002B01D001F0C7
:1031D000EBFD234B1B7EDBB203F00103012B0CBF85
:1031E00001230023FB711E4B9B7DDBB203F0010327
:1031F000012B04D1FB79002B01D0012300E0002337
:10320000FB71FB7903F00103FB71FB79002B01D00B
:10321000FFF7CEFE124B1B7EDBB203F00403042B40
:103220000CBF01230023FB710D4B9B7DDBB203F030
:103230000403042B04D1FB79002B01D0012300E00F
:103240000023FB71FB7903F00103FB71FB79002B79
:1032500001D000F087FB00BF0837BD4680BD00BF2E
:103260000020004580B588B000AF786039602F4BF2
:103270001B68FB612E4B1B68BB612E4B1B687B617F
:103280002D4B1B680433184601F0E4FE7B68B3F154
:10329000FF3F24D13B68002B21D0284B5B683B616A
:1032A000254B1B683A699A60234B1B683A69926800
:1032B000DA60214B1A683B699B6804325A601E4BE6
:1032C0001B681A1D3B699A601B4B1B681B4A5A619D
:1032D0001A4B1B680133194A136000BF22E0FA69D8
:1032E0007B681344FB60144B1B68FA685A60FA68E9
:1032F000FB699A4207D2104B1B6804331946786960
:1033000001F062FA0EE00C4B1B6804331946B869F1
:1033100001F05AFA0A4B1B68FA689A4202D2084A2C
:10332000FB68136000BF2037BD4680BD34A4042075
:1033300024A4042028A4042020A40420F0A3042012
:1033400050A4042080B584B000AF786039600123B8
:10335000FB607B68BB60BB68002B57D0BB68DB6B36
:10336000002B53D0BB681A6CBB68DB6B0021A3FB3E
:103370000223002B00D001210B46002B46D102F086
:1033800047FFBB681A68BB68DB6BB968096C01FB57
:1033900003F31A44BB689A60BB6800229A63BB6857
:1033A0001A68BB685A60BB681A68BB68DB6B013B74
:1033B000B968096C01FB03F31A44BB68DA60BB68A7
:1033C000FF2283F84420BB68FF2283F845203B6836
:1033D000002B0ED1BB681B69002B14D0BB681033C7
:1033E0001846FEF729F80346002B0CD002F0FEFE2B
:1033F00009E0BB681033184602F0F0F9BB682433CB
:10340000184602F0EBF902F015FF01E00023FB6023
:0A341000FB6818461037BD4680BD6A
:10341C0080B586B000AF7860396000237B617B6833
:10342C00002B01D1002354E07B681B683B613B6897
:10343C00002B01D1294B3B6007F10C031A4639696B
:10344C003868FFF759F9034683F00103DBB2002B10
:10345C0001D000233DE03B69214A934201D901236D
:10346C007B614FF08A431B684FF08A4223F00203C2
:10347C00136000BF4FF08A43DB69002BFAD14FF089
:10348C008A42FB68D3604FF08A431B6823F040727A
:10349C007B691B0603F040734FF08A4113430B60AA
:1034AC004FF08A431B684FF08A4243F002031360CB
:1034BC0000BF4FF08A43DB69002BFAD14FF08A43EF
:1034CC0010225A8300BF4FF08A43DB69002BFAD1DC
:1034DC00012318461837BD4680BD00BF00879303F3
:1034EC00801A060080B586B000AFF860B9607A60CB
:1034FC0000237B61FB689B6B3B61FB681B6C002BA7
:10350C000DD1FB681B68002B4DD1FB689B681846DE
:10351C00FFF75EFC7861FB6800229A6043E07B68F1
:10352C00002B19D1FB685868FB681B6C1A46B968EC
:10353C0002F004FFFB685A68FB681B6C1A44FB68BA
:10354C005A60FB685A68FB689B689A422BD3FB68ED
:10355C001A68FB685A6026E0FB68D868FB681B6C2D
:10356C001A46B96802F0EAFEFB68DA68FB681B6C65
:10357C005B421A44FB68DA60FB68DA68FB681B681C
:10358C009A4207D2FB689A68FB681B6C5B421A4430
:10359C00FB68DA607B68022B05D13B69002B02D0FB
:1035AC003B69013B3B613B695A1CFB689A637B6935
:1035BC0018461837BD4680BD80B584B000AF786022
:1035CC000B46FB702B4BBB602B49B86802F0F9FE25
:1035DC000346FB73FB78BB7313E0FB7BBA68D01814
:1035EC00BB7B7A6813441B785BB21A46234902F002
:1035FC00E8FE0346DAB2FB7B1344FB73BB7B01335F
:10360C00BB73BB7B042BE8D9FB78002B1AD00023AF
:10361C00BB7313E0FB7BBA68D018BB7B7A6813448E
:10362C001B785BB21A46154902F0CBFE0346DAB2A0
:10363C00FB7B1344FB73BB7B0133BB73BA7BFB7803
:10364C009A42E7D3FB7BBA6813440D49184602F043
:10365C00B8FE0346DAB2FB7B1344FB73094BDB6801
:10366C00FA7B04491846FFF7D5F900BF1037BD4661
:10367C0080BD00BF870004206C65100C7465100CB5
:10368C007C65100C6800042090B585B000AF7860A4
:10369C007B681B781B021AB27B6801331B781BB248
:1036AC001343FB81B7F90E30002B14DBB7F90E3046
:1036BC00DB111BB2184602F0C9FD4FF00002214B82
:1036CC00FEF7F6FA03460C461846214601F01CFE9E
:1036DC000346FB8119E0FB895B429BB2FB81B7F986
:1036EC000E30DB11FB81B7F90E30184602F0AEFD3F
:1036FC004FF00002144BFEF7DBFA03460C4618465B
:10370C00214601F001FE0346FB81B7F90E3007EEAE
:10371C00903AF8EEE77AB2EE027A27EE877AF1EE7B
:10372C00046AC7EE267A9FED097A77EE877AFDEE6A
:10373C00E77A17EE903AFB81FB895BB21846143797
:10374C00BD4690BD0000E03F0000E0BF000000421D
:10375C0080B584B000AF78600023FB607B6803F019
:10376C000703002B0ED07B6823F0070308337A681D
:10377C009A4205D27B6823F0070308337B6001E093
:10378C0000237B6002F0CCFD1A4B1B68002B05D18B
:10379C00194B23F007031A46164B1A607B68002B53
:1037AC001BD0164B1A687B68134449F6F772934288
:1037BC0013D8124B1A687B681A44104B1B689A4238
:1037CC000BD90C4B1A680D4B1B681344FB600B4B4D
:1037DC001A687B681344094A1360FDF799FAFB6871
:1037EC00002B01D102F040FFFB6818461037BD4694
:1037FC0080BD00BF1CA40420B300042018A4042026
:10380C0080B487B000AF786039600023FB7500236B
:10381C003B617B68002B3ED0224B1B7DDBB283F0DF
:10382C000103DBB2002B36D01E4A7B6813601D4AA5
:10383C003B6853601B4B01221A751A4B5B68FB608B
:10384C0016E0194B5B6803F00703012B06D07A686E
:10385C003B6913441A78144B9A6206E03B695B008F
:10386C007A6813441A88104B9A623B6901333B61A6
:10387C000D4B1B7EDBB203F00103012B03D13A6924
:10388C00FB689A42DDD3074A3B699360064B0122E1
:10389C009A750123FB75FB7D18461C37BD465DF8F8
:1038AC00047B7047D4A2042000200045882910B561
:1038BC0036D012DC812943D003DC802940D0002093
:1038CC0010BD82290ED08429F9D1196802B30A1DC2
:1038DC001A60B1F90020D3171EE0A0292BD00BDC05
:1038EC009029ECD11968073121F0070101F1080288
:1038FC001A60D1E900230FE0C02901D0F029DED1F4
:10390C001A68111D1960136803600023436005E0F9
:10391C000A1D1A600A880023C0E900230120CFE7A2
:10392C00196822B10A1D1A6091F90020D3E70A1D0B
:10393C001A600A78EFE71A68111D12681960CAE755
:10394C0019681AB10A1D1A600A68C4E70C1D1C60BC
:10395C000B68C0E90032E1E780B584B000AF264BBC
:10396C0093F82C30DBB2002B42D0234BDB69FB608D
:10397C00214B1B6AFA689A423AD91F4B9B6ABB606F
:10398C001E4B9B6AFB801C4B1B6A3B601B4B5B6892
:10399C0003F00703012B07D0174B9A693B681344BC
:1039AC00FA88D2B21A7006E0134B9A693B685B0036
:1039BC001344FA881A803B6801333B600E4A3B681B
:1039CC0013620D4BDB693A689A4211D10A4B002203
:1039DC0083F82C20084B0022DA61084B84221A75DC
:1039EC00054B5B6A002B03D0034B5B6AB8689847A6
:1039FC0000BF1037BD4680BDD4A204200020004576
:103A0C0080B584B000AF264BBB6000237B60BB68E5
:103A1C005B6A7B607B68002B08D07B689B68002B03
:103A2C0004D07B689B685A1E7B689A6000F014FC7B
:103A3C000023FB732DE0FB7B1A4A5B011344153307
:103A4C001B78DBB2002B21D0FB7B164A5B011344A5
:103A5C00153300221A70FB7B124A5B0113440233AC
:103A6C001B78012B12D1FA7BFB7B0E4952010A44C5
:103A7C00043212680B495B010B4408331A60FB7B60
:103A8C005B01084A13441846FFF7B4F8FB7B01337B
:103A9C00FB73FB7B042BCED900BF1037BD4680BD1A
:103AAC0008A30420ACA004202DE9F041D2E90023A6
:103ABC000C4686B007465FEAD37820684968A5684B
:103ACC000590E66841D0524263EB4303002908DBC2
:103ADC0020F002000590B8F1000F02D105994807BB
:103AEC002AD5691E05A802900A20CDE900102046AF
:103AFC0000F028FEB8F1000F02D1059B59071FD525
:103B0C00B8F1000F00F1FF3014BF2D232B233354D9
:103B1C0022693118059B013A00932B46121A38463C
:103B2C0000F09FFC7B68DB0503D563689842B8BF47
:103B3C00184606B0BDE8F0810807D2D42946D1E773
:103B4C001A07E5D501382023E1E70029C0DAC5E7DB
:103B5C00264B1868264B1968EFF3098278B107B524
:103B6C00FBF75CFA0FBC9E46590608D5204B19682A
:103B7C000C3A0A60EFF30B8173460BC20BE01C4B43
:103B8C0019682C3A0A600C3282E8F00FEFF30B81C3
:103B9C0073460C3A0BC24FF0200080F31188BFF330
:103BAC004F8FBFF36F8FFFF79DF84FF0000080F33E
:103BBC0011880F4B19680A6813CA81F30B88A64643
:103BCC000A4B186058B10A4B196814B4FBF71EFA6B
:103BDC0014BCA646610602D582F309887047B2E888
:103BEC00F00F82F30988704700BF000004A3042083
:103BFC0020A4042080B584B000AF786002F002FBF2
:103C0C007B6893F84530FB7311E07B685B6A002B93
:103C1C0012D07B6824331846FDF708FC0346002BB2
:103C2C0001D002F023FCFB7B013BDBB2FB7397F969
:103C3C000F30002BE9DC00E000BF7B68FF2283F82B
:103C4C00452002F0F1FA02F0DDFA7B6893F844307B
:103C5C00BB7311E07B681B69002B12D07B6810339F
:103C6C001846FDF7E3FB0346002B01D002F0FEFBE8
:103C7C00BB7B013BDBB2BB7397F90E30002BE9DC4D
:103C8C0000E000BF7B68FF2283F8442002F0CCFAEE
:103C9C0000BF1037BD4680BD80B485B000AF7860E2
:103CAC000023BB600023FB607B68B3F1FF3F3AD07D
:103CBC007B68002B37D07B681B0ADBB2BB60BB6810
:103CCC00002B01D000232FE07B68D9B21948BA68C9
:103CDC0013465B0013445B01034408331B68994291
:103CEC0001D3002320E07B68DAB213469B00134417
:103CFC009B0018460F49BA6813465B0013445B01DE
:103D0C000B4414331B680344FB60FB68DB687A6864
:103D1C009A4206D1FB681B7C83F00103DBB2002BBB
:103D2C0001D0002300E0FB6818461437BD465DF84F
:103D3C00047B7047B0A1042080B588B000AF7860D8
:103D4C0039607B68BB6102F022FB7861BB699B6BBD
:103D5C003B61BB69DB6B3A699A4231D2BB6993F820
:103D6C004530FB733B695A1CBB699A6397F90F305A
:103D7C00B3F1FF3F12D1BB695B6A002B1DD0BB694D
:103D8C0024331846FDF752FB0346002B15D03B6835
:103D9C00002B12D03B6801221A600EE002F05AFB95
:103DAC00B86097F90F30BA689A4206D9FB7B013399
:103DBC00DBB25AB2BB6983F845200123FB6101E0F9
:103DCC000023FB61786902F003FCFB69184620377D
:103DDC00BD4680BD80B485B000AF78600023BB6069
:103DEC000023FB607B68B3F1FF3F36D07B68002B70
:103DFC0033D07B681B0ADBB2BB60BB68002B01D0E5
:103E0C0000232BE07B68D9B21748BA681346DB0055
:103E1C009B1ADB00034408331B68994201D300232F
:103E2C001CE07B68DBB219010F48BA681346DB0053
:103E3C009B1ADB0003441C331B680B44FB60FB68C0
:103E4C009B687A689A4206D1FB689B7983F00103E0
:103E5C00DBB2002B01D0002300E0FB6818461437BE
:103E6C00BD465DF8047B70479CA2042080B584B0ED
:103E7C0000AFF8607A603B600B46FB72FB7A002B5C
:103E8C0002D0012B22D029E03B68012B1CD8032245
:103E9C000021012000F0A6FA0246FB681A60FB68BC
:103EAC001B68002B20D03B68012B1DD1FB681868C8
:103EBC00002300220021FDF793FF0346012B01D1C3
:103ECC00012319E0002317E0002315E03968786816
:103EDC0001F0BDFC0246FB681A6006E0FB6800229C
:103EEC001A604FF0FF3307E000BFFB681B68002B24
:103EFC0001D1002300E0012318461037BD4680BDD8
:103F0C0080B400AF204B214A1A601F4B4FF622029F
:103F1C009A811D4B4FF440325A6000BF1A4BDB693B
:103F2C00002BFBD1184B1B68174A43F0020313609C
:103F3C0000BF154BDB69002BFBD1154B00229A619E
:103F4C00134B0022DA61124B00221A62104B002232
:103F5C0083F82C200E4B00225A620D4B00221A6063
:103F6C000B4B00225A600A4B00229A60084B00222D
:103F7C001A75074B0022DA60054B0022DA8500BF68
:103F8C00BD465DF8047B70470020004504011040DD
:103F9C00D4A2042080B58AB002AF0123FB610023B8
:103FAC003B6100237B6111E01C4A7B691344197847
:103FBC003A467B6913440A461A703A467B691344A5
:103FCC001B78002B06D07B6901337B617B690F2B3F
:103FDC00EADD00E000BF0023BB6115E0104B3B6144
:103FEC00BB699B000F4A134439460193002300938D
:103FFC0000238022386901F019FAF861FB69002B63
:10400C0006D0BB690133BB61BB69002BE6DD00E068
:10401C0000BFFB6918462037BD4680BD8866100C72
:10402C00E160100C54A4042080B586B000AF786019
:10403C00396002F0E7F81F4B1B683B617B685B68DB
:10404C003A69D31AFB603B681B68B3F1FF3F02D19E
:10405C0000237B6126E07B681A68174B1B689A4229
:10406C000AD07B685B683A699A4205D301237B616D
:10407C003B6800221A6015E03B681B68FA689A429C
:10408C000BD23B681A68FB68D21A3B681A607868D6
:10409C0001F064FF00237B6104E03B6800221A609E
:1040AC0001237B6102F0C0F87B6918461837BD46C6
:1040BC0080BD00BF34A4042048A4042080B487B081
:1040CC0000AF78601F4BFB60FB685B6A7B61002371
:1040DC003B61FB685B6A7B6104E07B693B617B69EC
:1040EC009B697B617B69002B03D07A697B689A4260
:1040FC00F3D17B69002B1FD07B689B69002B0AD006
:10410C007B689B68BB607B689B6999687B689B69D3
:10411C00BA680A449A603B69002B05D1FB685B6A5C
:10412C009A69FB685A6203E07B689A693B699A61F9
:10413C007B6800229A6100E000BF1C37BD465DF829
:10414C00047B704708A3042080B483B000AF002325
:10415C007B6000237B601FE01A497A6813465B0082
:10416C0013449B000B4400221A6016497A681346CC
:10417C005B0013449B000B44043300221A6011496A
:10418C007A6813465B0013449B000B4408330022EF
:10419C001A707B6801337B607B68002BDCD00A4B88
:1041AC000A4A5A65084B01229A67074B08221A667D
:1041BC00054B02221A6000BF0C37BD465DF8047B2C
:1041CC00704700BF04A404200020804403002C008E
:1041DC0080B400AF4FF08A4301221A6000BF4FF049
:1041EC008A43DB69002BFAD14FF08A434FF480727B
:1041FC005A6000BF4FF08A43DB69002BFAD14FF0B5
:10420C008A43FF22DA604FF08A43114A1A6000BFDA
:10421C004FF08A43DB69002BFAD14FF08A4310220E
:10422C005A8300BF4FF08A43DB69002BFAD1094B4C
:10423C00002283F82120074B002283F820204FF026
:10424C008A439B229A7500BFBD465DF8047B70477C
:10425C001604100038A3042080B582B000AF1F4BA9
:10426C003B603B685B6A7B602EE07B689B68002B45
:10427C002ED17B6801221A757B6801225A757B68E6
:10428C009B78002B09D17B68DB68002B05D07B6801
:10429C00DB69184600F0A8FB09E07868FFF70EFF11
:1042AC007B689B78002B02D17B6800225A707B685C
:1042BC00DB68002B05D07B68DB687A6812691046D6
:1042CC0098473B685B6A7B607B68002BCDD100E034
:1042DC0000BF00BF0837BD4680BD00BF08A3042047
:1042EC0080B586B000AF78607B689B697B617B6929
:1042FC00023B1B78FB74FB7C652B18D0662B22D001
:10430C00642B27D17B681B68FB60144B1B68194618
:10431C00F868FAF773FE0246114B1A60104B1A68D4
:10432C000E4B1B6819461046FAF770FE12E07B68BC
:10433C001B68FB607B685B68BB60FB681946B868F0
:10434C00FAF774FE06E0FAF755FEFAF75BFE01F099
:10435C009FFB00BF00BF1837BD4680BD20A40420C2
:10436C0004A3042080B582B000AF00237B600CE076
:10437C007A6813469B0013449B00124A1344184658
:10438C0001F026FA7B6801337B607B68042BEFD944
:10439C000D4801F01DFA0D4801F01AFA0C4801F015
:1043AC0017FA0C4801F014FA0B4801F011FA0B4BF8
:1043BC00054A1A600A4B054A1A6000BF0837BD4609
:1043CC0080BD00BF4CA10420A0A30420B4A30420F2
:1043DC00C8A30420DCA30420F0A3042024A40420FC
:1043EC0028A4042080B58AB002AFF860B9601346E7
:1043FC00FB710023FB61FB68002B2DD00021BA68F8
:10440C00FB68A3FB0223002B00D001210B46002BE1
